:1000000078EF00F0FF00FF00E9CF12F0EACF13F025
:10001000D9CF14F0DACF15F0F6CF16F0F7CF17F0EE
:10002000F8CF18F0F5CF19F0F2A401D001D007D025
:1000300092EC0DF0F294FE0ED76E0C0ED66E9EAAC8
:1000400001D001D003D09AEC0CF09E9A9EAC01D066
:1000500001D003D034EC0DF09E9C19C0F5FF18C000
:10006000F8FF17C0F7FF16C0F6FF15C0DAFF14C07F
:10007000D9FF13C0EAFF12C0E9FF1100E9CF64F015
:10008000EACF65F0D9CF66F0DACF67F0F6CF68F047
:10009000F7CF69F0F8CF6AF0F5CF6BF0F2A401D09A
:1000A00001D007D092EC0DF0F294FE0ED76E0C0E3C
:1000B000D66E9EAA01D001D003D09AEC0CF09E9A85
:1000C0009EAC01D001D003D034EC0DF09E9C6BC0EF
:1000D000F5FF6AC0F8FF69C0F7FF68C0F6FF67C0A8
:1000E000DAFF66C0D9FF65C0EAFF64C0E9FF11000E
:1000F000FEEF0AF020EE28F07451D9267551DA226D
:1001000010EE63F07451E1267551E222E7506C6FF6
:1001100010EE28F07451E1267551E222E750FEEC12
:100120000CF0DF6E20EE28F07451D9267551DA22DA
:10013000DF5052DA76C0DEFF77C0DDFF20EE28F018
:100140007451D9267551DA22DF2A20EE58F0745105
:10015000D9267551DA2210EE29F0EDD910EE58F0BB
:10016000EAD976C0DEFF77C0DDFF886B896B8A6BCA
:1001700003D08A5131DA3FDAEDD98A5DFAE388C0DB
:100180006CF089C06DF0E6D96E6F6F6B19EC0AF0F8
:1001900020EE56F0FDD920EE58F07451D926755155
:1001A000DA22DECF6CF0DDCF6DF020EE58F0745126
:1001B000D9267551DA22DECF6EF0DDCF6FF0E8EC94
:1001C0000CF06CC078F06DC079F020EE56F07451F0
:1001D000D9267551DA22DECF6CF0DDCF6DF020EE3E
:1001E0005AF07451D9267551DA22DECF6EF0DDCF88
:1001F0006FF0E8EC0CF06C51785D7A6F6D517959C5
:100200007B6F20EE5CF07451D9267551DA227AC0EA
:10021000DEFF7BC0DDFF76D979BF0BD020EE5CF02E
:100220007451D9267551DA22DECF7EF0DDCF7FF012
:100230000BD020EE5CF07451D9265BD9784B792B2A
:1002400078C07EF079C07FF020EE5FF07451D9263F
:100250007551DA22DECF78F0DDCF79F07951800A5E
:100260007A6F7E51785D7F51800A7A5916E2A3D960
:1002700078B113D020EE5EF07451D9267551DA2290
:10028000DF50786F78B509D020EE5EF07451D92632
:100290007551DA22010EDF12010C8DD978A19BD0A5
:1002A00020EE5CF07451D9267551DA22DECF78F059
:1002B000DDCF79F079BF0BD020EE5CF07451D926F8
:1002C0007551DA22DECF80F0DDCF81F00BD020EE49
:1002D0005CF07451D9260DD9784B792B78C080F019
:1002E00079C081F08151800A7D0FE80ED8B4805D1D
:1002F00072E220EE54F07451DED87C6F82D97DBF5B
:1003000009D020EE54F07451D6D8826F79517B59C0
:10031000836F0BD020EE54F07451CDD865D97C4B4F
:100320007D2B7CC082F07DC083F01CD98351800A74
:100330007A6F7851825D7951800A7A594CE2EDD812
:10034000CED87C6F5ED97DBF13D020EE54F07451AF
:10035000D9267551DA22DECF78F0DDCF79F020EEA4
:100360005AF07451BCD8846F79517B59856F09D08C
:10037000D4D8B5D839D97C4B7D2B7CC084F07DC0D6
:1003800085F0F0D88551800A7A6F7851845D795173
:10039000800A7A5920E28A6B13D020EE58F074510B
:1003A000D9267551DA228A51020DF3507425E16E77
:1003B000F4507521E26EDECFE6FFDDCFE5FF8A2B3C
:1003C000C9D88A5DEAE320EE5EF07451D9267551F2
:1003D000DA22FE0EDF1696D879BF0BD020EE5CF045
:1003E0007451D9267551DA22DECF86F0DDCF87F041
:1003F0000BD020EE5CF07451D9267BD8784B792B4A
:1004000078C086F079C087F08751800A800F0A0E85
:10041000D8B4865D4FE220EE53F07451D926755161
:10042000DA22090EDF6208D020EE5EF07451D92680
:100430007551DA22FB0EDF1620EE58F074519DD86C
:10044000B0D8E16E000E7921E26EDECFE6FFDDCF9F
:10045000E5FF20EE53F0745190D8786F78296C6FD7
:100460006D6B000E6D2310EE64F07451E126755132
:10047000E222E7506E6F6F6BCAEC0AF06C51DF6ED0
:10048000886B896B8A6B07D08A518BD8D96E000E26
:100490007921DA6EB0D898D88A5DF6E388C06CF01E
:1004A00089C06DF091D86E6F6F6B19EC0AF020EE79
:1004B00054F06ED8000CD9267551DA22DECF78F0D0
:1004C000DDCF79F020EE58F07451D9267551DA223B
:1004D000DECF7AF0DDCF7BF078517A5D1200D9263D
:1004E0007551DA22DECF7AF0DDCF7BF078517A5D7C
:1004F00012007551DA22DECF78F0DDCF79F0781F67
:10050000791F120020EE5CF07451D9267551DA2261
:10051000DECF78F0DDCF79F0120020EE54F0745188
:10052000D9267551DA22DECF78F0DDCF79F020EED2
:100530005AF0745112007451E1267551E222DECF57
:10054000E6FFDDCFE5FF20EE5AF07451D926755154
:10055000DA22120020EE63F07451D9267551DA22A6
:10056000DF50120020EE61F07451D9267551DA2265
:10057000DECF78F0DDCF79F01200D9267551DA227E
:1005800010EE53F07451E1267551E222E75012004B
:100590007451D9267551DA226CC0DEFF6DC0DDFFC3
:1005A0001200020DF3507425786FF4507521796FA5
:1005B0002B0E7825120020EE5EF07451D92675516D
:1005C000DA22DF50786F120020EE64F07451D926E1
:1005D0007551DA22DF501200020DF3507425D96EE6
:1005E000F4507521DA6E12007C6F79517B597D6F62
:1005F0007C1F7D1F1200DE508827DD5089238A2B47
:10060000120079517B597D6F1200E8CF78F06E515E
:100610006C5D6F516D59800B07E16E516C5D746FAD
:100620006F516D59756F10D06CC070F06DC071F066
:100630006E51705F6F51715B701F711F704B712B2A
:1006400070C074F071C075F07851D96EDA6A74C0F8
:10065000DEFF75C0DDFF7851D96EDA6A7851E16E40
:10066000E26A130EA8D802E1DF50E75C03E3766B81
:10067000776B17D07851D96EDA6A130ED926DA6AF9
:10068000DECF70F0DDCF71F07851D96EDA6ADECF4F
:1006900072F0DDCF73F07051725D766F71517359E6
:1006A000776FB2D876C0DEFF77C0DDFF8FD8DF501E
:1006B000706F70A559D07851D96EDA6A080ED926B4
:1006C000DA6ADE2A000EDD229FD8DECF70F0DDCFA1
:1006D00071F083D87051DE267151DD227ED87851B9
:1006E000E16EE26A110E67D802E1DF50E75C2CE2AE
:1006F0006DD8DF50706F70B127D07851D96EDA6A3B
:100700000E0ED926DA6AFB0EDF1660D8010EDF1254
:100710007851D96E71D80C0EE126E26ADECFE6FF81
:10072000DDCFE5FF5AD87851E16EE26A0A0EE12684
:10073000E26ADECFE6FFDDCFE5FF785155D84DD830
:10074000000EDE6EDD6E010C7851D96E55D80F0E9D
:1007500032D802E1DF50E75C2DE238D8FB0EDF161D
:1007600035D8FE0EDF16000C4FD87851E16EE26AE4
:10077000130E21D802E1DF50E75C1CE227D8040EFB
:10078000DF1224D8FE0EDF167851D96EDA6A0C0E0D
:10079000D926DA6ADE6ADD6A7851D96EDA6A0A0E1B
:1007A000D926DA6ADE6ADD6A78511ED816D8000EBC
:1007B000DE6EDD6E000CE126E26AE652DE52E550A6
:1007C000800A706FDD50800A705D12007851D96E1A
:1007D000DA6A0E0ED926DA6A12007851D96EDA6A10
:1007E000060ED926DA6A1200D96EDA6A080ED92600
:1007F000DA6ADE6ADD6A1200DA6A080ED926DA6A77
:100800007851E16EE26A12007851D96EDA6A040E0C
:10081000D926DA6A1200906B8C518B1101E1D1D08C
:100820008BC091F08CC092F0956B966B976B986B28
:10083000996BD4D8240E6F6FBAEC08F000016CC02D
:1008400093F06DC094F0CAD83D0E6F6FBAEC08F00B
:1008500000016CC09AF06DC09BF09BBF1BD09B51F8
:10086000800A8D6F93519A5D9451800A8D5912E2DE
:100870008BC08DF08CC08EF09A518D279B518E23AA
:100880008D2B000E8E238D51956F8E51966F200EFD
:10089000976F04D093C09AF094C09BF0030E0001B0
:1008A0006D6F000E6C6F91516E6F92516F6F200ED5
:1008B000706F9AC071F09BC072F093EC09F0000E5B
:1008C00000019A25D96E030E9B21DA6EDF6A66D08D
:1008D00098C06CF099C06DF06F6B160E6E6FE8ECFF
:1008E0000CF0700E6C25726F7D0E6D21736F5BECDA
:1008F0000BF09B51731902E19A5172194DE198C0A6
:100900006CF099C06DF06F6B160E6E6FE8EC0CF02A
:10091000700E6C25726F7D0E6D21736F91C074F037
:1009200092C075F09AC076F09BC077F0C4C078F0A2
:10093000BEEC07F08F6F8F512FE098C06CF099C01C
:100940006DF06F6B160E6E6FE8EC0CF0140E3BD86A
:10095000F550C06FC16BC0BFC10798C06CF099C0A3
:100960006DF06F6B160E6E6FE8EC0CF0150E2BD859
:10097000F5CFC2F09551961197110AE095C085F018
:1009800096C086F097C087F0C2C088F06FEC08F080
:10099000010E0001906F15D0984B992B98C06CF008
:1009A00099C06DF06F6B160E6E6FE8EC0CF0700E68
:1009B0006C25F66E7D0E6D21F76E0800F5501D0A50
:1009C00087E1905112006C27000E6D23700E6C248D
:1009D000F66E7D0E6D20F76E080012008B516C6F65
:1009E0008C516D6F200E6E6F200CA26BA36B9CC0A0
:1009F00072F09DC073F05BEC0BF072C0A0F073C09E
:100A0000A1F09EC0C4F0050E00016D6F000E6C6F6A
:100A10009CC06EF09DC06FF0A0C070F0A1C071F0DE
:100A2000240E726FD7EC09F06CC0A6F06DC0A7F071
:100A3000BC69BD69C069C16903017F6B006B0001BE
:100A4000A751800A800F010ED8B4A65D66E3A46B9F
:100A5000A56BFF0EA625A26FFF0EA721A36F55D091
:100A6000000E0001A425A86F050EA521A96FA551B0
:100A7000A41110E1A8C080F0A9C081F0F4EC06F048
:100A8000000903E1A26BA36B48D05BD8010E5DECBB
:100A90000CF028D0A8C08BF0A9C08CF00BEC04F0AF
:100AA0009F6F9F0511E1BCC080F0C0C081F07F0E38
:100AB0000001826F030E836F200E846FC2C085F029
:100AC000000E5DEC0CF00ED0BCC080F08169000E11
:100AD0000001826F030E836F200E846F000E856B02
:100AE0005DEC0CF00001A8516C6FA9516D6F200EE8
:100AF0006E6F240E6F6FBAEC08F000016C2B000EC5
:100B00006D236C50A4276D50A523A607D8A0A70776
:100B10000001A629D8B4A729A3E1A351800A800F18
:100B2000010ED8B4A25D04E30CD8020E5DEF0CF008
:100B300080698169826B836B846B856B030E5DEFCB
:100B40000CF0BCC080F08169826B836B846B856B19
:100B5000120020EE02F094D86CC0D9FF6DC0DAFF0D
:100B6000DECF72F0DDCF73F07051725D796F71512D
:100B700073597A6F010E786F8CD8EA6403D0EA6EED
:100B8000EF5003D0F76E0800F5500A0A0EE000019E
:100B900080D8EA6403D0EA6EEF5003D0F76E080005
:100BA000F5500D0A02E00001786B00017851C51381
:100BB0007AAF0AD020EE04F06C51D9266D51DA22BA
:100BC000DE507927DD507A2320EE04F059D8FF0E4D
:100BD0007025726FFF0E7121736F7A51800A746FE6
:100BE0007251795D7351800A7459D8B012006CC08B
:100BF000D9FF6DC0DAFFDECF7BF0DDCF7CF06CC0BB
:100C000070F06DC071F07B5170277C517123060E1E
:100C10007027000E712370C076F071C077F06EC03F
:100C2000F6FF6FC0F7FFF86A76C0D9FF77C0DAFF2A
:100C3000050EF76403D00800F55005D0F6CFE9FFA4
:100C4000F7CFEAFFEF50DF6E00017B4B7C2B20EEED
:100C500004F06C51D9266D51DA22DE527C51DD1838
:100C60007BC0E8FFD8B4DF1802E17B6B7C6B6CC003
:100C7000D9FF6DC0DAFF7BC0DEFF7CC0DDFF120054
:100C80006C51D9266D51DA22DECF70F0DDCF71F0D4
:100C900012006E51F66EE96E050EEA6E6F5112008B
:100CA00020EE02F091D81AC0D9FF1BC0DAFFDECFC8
:100CB00020F0DDCF21F01E50205C276E1F50215800
:100CC000286E010E266E89D8EA6403D0EA6EEF50D2
:100CD00003D0F76E0800F5500A0A0CE07ED8EA64EB
:100CE00003D0EA6EEF5003D0F76E0800F5500D0AFE
:100CF000D8A4266A26500001C51328AE0AD020EEDB
:100D000004F01A50D9261B50DA22DE502726DD5077
:100D1000282220EE04F058D8FF0E1E24206EFF0E6D
:100D20001F20216E2850800A226E2050275C2150FF
:100D3000800A2258D8B012001AC0D9FF1BC0DAFFAF
:100D4000DECF29F0DDCF2AF01AC01EF01BC01FF045
:100D500029501E262A501F22060E1E26000E1F2274
:100D60001EC024F01FC025F01CC0F6FF1DC0F7FFF9
:100D7000F86A24C0D9FF25C0DAFF050EF76403D056
:100D80000800F55005D0F6CFE9FFF7CFEAFFEF50A6
:100D9000DF6E294A2A2A20EE04F01A50D9261B5069
:100DA000DA22DE522A50DD1829C0E8FFD8B4DF1855
:100DB00002E1296A2A6A1AC0D9FF1BC0DAFF29C0DA
:100DC000DEFF2AC0DDFF12001A50D9261B50DA229E
:100DD000DECF1EF0DDCF1FF012001C50F66EE96E64
:100DE000050EEA6E1D501200876B886B896B80516F
:100DF0006C6F81516D6F200E6E6F240E6F6FBAECA9
:100E000008F000016CC082F06DC083F040D088C053
:100E10006CF089C06DF06F6B150E6E6FE8EC0CF026
:100E2000800E6C25846F7F0E6D21856F80C072F0FF
:100E300081C073F084C074F085C075F082C076F014
:100E400083C077F0C4C078F0BEEC07F0866F86519F
:100E50001CE088C06CF089C06DF06F6B150E6E6F72
:100E6000E8EC0CF0140E6C27000E6D23800E6C2441
:100E7000F66E7F0E6D20F76E0800F550BC6FBD6BEF
:100E8000BCBFBD07010E876F15D0884B892B88C06A
:100E90006CF089C06DF06F6B150E6E6FE8EC0CF0A6
:100EA000800E6C25F66E7F0E6D21F76E0800F550F2
:100EB0001D0AADE18751120007D0030E00016D6FCE
:100EC000E80E6C6F6EEC0DF0D6EC0BF00101D06FFC
:100ED000D005F3E1F28EF28C0101D169D269D36BB6
:100EE000D351330FD96EDA6A010EDF6211D0D351BC
:100EF0002B0FD96EDA6ADF5003E1D3C1D1F105D0EF
:100F0000D3512B0FD96EDA6ADF06D2BFD3C1D2F12B
:100F1000D32B070ED365E4D7D1BF11D0D15127D839
:100F200001D80AD00500FA6EDE50FD6EDE50FE6E6E
:100F3000F850FF6EFA5012000101D15112D0D2BF09
:100F400014D0D25114D801D80AD00500FA6EDE5060
:100F5000FD6EDE50FE6EF850FF6EFA501200010179
:100F6000D251330FD96EDA6ADF6A0400B5D7020DA9
:100F7000F3500001AC0FD96EDA6A12007B6B73512B
:100F800072114CE07551741149E07C6B7D6B3ED061
:100F900072C079F073C07AF043D8EA6403D0EA6E85
:100FA000EF5003D0F76E0800F55000017E6F74C05B
:100FB00079F075C07AF034D8EA6403D0EA6EEF5065
:100FC00003D0F76E0800F55000017F6F78670ED0F0
:100FD0007E5161EC0DF0000902E0200E7E277F516A
:100FE00061EC0DF0000902E0200E7F277E517F1991
:100FF00006E07E513F0A03E07F513F0A03E1010E04
:101000007B6F02D07B6B0AD07C4B7D2B7607D8A000
:10101000770700017629D8B47729BAE17B5112000D
:101020007C5179277D517A237951F66EE96E050E50
:10103000EA6E7A511200746B20EE02F06C51D926E0
:101040006D51DA22DECF75F0DDCF76F06CC0D9FFBE
:101050006DC0DAFFDECF72F0DDCF73F07351761919
:1010600002E17251751939E06CC070F06DC071F019
:101070007551702776517123060E7025D96E000EBA
:101080007121DA6E6EC0E1FF6FC0E2FFDFCFE7FFD4
:10109000754B762B20EE02F06C51D9266D51DA2279
:1010A00075C0DEFF76C0DDFF20EE04F06C51D9265E
:1010B0006D51DA22DE527651DD1875C0E8FFD8B4E2
:1010C000DF1809E120EE02F06C51D9266D51DA22C9
:1010D000000EDE6EDD6E010E746F745112008551CC
:1010E00086118711D8B4120085C06CF086C06DF0EF
:1010F00087C06EF0240E6F6FBAEC08F06CC089F0F8
:101100006DC08AF0030E00016D6F7F0E6C6F85C09D
:101110006EF086C06FF087C070F089C071F08AC031
:1011200072F093EC09F07F0E00018925D96E030E51
:101130008A21DA6EDF6A88C0C2F00FD0030E000188
:10114000796F7F0E786F030E7B6F7F0E7A6F04EFDF
:1011500009F003017F6B806B1200C251010AD8B401
:101160001200030AEBE0010AD8B41200060AD8B450
:101170001200EFD7736974696C516D116E112DE017
:10118000756B766B16D000012DD8F8BA03D0080025
:10119000F55005D0F6CFE9FFF7CFEAFFEF50000199
:1011A0006F1905E175C073F076C074F016D0754BF9
:1011B000762B7651800A7D0FE80ED8B4755D0DE26E
:1011C00011D8F8BA03D00800F55005D0F6CFE9FFE2
:1011D000F7CFEAFFEF500009D6E173C06CF074C09E
:1011E0006DF0120075516C25706F76516D21716F25
:1011F000000E76BFFF0E6E21726F70C0F6FF71C0D9
:10120000F7FF72C0F8FF1200836B846B816B826BF7
:101210007AC072F07BC073F05BEC0BF072C07FF0B1
:1012200073C080F02AD081517825D96E82517921FE
:10123000DA6E7AC07CF07BC07DF083517C278451CC
:101240007D237C29E16E000E7D21E26EE75090EC5B
:101250000AF07E6F83517A25E16E84517B21E26E24
:10126000E75090EC0AF0100DF3507E25DF6E020E71
:101270008327000E8423814B822BFF0E7F257C6FFA
:10128000FF0E80217D6F8451800A7E6F7C51835DCB
:101290007D51800A7E59D8B01200C5D7020E0001D8
:1012A000786F000E776F020E7A6F6B0E796FAA0E51
:1012B0007B6F1CEC0CF0000909E0020E00019D6F31
:1012C0006B0E9C6F000E9E6BF5EC04F0010E00019E
:1012D0006D6F000E6C6F88EC0BF06CC0AAF06DC0E7
:1012E000ABF0AB51800A800F010ED8B4AA5DD8A034
:1012F0001200010E0001786F000E776F020E7A6FF8
:101300006B0E796FAAC07BF0ABC07CF07CEC0CF06C
:10131000020E00016E6F6B0E6D6FAAC06FF0ABC056
:1013200070F03EEF0BF0736974696E516F117011BC
:10133000D8B412001ED0734B742B6EC0F6FF6FC072
:10134000F7FF70C0F8FFF8BA03D00800F55005D0D9
:10135000F6CFE9FFF7CFEAFFEF506CC0D9FF6DC0C1
:10136000DAFFDF6E00016E2B000E6F2370236C4BD3
:101370006D2B6EC0F6FF6FC0F7FF70C0F8FFF8BAB4
:1013800003D00800F55005D0F6CFE9FFF7CFEAFF0C
:10139000EF50000908E000017107D8A07207712919
:1013A000D8B47229C8E10001734B742B1200736B1F
:1013B000746B756B766B200E776F73516E25D96EDB
:1013C00074516F21DA6EDF50786F7851200A03E094
:1013D000715170110EE17751200A13E06CC0D9FFF2
:1013E0006DC0DAFF72C0DFFF6C4B6D2B754B762B37
:1013F00008D06CC0D9FF6DC0DAFF78C0DFFF6C4B3E
:101400006D2B7151701108E07007D8A07107734BF4
:10141000742B78C077F0D1D76CC0D9FF6DC0DAFFDC
:1014200072C0DFFF6C4B6D2B75C06CF076C06DF039
:101430001200716B6FAF06D06E6D6F1FD8B06F2B3F
:10144000010E716F6DAF06D06C6D6D1FD8B06D2B36
:10145000010E711B726B736B6F516E111BE0010EED
:10146000706F04D0D8906E376F37702B6FAFFAD78C
:10147000D890723773376E516C5D6F516D5905E3BB
:101480006E516C5F6F516D5B7281D8906F336E33AC
:10149000702FEED7715104E0726D731FD8B0732BAB
:1014A00072C06CF073C06DF01200010E0001756F18
:1014B0006B0E746FBEC076F0BFC077F07AEC00F0B0
:1014C000C86FBFC18BF00001C0C18CF08D6B8CBFA9
:1014D0008D07BEC06CF0BFC06DF08BC06EF08CC0CD
:1014E0006FF0C90E05EC03F0C76F000ED7B5010E03
:1014F000C66F08D0C36B0DD0C7C0C3F00AD0C8C038
:10150000C3F007D0E551F6E0010AF6E0030AF7E080
:10151000F1D7C351D8A4D880C651D8A4D88212001C
:10152000E8CF6CF009D06C51D00F12006C51A90FAC
:1015300012006C51C90F12006C51300AF4E0010A1C
:10154000F2E0030AF0E0010AEEE0070AECE0010A2B
:10155000EAE0030AE8E0010AE6E00F0AE4E0010A33
:10156000E2E0780AE6E0030AE4E0010AE2E0070AC2
:10157000E0E0010ADEE0030ADCE0270AD7E0030A24
:10158000D5E0010AD3E0070AD1E0010ACFE0030A5F
:10159000CDE0000C716B6DAF06D06C6D6D1FD8B0D7
:1015A0006D2B010E716F6FAF04D06E6D6F1FD8B0D1
:1015B0006F2B6F516E1117E0010E706F04D0D89031
:1015C0006E376F37702B6FAFFAD76E516C5D6F51FE
:1015D0006D5904E36E516C5F6F516D5BD8906F3342
:1015E0006E33702FF2D7715104E06C6D6D1FD8B05F
:1015F0006D2B6CC06CF06DC06DF0120005EE00F04C
:101600007F0EEE6AE806FDE104EE00F0BB0EEE6A26
:10161000E806FDE103EE00F0FE0EEE6AE806FDE1ED
:1016200002EE00F0CF0EEE6AE806FDE101EE00F0FA
:10163000D00EEE6AE806FDE100EEACF0460EEE6A72
:10164000E806FDE100EE2BF0180EEE6AE806FDE17B
:10165000000EF86E00015CEF07F010D000016D5134
:1016600024D8EA6403D0EA6EEF5003D0F76E080086
:10167000F55077EC0DF000016D4B6E2B6F07D8A085
:10168000700700016F29D8B47029D8B412006D51C9
:101690000CD8EA6403D0EA6EEF5003D0F76E08006E
:1016A000F5500009D8B41200D9D7F66EE96E050ED0
:1016B000EA6E6E511200766B776B7351721123E0F4
:1016C00072C074F073C075F076517427775175232A
:1016D0007451F66EE96E050EEA6E7551EA6403D038
:1016E000EA6EEF5003D0F76E0800F55053EC0DF0A2
:1016F000000909E0764B772B7751800A7D0FE80EC1
:10170000D8B4765DDDE376C072F077C073F0120076
:1017100020EE02F06C51D9266D51DA22DECF6EF048
:10172000DDCF6FF06CC0D9FF6DC0DAFFDECF70F097
:10173000DDCF71F06E51705D726F6F517159736FC3
:1017400073AF0AD020EE04F06C51D9266D51DA2225
:10175000DE507227DD50732372C06CF073C06DF0E1
:1017600012000DD0010E00016D6F000E6C6F7DC078
:101770006EF07EC06FF0A9EC05F07D4B7E2B000172
:101780007E517D11D8B412007D51F66EE96E050EC2
:10179000EA6E7E51EA6403D0EA6EEF5003D0F76E32
:1017A0000800F5500009D8B41200DCD70001736BB3
:1017B00089EC0DF0C0EC0DF080EC0DF024EC0DF098
:1017C000120EB76F9C0EB66F140EB16FAA0EB06FEB
:1017D0007F0E6E6FE90E6D6F706B640E6F6F2DEC88
:1017E0000BF0B7EC0CF0000902E0010E736F7351BF
:1017F0001200E8CF1DF0C230E8320F0B1D1810E0C8
:101800001DC01CF01C461C46C2501C18C30B1C18E3
:10181000C26E00F000F000F000F000F000F000F008
:10182000C28202D000F000F0C2B2FCD79E9CC3CFAF
:101830001AF0C4CF1BF01200C5511EE07A51791185
:101840001BE07B510BE1000C79C0D9FF7AC0DAFFB5
:101850007CC0DFFF794B7A2B020E7B2777C06CF0C0
:1018600078C06DF0000E6F6F7C0E6E6F1BEC08F091
:101870000009EAE1C56B010C000C706B6D516C1135
:101880001AE020EE02F06C51D9266D51DA22DE6AA0
:10189000DD6A6CC0D9FF6DC0DAFFDE6ADD6A20EE5A
:1018A00004F06C51D9266D51DA226EC0DEFF6FC094
:1018B000DDFF010E706F70511200E8CF86F0866771
:1018C0000DD006D0815113EF0DF08151ABEF0DF02B
:1018D0008051F8E0010AD8A41200F7D78651020A15
:1018E000D8B412008651030AD8A412007F0E7E6F6E
:1018F000F50E7D6FBFEF0BF07E6B7F6B11D077C065
:101900006CF078C06DF07E5179256E6F7F517A2131
:101910006F6F1BEC08F00009D8B412007E4B7F2BD0
:101920007B07D8A07C0700017B29D8B47C29D8B4D8
:101930001200E5D7BCEC0DF00009D8B4120000018C
:10194000630ED0EC0CF0626F6205D8A41200020E98
:101950001B6E000E1A6E0001000E1D6E630E1C6ED3
:1019600050EC06F0010E386E0A0E306E0A0C010EB5
:1019700000016D6F000E6C6F6F6B640E6E6F3DEC4F
:101980000CF0716F020E00016D6F000E6C6F6F6BCB
:10199000640E6E6F3DEC0CF07111726F725112009B
:1019A000E8CF1BF01C6AA3EC0DF0000903E044EC47
:1019B0000DF00CD0BCEC0DF0000908E01B50D96E06
:1019C000DA6AAECFDFFF9E9A010E1C6E1C50120029
:1019D000706B716B6CA104D06E5170276F517123C5
:1019E000D8906E376F37D8906D336C336D516C1162
:1019F000F1E170C06CF071C06DF01200E8CF6DF0D5
:101A0000080E6E6F6F6BD89000016D356F356F6F7C
:101A1000D8906D376C516F5D02E36C516F5F6E2F24
:101A2000F2D76F511200B2EC0DF001C07DF002C090
:101A30007EF00001B1EC0BF07F0E00017E6FEF0E27
:101A40007D6FB1EC0BF0000C260EAC6E900EAB6E01
:101A5000B86AB86A6C6B4B0E6D6F000E6E6BC3ECA0
:101A60000DF09D8A9E8A1200000EF9EC0BF01A50C0
:101A70000001626F040E1B6E500E1A6E000E1D6E7A
:101A8000620E1C6E50EF06F008D0AB98AE50AE5010
:101A9000AB88BCEC0DF00009FCE1A3EC0DF00009F3
:101AA000D8B41200F2D7E8CF6DF000016C6B1F0EB6
:101AB0006D6505D07F0E6D6102D0010E6C6F6C51AB
:101AC0001200E8CF6DF06C6B400E6D6505D05B0EBB
:101AD0006D6102D0010E6C6F6C5112006CC0F2F09F
:101AE0006DC0F3F0F351F211D8B41200FBD7E8CF78
:101AF0006CF0B8EC0DF00009FCE06CC0ADFF12001A
:101B0000010EC26EC16A100EC06E630E7E6E7F6AD9
:101B10001200926893687F6AC10E946E956A8B6A10
:101B20008C6A12000001F351F211D8B41200F207CE
:101B3000D8A0F3071200E8CF6CF08F0ED3166C39E3
:101B4000F00BD3121200010E1A6EABA2ABB401D08F
:101B50001A6A1A5012007F0E7E6FEF0E7D6FB1EC85
:101B60000BF0000C0301030E026E000E016E12005A
:101B7000000E9EB8010E1200000E9EBA010E120059
:101B8000050E9BEF0DF00C0EAF6E0C0CFF00FF006E
:107D70007369676E616C0000000000000000000085
:107D8000000000000003696D7000000000000000AA
:107D90000000000000000000000001037077720086
:107DA00000000000000000000000000000000000D3
:107DB0000203706F7400000000000000000000006B
:107DC0000000000000000303766572000000000060
:107DD00000000000000000000000000004037374B5
:107DE00061747573000000000000000000000000D6
:107DF0000000050361636300000000000000000054
:107E00000000000000000000070361647200000031
:107E10000000000000000000000000000000080357
:107E20006572726F72000000000000000000000028
:107E300000000000060364656661756C74730000E1
:107E40000000000000000000000009036D6F6400E6
:107E50000000000000000000000000000000000022
:107E60000A0170726F66696C650000000000000016
:107E70000000000000000B037077727472696700E5
:107E80000000000000000000000000000C0361631F
:107E900063747269670000000000000000000000C9
:107EA00000000D03747269676C65760000000000C5
:107EB00000000000000000000E0374726967737513
:107EC0006D000000000000000000000000000F0333
:107ED00074726967636E74000000000000000000A7
:107EE000000000001003776176746F6C650000007D
:107EF00000000000000000000000110377617674AC
:107F0000726967000000000000000000000000002F
:107F100012037761766C636E74000000000000004D
:107F2000000000000000130377617672636E740036
:107F3000000000000000000000000000140369645D
:107F40006964000000000000000000000000000064
:107F50000000150370737770737700000000000055
:107F6000000000000000000016031D1D00000000BE
:107F70000000000000000000000000000000FF0002
:107F800073657400000000000000000000000000A5
:107F900000000000006765740000000000000000A1
:107FA00000000000000000000001696E697400001C
:107FB000000000000000000000000000000002734C
:107FC000656C6674657374000000000000000000BA
:107FD000000000031D1D0000000000000000000064
:107FE00000000000000000000068656C6C6F003A43
:107FF00065727220006572720A003A6F6B20000091
:020000040020DA
:08000000FFFFFFFFFFFFFFFF00
:020000040030CA
:0E000000FF080815FF8D81FF0FC00FE00F40B5
:00000001FF
