:100000006AEF00F0FF00FF00E9CF2AF0EACF2BF003
:10001000D9CF2CF0DACF2DF0F6CF2EF0F7CF2FF08E
:10002000F8CF30F0F5CF31F0F2A401D001D007D0F5
:100030006EEC09F0F294FE0ED76E0C0ED66E9EAAF0
:1000400001D001D003D09EEC08F09E9A31C0F5FF9C
:1000500030C0F8FF2FC0F7FF2EC0F6FF2DC0DAFF2B
:100060002CC0D9FF2BC0EAFF2AC0E9FF1100E9CF5D
:100070007EF0EACF7FF0D9CF80F0DACF81F0F6CFF3
:1000800082F0F7CF83F0F8CF84F0F5CF85F0F2A4BB
:1000900001D001D007D06EEC09F0F294FE0ED76EBD
:1000A0000C0ED66E9EAA01D001D003D09EEC08F0B3
:1000B0009E9A85C0F5FF84C0F8FF83C0F7FF82C019
:1000C000F6FF81C0DAFF80C0D9FF7FC0EAFF7EC0A3
:1000D000E9FF11006FEF07F0E16BDD51DC1101E189
:1000E00001D1DCC1E2F1DDC1E3F1E66BE76BE86B66
:1000F000E96BEA6BDC510001866F0101DD51000103
:10010000876F200E886F240E896F6AEC04F086C01A
:10011000E4F187C0E5F10101DC510001866F0101C6
:10012000DD510001876F200E886F3D0E896F6AECEC
:1001300004F086C0EBF187C0ECF10101ECBF1BD0ED
:10014000EC51800ADE6FE451EB5DE551800ADE5927
:1001500012E2DCC1DEF1DDC1DFF1EB51DE27EC5153
:10016000DF23DE2B000EDF23DE51E66FDF51E76F6A
:10017000200EE86F04D0E4C1EBF1E5C1ECF1030E11
:100180000001876F500E866F0101E2510001886FF8
:100190000101E3510001896F200E8A6FEBC18BF0E2
:1001A000ECC18CF042EC06F0500E0101EB25D96E4B
:1001B000030EEC21DA6EDF6A80D0E9C186F0EAC175
:1001C00087F0896B160E886FE9EC08F0660E8625BD
:1001D0008C6F7D0E87218D6F9EEC07F00101EC5135
:1001E00000018D1904E10101EB5100018C1962E15C
:1001F000E9C186F0EAC187F0896B160E886FE9ECD9
:1002000008F0660E86258C6F7D0E87218D6FE2C10A
:100210008EF0E3C18FF0EBC190F0ECC191F0B7C06C
:1002200092F005EC04F00101E06FE05143E0E9C118
:1002300086F0EAC187F00001896B160E886FE9EC41
:1002400008F0140E8627000E8723660E8624F66EAD
:100250007D0E8720F76E0800F550B26FB36BB2BF0A
:10026000B307E9C186F0EAC187F0896B160E886F83
:10027000E9EC08F0150E8627000E8723660E86240B
:10028000F66E7D0E8720F76E0800F5CFB5F0010100
:10029000E651E711E8110AE0E6C1D6F1E7C1D7F16E
:1002A000E8C1D8F1B5C0D9F163EC05F0010E010148
:1002B000E16F18D00101E94BEA2BE9C186F0EAC1F0
:1002C00087F00001896B160E886FE9EC08F0660E66
:1002D0008625F66E7D0E8721F76E0800F5501D0A03
:1002E00001E06BD70101E1511200F36BF46BEDC13A
:1002F0008CF0EEC18DF000019EEC07F08CC0F1F1A6
:100300008DC0F2F1EFC1B7F0040E0001876F000E4F
:10031000866FEDC188F0EEC189F0F1C18AF0F2C1BB
:100320008BF0240E8C6F86EC06F086C0F7F187C048
:10033000F8F1B069B169B269B3690201006B0301F8
:10034000506B0101F851800A800F010ED8B4F75D9F
:1003500072E3F56BF66BFF0EF725F36FFF0EF821D6
:10036000F46F61D0000E0101F525F96F040EF6213E
:10037000FA6FF651F51118E1F9C19AF0FAC19BF044
:10038000000194EC03F0000903E1F36BF46B53D02C
:10039000B0C09AF000019B699C6B9D6B9E6B9F6B3C
:1003A000010E3EEC08F028D0F9C1DCF1FAC1DDF114
:1003B0006CEC00F0F06FF00511E1B0C09AF0B2C043
:1003C0009BF0000E00019C6F020E9D6F200E9E6F31
:1003D000B5C09FF0000E3EEC08F00ED0B0C09AF011
:1003E00000019B69500E9C6F030E9D6F200E9E6F47
:1003F000000E9F6B3EEC08F00101F9510001866F81
:100400000101FA510001876F200E886F240E896F59
:100410006AEC04F00001862B000E87238650010150
:10042000F5278750F623F707D8A0F8070101F72929
:10043000D8B4F82997E1F451800A800F010ED8B49E
:10044000F35D0BE3B0C09AF000019B699C6B9D6B60
:100450009E6B9F6B020E3EEF08F000019A699B694C
:100460009C6B9D6B9E6B9F6B030E3EEF08F020EE26
:1004700002F08651D9268751DA22DECF8AF0DDCF0D
:100480008BF086C0D9FF87C0DAFFDECF8CF0DDCFDE
:100490008DF08A518C5D936F8B518D59946F010E45
:1004A000926F8851F66EE96E050EEA6E8951EA6424
:1004B00003D0EA6EEF5003D0F76E0800F5500A0A39
:1004C00013E000018851F66EE96E050EEA6E89515F
:1004D000EA6403D0EA6EEF5003D0F76E0800F550DF
:1004E0000D0A02E00001926B00019251B81394AF23
:1004F0000AD020EE04F08651D9268751DA22DE5048
:100500009327DD50942320EE04F08651D92687519D
:10051000DA22DECF8AF0DDCF8BF0FF0E8A258C6FDA
:10052000FF0E8B218D6F9451800A8E6F8C51935DDD
:100530008D51800A8E59D8B0120086C0D9FF87C06D
:10054000DAFFDECF95F0DDCF96F086C08AF087C067
:100550008BF095518A2796518B23060E8A27000E21
:100560008B238AC090F08BC091F088C0F6FF89C0C1
:10057000F7FFF86A90C0D9FF91C0DAFF050EF76463
:1005800003D00800F55005D0F6CFE9FFF7CFEAFF1A
:10059000EF50DF6E0001954B962B20EE04F0865154
:1005A000D9268751DA22DE529651DD1895C0E8FF30
:1005B000D8B4DF1802E1956B966B86C0D9FF87C06F
:1005C000DAFF95C0DEFF96C0DDFF120020EE02F0DC
:1005D0003250D9263350DA22DECF6FF0DDCF70F003
:1005E00032C0D9FF33C0DAFFDECF71F0DDCF72F059
:1005F0006F51715D786F70517259796F010E776F1D
:100600003450F66EE96E050EEA6E3550EA6403D09A
:10061000EA6EEF5003D0F76E0800F5500A0A12E0B8
:100620003450F66EE96E050EEA6E3550EA6403D07A
:10063000EA6EEF5003D0F76E0800F5500D0A02E0A5
:100640000001776B00017751B81379AF0AD020EE23
:1006500004F03250D9263350DA22DE507827DD50AC
:10066000792320EE04F03250D9263350DA22DECF3F
:100670006FF0DDCF70F0FF0E6F25716FFF0E7021F0
:10068000726F7951800A736F7151785D7251800A6F
:100690007359D8B0120032C0D9FF33C0DAFFDECFB1
:1006A0007AF0DDCF7BF032C06FF033C070F07A515A
:1006B0006F277B517023060E6F27000E70236FC0CB
:1006C00075F070C076F034C0F6FF35C0F7FFF86AF9
:1006D00075C0D9FF76C0DAFF050EF76403D00800B5
:1006E000F55005D0F6CFE9FFF7CFEAFFEF50DF6E08
:1006F00000017A4B7B2B20EE04F03250D926335088
:10070000DA22DE527B51DD187AC0E8FFD8B4DF1858
:1007100002E17A6B7B6B32C0D9FF33C0DAFF7AC05B
:10072000DEFF7BC0DDFF1200DB6BDC6BDD6B0001ED
:100730009A51866F9B51876F200E886F240E896FA8
:100740006AEC04F086C0D6F187C0D7F147D0DCC18F
:1007500086F0DDC187F0896B150E886FE9EC08F033
:10076000760E86250101D86F7F0E000187210101D9
:10077000D96F9AC08CF09BC08DF0D8C18EF0D9C1D2
:100780008FF0D6C190F0D7C191F0B7C092F00001C0
:1007900005EC04F00101DA6FDA511EE0DCC186F0ED
:1007A000DDC187F00001896B150E886FE9EC08F058
:1007B000140E8627000E8723760E8624F66E7F0E93
:1007C0008720F76E0800F550B06FB16BB0BFB1076E
:1007D000010E0101DB6F16D0DC4BDD2BDCC186F096
:1007E000DDC187F00001896B150E886FE9EC08F018
:1007F000760E8625F66E7F0E8721F76E0800F5507F
:100800001D0AA5E10101DB5112000001956B8D511C
:100810008C115EE08F518E115BE0966B976B50D020
:100820008CC093F08DC094F09651932797519423E8
:100830009351F66EE96E050EEA6E9451EA6403D0A8
:10084000EA6EEF5003D0F76E0800F5500001986F84
:100850008EC093F08FC094F09651932797519423B4
:100860009351F66EE96E050EEA6E9451EA6403D078
:10087000EA6EEF5003D0F76E0800F5500001996F53
:1008800092670ED098513DEC09F0000902E0200E6D
:10089000982799513DEC09F0000902E0200E9927B4
:1008A0009851991906E098513F0A03E099513F0A7F
:1008B00003E1010E956F02D0956B0AD0964B972BF2
:1008C0009007D8A0910700019029D8B49129A8E1F8
:1008D000955112008D698E698651871188114DE0FE
:1008E0008F6B906B26D000018F5186258A6F9051B7
:1008F00087218B6F000E90BFFF0E88218C6F8AC0FE
:10090000F6FF8BC0F7FF8CC0F8FFF8BA03D00800E1
:10091000F55005D0F6CFE9FFF7CFEAFFEF50000121
:10092000891905E18FC08DF090C08EF026D08F4BD5
:10093000902B9051800A7D0FE80ED8B48F5D1DE298
:100940008F5186258A6F905187218B6F000E90BF43
:10095000FF0E88218C6F8AC0F6FF8BC0F7FF8CC01A
:10096000F8FFF8BA03D00800F55005D0F6CFE9FF3C
:10097000F7CFEAFFEF500009B6E18DC086F08EC0D8
:1009800087F012008E6B20EE02F08651D926875137
:10099000DA22DECF8FF0DDCF90F086C0D9FF87C09E
:1009A000DAFFDECF8CF0DDCF8DF08D51901902E1B2
:1009B0008C518F1939E086C08AF087C08BF08F5137
:1009C0008A2790518B23060E8A25D96E000E8B2123
:1009D000DA6E88C0E1FF89C0E2FFDFCFE7FF8F4B0F
:1009E000902B20EE02F08651D9268751DA228FC053
:1009F000DEFF90C0DDFF20EE04F08651D92687513E
:100A0000DA22DE529051DD188FC0E8FFD8B4DF182B
:100A100009E120EE02F08651D9268751DA22000E34
:100A2000DE6EDD6E010E8E6F8E51120007D0030E4A
:100A30000001876FE80E866F4AEC09F0C8EC06F0FB
:100A40000101FD6FFD05F3E1F28EF28CB4C0FDF102
:100A5000010E0101FE6FFD2B02D0D890FE37FD2F55
:100A6000FCD7FE510001B6151BE0B451020DF35046
:100A7000A00FD96EDA6ADE50DD1012E0B451020D1B
:100A8000F350A00FD96EDA6A01D80AD00500FA6EC9
:100A9000DE50FD6EDE50FE6EF850FF6EFA50120012
:100AA000B4C0FDF1010E0101FE6FFD2B02D0D89004
:100AB000FE37FD2FFCD7FE1D0001B617B42B070E25
:100AC000B4170400C3D7D651D711D811D8B4120027
:100AD000D6C186F0D7C187F0D8C188F0240E0001B6
:100AE000896F6AEC04F086C0DAF187C0DBF1020E90
:100AF0000001876F000E866FD6C188F0D7C189F0DC
:100B0000D8C18AF0DAC18BF0DBC18CF042EC06F080
:100B1000000E0101DA25D96E020EDB21DA6EDF6AE2
:100B2000D9C1B5F00FD0020E0001936F000E926F85
:100B3000020E956F000E946FB0EF05F00201006B8E
:100B4000016B12000001B551010AD8B41200030A6A
:100B5000EAE0010AD8B41200060AD8B41200EED7AF
:100B60009D6B9E6B9B6B9C6B94C08CF095C08DF0C5
:100B70009EEC07F08CC099F08DC09AF02AD09B5162
:100B80009225D96E9C519321DA6E94C096F095C04F
:100B900097F09D5196279E5197239629E16E000E5E
:100BA0009721E26EE75005EC07F0986F9D51942570
:100BB000E16E9E519521E26EE75005EC07F0100DB5
:100BC000F3509825DF6E020E9D27000E9E239B4B4F
:100BD0009C2BFF0E9925966FFF0E9A21976F9E51C1
:100BE000800A986F96519D5D9751800A9859D8B0A8
:100BF0001200C5D7010E0001926F000E916F020E18
:100C0000946F7F0E936F010E966FFB0E956F1AEC2B
:100C100008F0000909E0020E0101EE6F7F0EED6F92
:100C2000000EEF6B75EC01F0010E0001876F6B0E8B
:100C3000866FCCEC07F086C0FBF187C0FCF10101A8
:100C4000FC51800A800F010ED8B4FB5DD8A01200C1
:100C5000010E0001926F6B0E916F020E946F7F0E6A
:100C6000936FFBC195F0FCC196F080EC08F0020E8A
:100C70000001886F7F0E876FFBC189F0FCC18AF08D
:100C800054EF07F08D698E69885189118A11D8B4A3
:100C900012001ED08D4B8E2B88C0F6FF89C0F7FF47
:100CA0008AC0F8FFF8BA03D00800F55005D0F6CF97
:100CB000E9FFF7CFEAFFEF5086C0D9FF87C0DAFF20
:100CC000DF6E0001882B000E89238A23864B872B39
:100CD00088C0F6FF89C0F7FF8AC0F8FFF8BA03D0D2
:100CE0000800F55005D0F6CFE9FFF7CFEAFFEF5047
:100CF000000908E000018B07D8A08C078B29D8B425
:100D00008C29C8E100018D4B8E2B12008D6B8E6BF0
:100D10008F6B906B200E916F8D518825D96E8E51FF
:100D20008921DA6EDF50926F9251200A03E08B51D5
:100D30008A110EE19151200A13E086C0D9FF87C0C5
:100D4000DAFF8CC0DFFF864B872B8F4B902B08D0B0
:100D500086C0D9FF87C0DAFF92C0DFFF864B872BA2
:100D60008B518A1108E08A07D8A08B078D4B8E2BF8
:100D700092C091F0D1D786C0D9FF87C0DAFF8CC06E
:100D8000DFFF864B872B8FC086F090C087F0120064
:100D900000018D6B65EC09F09CEC09F05CEC09F04E
:100DA00010EC09F00B0EAB6FF40EAA6F7F0E886F7C
:100DB000EF0E876F8A6B640E896F3FEC07F07F0E32
:100DC0000001886FF30E876F8A6B640E896F3FECAA
:100DD00007F0B8EC08F000090CE07F0E886FF70E02
:100DE000876F8A6B640E896F3FEC07F0010E00017C
:100DF0008D6F7F0E886FFB0E876F8A6B640E896F15
:100E00003FEC07F000018D511200E8CF86F009D0C9
:100E10008651D00F12008651A90F12008651C90FBA
:100E200012008651300AF4E0010AF2E0030AF0E011
:100E3000010AEEE0070AECE0010AEAE0030AE8E052
:100E4000010AE6E00F0AE4E0010AE2E0780AE6E0DF
:100E5000030AE4E0010AE2E0070AE0E0010ADEE05A
:100E6000030ADCE0270AD7E0030AD5E0010AD3E051
:100E7000070AD1E0010ACFE0030ACDE0000C14D04C
:100E800000018751F66EE96E050EEA6E8851EA643C
:100E900003D0EA6EEF5003D0F76E0800F55053EC24
:100EA00009F00001874B882B8907D8A08A07000129
:100EB0008929D8B48A29D8B412008751F66EE96E10
:100EC000050EEA6E8851EA6403D0EA6EEF5003D053
:100ED000F76E0800F5500009D8B41200D1D705EE1E
:100EE00000F0950EEE6AE806FDE104EE00F07F0EDC
:100EF000EE6AE806FDE103EE00F0CF0EEE6AE806CA
:100F0000FDE102EE00F0E30EEE6AE806FDE101EE1F
:100F100000F0D60EEE6AE806FDE100EEA0F0380E15
:100F2000EE6AE806FDE100EE01F0250EEE6AE80645
:100F3000FDE1000EF86E000116EF05F00001906B68
:100F4000916B8D518C1123E08CC08EF08DC08FF091
:100F500090518E2791518F238E51F66EE96E050EBA
:100F6000EA6E8F51EA6403D0EA6EEF5003D0F76E59
:100F70000800F5502FEC09F0000909E0904B912B87
:100F80009151800A7D0FE80ED8B4905DDDE390C0EA
:100F90008CF091C08DF0120020EE02F08651D9261F
:100FA0008751DA22DECF88F0DDCF89F086C0D9FF05
:100FB00087C0DAFFDECF8AF0DDCF8BF088518A5D03
:100FC0008C6F89518B598D6F8DAF0AD020EE04F054
:100FD0008651D9268751DA22DE508C27DD508D23A9
:100FE0008CC086F08DC087F012000DD0010E00017C
:100FF000876F6B0E866F97C088F098C089F037ECCA
:1010000002F0974B982B000198519711D8B4120019
:101010009751F66EE96E050EEA6E9851EA6403D0B8
:10102000EA6EEF5003D0F76E0800F5500009D8B40F
:101030001200DCD7B85121E0945193111EE0965173
:1010400095110DE1000C93C0D9FF94C0DAFF97C051
:10105000DFFF934B942B020E9527000E962391C031
:1010600086F092C087F0000E896F970E886FC2ECF1
:1010700004F00009E8E1B86B010C000CE8CFD6F1F0
:101080000101D6670ED006D09B51FFEF08F09B51AF
:1010900087EF09F000019A51F7E0010AD8A4120085
:1010A000F6D7D651020AD8B41200D651030AD8A4F2
:1010B00012007F0E0001986FE50E976F03EF08F0A6
:1010C0008A6B875186111AE020EE02F08651D926EC
:1010D0008751DA22DE6ADD6A86C0D9FF87C0DAFF6F
:1010E000DE6ADD6A20EE04F08651D9268751DA22C5
:1010F00088C0DEFF89C0DDFF010E8A6F8A511200B1
:10110000986B996B11D091C086F092C087F098517E
:101110009325886F99519421896FC2EC04F00009DE
:10112000D8B41200984B992B9507D8A096070001C8
:101130009529D8B49629D8B41200E5D798EC09F0CF
:101140000009D8B4120000017D0ED1EC08F07C6FCC
:101150007C05D8A41200010E336E000E326E000121
:10116000000E356E7D0E346EE6EC02F0B68B12008A
:10117000010E0001876F6B0E866F896B640E886F9E
:1011800060EC08F08B6F010E0001876F000E866F18
:10119000896B640E886F60EC08F08B118C6F8C513A
:1011A0001200E8CF33F0346A7FEC09F0000903E065
:1011B00020EC09F00CD098EC09F0000908E033505D
:1011C000D96EDA6AAECFDFFF9E9A010E346E3450CC
:1011D00012008A6B8B6B86A104D088518A278951B3
:1011E0008B23D89088378937D890873386338751B7
:1011F0008611F1E18AC086F08BC087F012008EEC78
:1012000009F026C097F027C098F00001F5EC07F030
:101210007F0E0001986FDF0E976FF5EC07F0000C62
:10122000260EAC6E900EAB6EB86AB86A866B4B0E2B
:10123000876F000E886B9FEC09F09D8A9E8A1200D2
:1012400008D0AB98AE50AE50AB8898EC09F00009CE
:10125000FCE17FEC09F00009D8B41200F2D7E8CF26
:1012600087F00001866B1F0E876505D07F0E8761B2
:1012700002D0010E866F86511200E8CF87F0866B90
:10128000400E876505D05B0E876102D0010E866F28
:101290008651120086C0D8F087C0D9F0D951D81134
:1012A000D8B41200FBD7E8CF86F094EC09F000091F
:1012B000FCE086C0ADFF1200010EC26EC16A900E46
:1012C000C06E630E7E6E7F6A1200926893687F6ABA
:1012D000C10E946E956A8B6A8C6A12000001D95116
:1012E000D811D8B41200D807D8A0D9071200E8CF77
:1012F00086F08F0ED3168639F00BD3121200010E32
:10130000326EABA2ABB401D0326A325012007F0E03
:10131000986FDF0E976FF5EC07F0000C0301030EDA
:10132000276E500E266E1200000E9EB8010E12009F
:10133000000E9EBA010E1200050E77EF09F00C0E9A
:10134000AF6E0C0CFF00FF00FF00FF00FF00FF006E
:107D6000FF00FF00FF007369676E616C0000000098
:107D7000000000000000000000000003696D7000BA
:107D800000000000000000000000000000000000F3
:107D90000103707772000000000000000000000086
:107DA0000000000000000203706F7400000000007B
:107DB00000000000000000000000000003037665E2
:107DC0007200000000000000000000000000000041
:107DD00000000403737461747573000000000000F8
:107DE0000000000000000000050361636300000064
:107DF0000000000000000000000000000000070379
:107E0000616472000000000000000000000000003B
:107E10000000000008036572726F7200000000002D
:107E200000000000000000000000060364656661B9
:107E3000756C74730000000000000000000000007A
:107E400009036D6F640000000000000000000000E6
:107E50000000000000000A0170726F66696C650026
:107E60000000000000000000000000000B0370771D
:107E700072747269670000000000000000000000DA
:107E800000000C0361636374726967000000000006
:107E900000000000000000000D03747269676C654B
:107EA00076000000000000000000000000000E034B
:107EB0007472696773756D000000000000000000B7
:107EC000000000000F0374726967636E74000000A5
:107ED00000000000000000000000100377617674CD
:107EE0006F6C650000000000000000000000000052
:107EF000110377617674726967000000000000006A
:107F000000000000000012037761766C636E74005D
:107F10000000000000000000000000001303776173
:107F20007672636E74000000000000000000000024
:107F30000000140369646964000000000000000090
:107F40000000000000000000150370737770737765
:107F50000000000000000000000000000000160308
:107F60001D1D0000000000000000000000000000D7
:107F700000000000FF0073657400000000000000B6
:107F800000000000000000000000006765740000B1
:107F900000000000000000000000000000000001E0
:107FA000696E69740000000000000000000000001D
:107FB000000000000273656C667465737400000055
:107FC000000000000000000000031D1D0000000074
:107FD0000000000000000000000000000000003A67
:107FE00065727220006572720A003A6F6B20005B46
:107FF000315D005B325D005B335D005B345D000032
:020000040020DA
:08000000FFFFFFFFFFFFFFFF00
:020000040030CA
:0E000000FF080815FF8D81FF0FC00FE00F40B5
:00000001FF
