:1000000078EF00F0FF00FF00E9CF12F0EACF13F025
:10001000D9CF14F0DACF15F0F6CF16F0F7CF17F0EE
:10002000F8CF18F0F5CF19F0F2A401D001D007D025
:1000300024EC11F0F294FE0ED76E0C0ED66E9EAA32
:1000400001D001D003D035EC0FF09E9A9EAC01D0C8
:1000500001D003D0B8EC10F09E9C19C0F5FF18C079
:10006000F8FF17C0F7FF16C0F6FF15C0DAFF14C07F
:10007000D9FF13C0EAFF12C0E9FF1100E9CF64F015
:10008000EACF65F0D9CF66F0DACF67F0F6CF68F047
:10009000F7CF69F0F8CF6AF0F5CF6BF0F2A401D09A
:1000A00001D007D024EC11F0F294FE0ED76E0C0EA6
:1000B000D66E9EAA01D001D003D035EC0FF09E9AE7
:1000C0009EAC01D001D003D0B8EC10F09E9C6BC068
:1000D000F5FF6AC0F8FF69C0F7FF68C0F6FF67C0A8
:1000E000DAFF66C0D9FF65C0EAFF64C0E9FF11000E
:1000F00014EF0EF020EE28F07451D9267551DA2253
:1001000010EE63F07451E1267551E222E7506C6FF6
:1001100010EE28F07451E1267551E222E75081EC8F
:1001200010F0DF6E20EE28F07451D9267551DA22D6
:10013000DF5052DA76C0DEFF77C0DDFF20EE28F018
:100140007451D9267551DA22DF2A20EE58F0745105
:10015000D9267551DA2210EE29F0EDD910EE58F0BB
:10016000EAD976C0DEFF77C0DDFF886B896B8A6BCA
:1001700003D08A5131DA3FDAEDD98A5DFAE388C0DB
:100180006CF089C06DF0E6D96E6F6F6B31EC0DF0DD
:1001900020EE56F0FDD920EE58F07451D926755155
:1001A000DA22DECF6CF0DDCF6DF020EE58F0745126
:1001B000D9267551DA22DECF6EF0DDCF6FF06BEC11
:1001C00010F06CC078F06DC079F020EE56F07451EC
:1001D000D9267551DA22DECF6CF0DDCF6DF020EE3E
:1001E0005AF07451D9267551DA22DECF6EF0DDCF88
:1001F0006FF06BEC10F06C51785D7A6F6D5179593E
:100200007B6F20EE5CF07451D9267551DA227AC0EA
:10021000DEFF7BC0DDFF76D979BF0BD020EE5CF02E
:100220007451D9267551DA22DECF7EF0DDCF7FF012
:100230000BD020EE5CF07451D9265BD9784B792B2A
:1002400078C07EF079C07FF020EE5FF07451D9263F
:100250007551DA22DECF78F0DDCF79F07951800A5E
:100260007A6F7E51785D7F51800A7A5916E2A3D960
:1002700078B113D020EE5EF07451D9267551DA2290
:10028000DF50786F78B509D020EE5EF07451D92632
:100290007551DA22010EDF12010C8DD978A19BD0A5
:1002A00020EE5CF07451D9267551DA22DECF78F059
:1002B000DDCF79F079BF0BD020EE5CF07451D926F8
:1002C0007551DA22DECF80F0DDCF81F00BD020EE49
:1002D0005CF07451D9260DD9784B792B78C080F019
:1002E00079C081F08151800A7D0FE80ED8B4805D1D
:1002F00072E220EE54F07451DED87C6F82D97DBF5B
:1003000009D020EE54F07451D6D8826F79517B59C0
:10031000836F0BD020EE54F07451CDD865D97C4B4F
:100320007D2B7CC082F07DC083F01CD98351800A74
:100330007A6F7851825D7951800A7A594CE2EDD812
:10034000CED87C6F5ED97DBF13D020EE54F07451AF
:10035000D9267551DA22DECF78F0DDCF79F020EEA4
:100360005AF07451BCD8846F79517B59856F09D08C
:10037000D4D8B5D839D97C4B7D2B7CC084F07DC0D6
:1003800085F0F0D88551800A7A6F7851845D795173
:10039000800A7A5920E28A6B13D020EE58F074510B
:1003A000D9267551DA228A51020DF3507425E16E77
:1003B000F4507521E26EDECFE6FFDDCFE5FF8A2B3C
:1003C000C9D88A5DEAE320EE5EF07451D9267551F2
:1003D000DA22FE0EDF1696D879BF0BD020EE5CF045
:1003E0007451D9267551DA22DECF86F0DDCF87F041
:1003F0000BD020EE5CF07451D9267BD8784B792B4A
:1004000078C086F079C087F08751800A800F0A0E85
:10041000D8B4865D4FE220EE53F07451D926755161
:10042000DA22090EDF6208D020EE5EF07451D92680
:100430007551DA22FB0EDF1620EE58F074519DD86C
:10044000B0D8E16E000E7921E26EDECFE6FFDDCF9F
:10045000E5FF20EE53F0745190D8786F78296C6FD7
:100460006D6B000E6D2310EE64F07451E126755132
:10047000E222E7506E6F6F6BE0EC0DF06C51DF6EB7
:10048000886B896B8A6B07D08A518BD8D96E000E26
:100490007921DA6EB0D898D88A5DF6E388C06CF01E
:1004A00089C06DF091D86E6F6F6B31EC0DF020EE5E
:1004B00054F06ED8000CD9267551DA22DECF78F0D0
:1004C000DDCF79F020EE58F07451D9267551DA223B
:1004D000DECF7AF0DDCF7BF078517A5D1200D9263D
:1004E0007551DA22DECF7AF0DDCF7BF078517A5D7C
:1004F00012007551DA22DECF78F0DDCF79F0781F67
:10050000791F120020EE5CF07451D9267551DA2261
:10051000DECF78F0DDCF79F0120020EE54F0745188
:10052000D9267551DA22DECF78F0DDCF79F020EED2
:100530005AF0745112007451E1267551E222DECF57
:10054000E6FFDDCFE5FF20EE5AF07451D926755154
:10055000DA22120020EE63F07451D9267551DA22A6
:10056000DF50120020EE61F07451D9267551DA2265
:10057000DECF78F0DDCF79F01200D9267551DA227E
:1005800010EE53F07451E1267551E222E75012004B
:100590007451D9267551DA226CC0DEFF6DC0DDFFC3
:1005A0001200020DF3507425786FF4507521796FA5
:1005B0002B0E7825120020EE5EF07451D92675516D
:1005C000DA22DF50786F120020EE64F07451D926E1
:1005D0007551DA22DF501200020DF3507425D96EE6
:1005E000F4507521DA6E12007C6F79517B597D6F62
:1005F0007C1F7D1F1200DE508827DD5089238A2B47
:10060000120079517B597D6F12009E6B9F6BA06B1E
:100610009C6B9D6B14D0F8D831EC0AF0E0D896ECC6
:1006200010F074C088F075C089F076C08AF00FECC5
:1006300006F085C09EF086C09FF087C0A0F093C0F2
:10064000F6FFF8D8F8BA03D00800F55002D0ACECA9
:1006500009F0E6D805E0A151D7EC10F00009DBE184
:10066000A1512E0AA21118E028D0CED831EC0AF000
:10067000B6D896EC10F074C088F075C089F076C0DA
:100680008AF00FEC06F085C09EF086C09FF087C010
:10069000A0F09C07D8A09D0793C0F6FFCBD8F8BA6E
:1006A00003D00800F55002D0ACEC09F0B9D805E051
:1006B000A151D7EC10F00009D8E1A151650AA211AF
:1006C00004E0A151450AA2116EE1996B010E986FE9
:1006D0009A6B9B6B93C0F6FF94C0F7FF95C0F8FF31
:1006E000F8BA03D00800F55002D0ACEC09F084D879
:1006F000A1512B0AA2110FE193C0F6FF94C0F7FF9E
:1007000095C0F8FFF8BA03D00800F55002D0ACEC61
:1007100009F072D829D0A1512D0AA21125E193C068
:10072000F6FF94C0F7FF95C0F8FFF8BA03D00800B1
:10073000F55002D0ACEC09F05FD89869996914D0F3
:100740009AC06CF09BC06DF06F6B0A0E6E6F6BEC15
:1007500010F0A1516C27A2516D23D00E6C249A6F1A
:10076000FF0E6D209B6FC8D7A151D7EC10F0000988
:10077000E7E19AC06CF09BC06DF098C06EF099C034
:100780006FF06BEC10F06C519C276D519D230BD0DA
:10079000856B200E866F410E876F9E0E1CEC10F04D
:1007A0009C07D8A09D079D51800A800F010ED8B4E8
:1007B0009C5D0CE3EDD7CD0E856FCC0E866F3D0EA4
:1007C000876F9E0E1CEC10F09C4B9D2B9DBFF3D7AA
:1007D0009EC093F09FC094F0A0C095F0120074C02A
:1007E00085F075C086F076C087F0D00EA125746FB5
:1007F000FF0EA221756F12000001A16FA26B932B57
:10080000000E94239523000C776B200E786F410E19
:10081000796F9EC074F09FC075F0A0C076F0410C57
:100820000001A16FA26BA1C096F0A2C097F09751F2
:100830009611120094C0F7FF95C0F8FF932B000E9D
:1008400094239523000CE8CF78F06E516C5D6F51C6
:100850006D59800B07E16E516C5D746F6F516D596E
:10086000756F10D06CC070F06DC071F06E51705F1C
:100870006F51715B701F711F704B712B70C074F0E2
:1008800071C075F07851D96EDA6A74C0DEFF75C038
:10089000DDFF7851D96EDA6A7851E16EE26A130EA3
:1008A000A8D802E1DF50E75C03E3766B776B17D0E3
:1008B0007851D96EDA6A130ED926DA6ADECF70F073
:1008C000DDCF71F07851D96EDA6ADECF72F0DDCF0C
:1008D00073F07051725D766F71517359776FB2D842
:1008E00076C0DEFF77C0DDFF8FD8DF50706F70A558
:1008F00059D07851D96EDA6A080ED926DA6ADE2A1A
:10090000000EDD229FD8DECF70F0DDCF71F083D8EE
:100910007051DE267151DD227ED87851E16EE26A97
:10092000110E67D802E1DF50E75C2CE26DD8DF5092
:10093000706F70B127D07851D96EDA6A0E0ED92651
:10094000DA6AFB0EDF1660D8010EDF127851D96E1D
:1009500071D80C0EE126E26ADECFE6FFDDCFE5FFBF
:100960005AD87851E16EE26A0A0EE126E26ADECFD9
:10097000E6FFDDCFE5FF785155D84DD8000EDE6E8D
:10098000DD6E010C7851D96E55D80F0E32D802E1C8
:10099000DF50E75C2DE238D8FB0EDF1635D8FE0EAF
:1009A000DF16000C4FD87851E16EE26A130E21D8A1
:1009B00002E1DF50E75C1CE227D8040EDF1224D8E6
:1009C000FE0EDF167851D96EDA6A0C0ED926DA6A75
:1009D000DE6ADD6A7851D96EDA6A0A0ED926DA6AD9
:1009E000DE6ADD6A78511ED816D8000EDE6EDD6E26
:1009F000000CE126E26AE652DE52E550800A706F92
:100A0000DD50800A705D12007851D96EDA6A0E0EE0
:100A1000D926DA6A12007851D96EDA6A060ED9261A
:100A2000DA6A1200D96EDA6A080ED926DA6ADE6A44
:100A3000DD6A1200DA6A080ED926DA6A7851E16EA8
:100A4000E26A12007851D96EDA6A040ED926DA6A9F
:100A50001200A86BA451A31101E1D5D0A3C0A9F045
:100A6000A4C0AAF0AD6BAE6BAF6BA3C06EF0A4C018
:100A70006FF0BFEC0FF06EC0ABF06FC0ACF0A3C076
:100A80006CF0A4C06DF03D0E6E6F9AEC0EF06CC071
:100A9000B1F06DC0B2F0B2BF1BD0B251800AA66FE8
:100AA000AB51B15DAC51800AA65912E2A3C0A6F0C9
:100AB000A4C0A7F0B151A627B251A723A62B000EC0
:100AC000A723A651AD6FA751AE6F200EAF6F04D014
:100AD000ABC0B1F0ACC0B2F0030E00016D6F000E00
:100AE0006C6FA9C06EF0AAC06FF0B1C070F0B2C058
:100AF00071F0C3EC0EF0000E0001B125D96E030EAB
:100B0000B221DA6EDF6AB06BB051170D140E7DD8CA
:100B10000800F550A66FA76BA6BFA707B251A7198B
:100B200002E1B151A6196AE1B051170D760EF32416
:100B30006E6F7D0EF4206F6FA9C070F0AAC071F0C7
:100B4000B1C072F0B2C073F0000E746B55EC0BF0D4
:100B5000000954E0A5510AE0B051170D150E55D803
:100B6000A551D96EDA6A0800F5CFDFFFAD51AE119D
:100B7000AF1140E0B051170D160E47D80800F5CF61
:100B8000CAF02CD0ADC072F0AEC073F0AFC074F03C
:100B90002EEC09F072C000F273C001F22BD0ADC090
:100BA00093F0AEC094F0AFC095F005EC03F093C0A5
:100BB00000F294C001F295C002F21CD0020E0001B6
:100BC000736F000E726F020E756F000E746FA0ECE3
:100BD0000BF010D00201006B016B0CD0CA51010A5E
:100BE00009E0030AEBE0010ACDE0060ACBE0030AC4
:100BF000D6E0F0D7010E0001A86F05D0B02BB051A0
:100C0000800A650F81E3A8511200F326000EF4223A
:100C1000760EF324F66E7D0EF420F76E12000F0EA2
:100C20008B6F85C08CF086C08DF087C08EF08B29CD
:100C30008F6F01D0A9D88F2FFDD78C51926F0F0ED7
:100C40008B6F88C08CF089C08DF08AC08EF08B29A4
:100C50008F6F01D099D88F2FFDD78C51916F925102
:100C600009E0915192610DD09251915D8B6F190EF7
:100C70008B5D07E388C085F089C086F08AC087F065
:100C80001200915109E0925191610DD09151925D04
:100C90008B6F190E8B5D07E385C085F086C086F0EB
:100CA00087C087F01200060E906F87BF908F8ABFB3
:100CB000908D868F876B898F8A6B9151926117D047
:100CC000D890883789378A379107915192190BE06C
:100CD000900700019051070B06E0F2D7D8908733B8
:100CE00086338533922B91519263F8D719D0925164
:100CF000916116D0D8908537863787379207915102
:100D000092190BE0900700019051070B06E0F2D713
:100D1000D8908A3389338833912B91519263F8D7D5
:100D200090AF07D0851F861F871F852B000E862357
:100D3000872390AD02D0881F20D8906B85518827DB
:100D40008651892387518A238AAF04D0881F15D8FA
:100D5000010E906F88C06CF089C06DF08AC06EF093
:100D600092C06FF090C070F0EAEC0BF06CC085F0B0
:100D70006DC086F06EC087F01200891F8A1F882B15
:100D8000000E89238A23000CD8908E338D338C3348
:100D9000120020EE02F091D86CC0D9FF6DC0DAFFCE
:100DA000DECF72F0DDCF73F07051725D796F7151EB
:100DB00073597A6F010E786F89D8EA6403D0EA6EAE
:100DC000EF5003D0F76E0800F5500A0A0EE000015C
:100DD0007DD8EA6403D0EA6EEF5003D0F76E0800C6
:100DE000F5500D0A02E00001786B00017851CC1338
:100DF0007AAF0AD020EE04F06C51D9266D51DA2278
:100E0000DE507927DD507A2320EE04F056D8FF0E0D
:100E10007025726FFF0E7121736F7A51800A746FA3
:100E20007251795D7351800A7459D8B012006CC048
:100E3000D9FF6DC0DAFFDECF7BF0DDCF7CF06CC078
:100E400070F06DC071F07B5170277C517123060EDC
:100E50007027000E712370C076F071C077F06EC0FD
:100E6000F6FF6FC0F7FFF86A76C0D9FF77C0DAFFE8
:100E7000050EF76403D00800F55002D0ACEC09F081
:100E8000DF6E00017B4B7C2B20EE04F06C51D926E9
:100E90006D51DA22DE527C51DD187BC0E8FFD8B4F8
:100EA000DF1802E17B6B7C6B6CC0D9FF6DC0DAFF91
:100EB0007BC0DEFF7CC0DDFF12006C51D9266D5176
:100EC000DA22DECF70F0DDCF71F012006E51F66ED7
:100ED000E96E050EEA6E6F51120020EE02F08ED818
:100EE0001AC0D9FF1BC0DAFFDECF20F0DDCF21F022
:100EF0001E50205C276E1F502158286E010E266E52
:100F000086D8EA6403D0EA6EEF5003D0F76E08008B
:100F1000F5500A0A0CE07BD8EA6403D0EA6EEF5081
:100F200003D0F76E0800F5500D0AD8A4266A2650A3
:100F30000001CC1328AE0AD020EE04F01A50D926B6
:100F40001B50DA22DE502726DD50282220EE04F046
:100F500055D8FF0E1E24206EFF0E1F20216E285034
:100F6000800A226E2050275C2150800A2258D8B077
:100F700012001AC0D9FF1BC0DAFFDECF29F0DDCF87
:100F80002AF01AC01EF01BC01FF029501E262A503E
:100F90001F22060E1E26000E1F221EC024F01FC098
:100FA00025F01CC0F6FF1DC0F7FFF86A24C0D9FF6A
:100FB00025C0DAFF050EF76403D00800F55002D013
:100FC000ACEC09F0DF6E294A2A2A20EE04F01A5010
:100FD000D9261B50DA22DE522A50DD1829C0E8FF3C
:100FE000D8B4DF1802E1296A2A6A1AC0D9FF1BC0E7
:100FF000DAFF29C0DEFF2AC0DDFF12001A50D92611
:101000001B50DA22DECF1EF0DDCF1FF012001C5085
:10101000F66EE96E050EEA6E1D5012000101E46BDA
:10102000050E00016D6F000E6C6FB3C06EF0B4C0A2
:101030006FF0B5C070F0B6C071F0000E726B33EC9B
:101040000CF06C510101E86F0001EF69F0690201D9
:10105000006B0301006B0101E851800A7F0F5FE321
:10106000E56BE8C1E4F157D0000E0101E525E66F1C
:10107000E76B050EE723E56719D0E6C1A3F0E7C1EA
:10108000A4F00001EF0EA56F29EC05F0000903E1C3
:101090000101E46B44D0EFC083F08469856B866BFB
:1010A000876B886B010EDEEC0FF02BD0E6C1A3F04E
:1010B000E7C1A4F00001F00EA56F29EC05F0B76FB1
:1010C000B70511E1EFC083F0F0C084F0000E00011D
:1010D000856F020E866F200E876FCAC088F0000EE3
:1010E000DEEC0FF00ED0EFC083F08469000E00013B
:1010F000856F030E866F200E876F000E886BDEEC07
:101100000FF0E6C16EF0E7C16FF00001BFEC0FF029
:101110006E290101E527E8070101E829A5E1E4516D
:10112000800A7F0F0BE3EFC083F000018469856BB9
:10113000866B876B886B020EDEEF0FF00001836910
:101140008469856B866B876B886B030EDEEF0FF00F
:10115000E8CF8AF07E0E826F64D08B51250A07E0BB
:101160008A51D96EDA6A8BC0DFFF8A2B5AD0836B23
:1011700061D88B5159E0640AD8A40D0A52E182511A
:10118000D96EDA6ADECF85F0DDCF86F0020E8227D7
:1011900086AF06D0030E8313856D861FD8B0862BCD
:1011A000010E8B6F8B5151D8F5CF80F00900F5CF30
:1011B00081F08051855D8151865904E38B2B8B51E1
:1011C000050AF0E18351030B06E08A51D96EDA6A11
:1011D0002D0EDF6E8A2B8BC084F01FD0845135D842
:1011E000F5CF6EF00A00F5CF6FF085C06CF086C0C9
:1011F0006DF010EC0FF06CC073F06DC074F0766B96
:101200000A0E756FFDEC0FF07351300F8B6F8A5122
:10121000D96EDA6A8BC0DFFF8A2B8407000184292C
:10122000DDE108D88B6799D78A51D96EDA6A000E4A
:10123000DF6E000C7CC0F6FF7DC0F7FF7C4B7D2B82
:101240000800F5CF8BF000011200020D6C0EF324A4
:10125000F66E7D0EF420F76E090012007A6B7B6B40
:10126000796B010E786F72C0F6FF73C0F7FF74C020
:10127000F8FFF8BA03D00800F55001D06DD82B0A5A
:101280000EE072C0F6FF73C0F7FF74C0F8FFF8BA43
:1012900003D00800F55001D05FD82D0A3DE172C09F
:1012A000F6FF73C0F7FF74C0F8FFF8BA03D0080068
:1012B000F55001D051D82D0A03E100017869796910
:1012C0000001722B000E7323742326D07AC06CF0B9
:1012D0007BC06DF06F6B0A0E6E6F6BEC10F06CC024
:1012E0007AF06DC07BF072C0F6FF73C0F7FF74C078
:1012F000F8FFF8BA03D00800F55001D02DD800014E
:10130000756FD00E7525766F776BFF0E772376514C
:101310007A2777517B23D4D7000172C0F6FF73C0C0
:10132000F7FF74C0F8FFF8BA03D00800F55001D0F9
:1013300013D8D7EC10F00009C9E17AC06CF07BC07B
:101340006DF078C06EF079C06FF06BEC10F06CC08F
:1013500072F06DC073F01200F6CFE9FFF7CFEAFF2D
:10136000EF50120007D0030E00016D6FE80E6C6F96
:1013700009EC11F059EC0FF00101EC6FEC05F3E111
:101380007F0E00017D6FF90E7C6FFD0E726F7F0E78
:10139000736F000E746F2EEC09F072C07EF073C094
:1013A0007FF0E50EA8EC08F0000E6E6FE50E6D6F95
:1013B000706B640E6F6F43EC0EF0F28EF28C0101D5
:1013C000ED69EE69EF6BEF51330FD96EDA6A010EFA
:1013D000DF6211D0EF512B0FD96EDA6ADF5003E1D3
:1013E000EFC1EDF105D0EF512B0FD96EDA6ADF06B0
:1013F000EEBFEFC1EEF1EF2B070EEF65E4D7EDBFC7
:1014000011D0ED5127D801D80AD00500FA6EDE5070
:10141000FD6EDE50FE6EF850FF6EFA5012000101B4
:10142000ED5112D0EEBF14D0EE5114D801D80AD02D
:101430000500FA6EDE50FD6EDE50FE6EF850FF6E57
:10144000FA5012000101EE51330FD96EDA6ADF6AE9
:101450000400B5D7020DF3500001B80FD96EDA6A57
:1014600012000F0E7A6F74C07BF075C07CF076C0EE
:101470007DF07A297E6F01D06CD87E2FFDD77B510D
:101480007F6F00017F6704D0746B756B766B120001
:101490000F0E7A6F77C07BF078C07CF079C07DF05A
:1014A0007A297E6F01D055D87E2FFDD77B51846F6E
:1014B0000001846704D0746B756B766B12008451E5
:1014C0007B0F7F2776C084F000017951841B800E4A
:1014D0008417758F788F000E7917806B816B826B04
:1014E000070E836F74A102D077512DD8D890763330
:1014F00075337433D890773778377937832FF2D7AD
:10150000090E836F74A102D077511DD8D89076331D
:1015100075337433D890823381338033832FF2D77D
:1015200080C06CF081C06DF082C06EF07FC06FF043
:1015300084C070F0EAEC0BF06CC074F06DC075F014
:101540006EC076F012008027785181237951822372
:101550001200D8907D337C337B331200746B20EE05
:1015600002F06C51D9266D51DA22DECF75F0DDCF55
:1015700076F06CC0D9FF6DC0DAFFDECF72F0DDCF40
:1015800073F07351761902E17251751939E06CC02C
:1015900070F06DC071F07551702776517123060E91
:1015A0007025D96E000E7121DA6E6EC0E1FF6FC03A
:1015B000E2FFDFCFE7FF754B762B20EE02F06C5198
:1015C000D9266D51DA2275C0DEFF76C0DDFF20EE30
:1015D00004F06C51D9266D51DA22DE527651DD18B5
:1015E00075C0E8FFD8B4DF1809E120EE02F06C51B5
:1015F000D9266D51DA22000EDE6EDD6E010E746F9B
:1016000074511200E8CF7FF0826B13D043EC11F0DD
:101610006CC080F06DC081F08151800A800F100E87
:10162000D8B4805D26E280510F0B8C6E010E826F64
:1016300020D07F51040A1DE0030AE8E00A0A19E0FD
:10164000030A17E0010A15E01F0A13E0010A11E07E
:10165000030A0FE0010A0DE0070A0BE0010A09E0A6
:10166000030A07E0010A05E00F0AD8A4010AD8A47A
:10167000030A3DEC11F001C07DF002C07EF00001D4
:10168000EBEC0EF00001825107E07F0E7E6FF40E4E
:101690007D6FEBEC0EF006D07F0E7E6FE90E7D6F56
:1016A000EBEC0EF0000182511200776B6F516E115E
:1016B00045E07151701142E0786B796B37D06EC0A4
:1016C00075F06FC076F0785175277951762375C023
:1016D000F6FF76C0F7FF0800F5CF7AF07851702555
:1016E000D96E79517121DA6EDF507B6F74670ED03D
:1016F0007A51E5EC10F0000902E0200E7A277B51C8
:10170000E5EC10F0000902E0200E7B277A517B19EE
:1017100006E07A513F0A03E07B513F0A03E1010EE4
:10172000776F02D0776B0AD0784B792B7207D8A0ED
:10173000730700017229D8B47329C1E177511200EF
:101740007D6B7E6B7B6B7C6B74C06EF075C06FF0D5
:10175000BFEC0FF06EC079F06FC07AF02AD07B51E9
:101760007225D96E7C517321DA6E74C076F075C023
:1017700077F07D5176277E5177237629E16E000E32
:101780007721E26EE7506DEC0DF0786F7D51742596
:10179000E16E7E517521E26EE7506DEC0DF0100D9B
:1017A000F3507825DF6E020E7D27000E7E237B4BE3
:1017B0007C2BFF0E7925766FFF0E7A21776F7E5195
:1017C000800A786F76517D5D7751800A7859D8B05C
:1017D0001200C5D76F5104E06C516D116E1106E116
:1017E0006C6B6D6B6E6B12006F2B38D8716B726BFC
:1017F000FE0E6E15736F71517211731107E0F4D7FD
:101800006F2B6C2B000E6D236E2328D8716B726BBF
:101810006E51736F71517211731106E0F1D76F073A
:10182000D8906C376D376E376DAFF9D76FA16D9F5C
:10183000D8906F336F51736F726B716B71516C1302
:1018400072516D1373516E137051D8A46E8F6CC0AA
:101850006CF06DC06DF06EC06EF01200D8906E33FB
:101860006D336C331200736B746B756B766B200E7B
:10187000776F73516E25D96E74516F21DA6EDF5018
:10188000786F7851200A03E0715170110EE17751A1
:10189000200A13E06CC0D9FF6DC0DAFF72C0DFFF11
:1018A0006C4B6D2B754B762B08D06CC0D9FF6DC07F
:1018B000DAFF78C0DFFF6C4B6D2B7151701108E0BF
:1018C0007007D8A07107734B742B78C077F0D1D70D
:1018D0006CC0D9FF6DC0DAFF72C0DFFF6C4B6D2B9F
:1018E00075C06CF076C06DF01200E8CF7FF03DEC73
:1018F00011F001C07DF002C07EF00001EBEC0EF0B3
:1019000000017F51040A2BE0010A29E0030A27E0C5
:10191000010A25E00F0A23E0010A21E0030A1FE083
:10192000010A1DE0070A1BE0010A19E0030A17E09B
:10193000010A15E01F0A13E0010A11E0030A0FE093
:10194000010A0DE0070A0BE0010A09E0030A07E0BB
:10195000010A05E00F0AD8A4010AD8A4030A7F0EE1
:101960007E6FE90E7D6FEBEC0EF0000C010E0001B6
:10197000756F6B0E746FC8C076F0C9C077F07AECE3
:1019800000F0CF6FBFC18BF00001C0C18CF08D6B38
:101990008CBF8D07C8C06CF0C9C06DF08BC06EF0F5
:1019A0008CC06FF0D00E23EC04F0CE6F000EDEB5CD
:1019B000010ECD6F09D00001CB6B0ED0CEC0CBF0A5
:1019C0000BD0CFC0CBF008D00101D751F4E0010A11
:1019D000F5E0030AF6E0EFD70001CB51D8A4D88098
:1019E000CD51D8A4D88212000BD0030E0001B46FE1
:1019F0007F0EB36FEAC1B5F0EBC1B6F00EEC08F0A4
:101A0000020E0001786F7F0E776F030E7A6F7F0EE4
:101A1000796F010E7C6FEA0E7B6FA7EC0DF0000969
:101A200010E0E3D7010E00016D6F000E6C6F010E28
:101A30006F6FE90E6E6FAEEC0AF00101E95112EC26
:101A400011F0010E00016D6F000E6C6F71EC0EF065
:101A50006D51800A800F010ED8B46C5DD8A01200C1
:101A6000E1D7716B6FAF06D06E6D6F1FD8B06F2B63
:101A7000010E716F6DAF06D06C6D6D1FD8B06D2B00
:101A8000010E711B726B736B6F516E111BE0010EB7
:101A9000706F04D0D8906E376F37702B6FAFFAD756
:101AA000D890723773376E516C5D6F516D5905E385
:101AB0006E516C5F6F516D5B7281D8906F336E3376
:101AC000702FEED7715104E0726D731FD8B0732B75
:101AD00072C06CF073C06DF01200E8CF6CF009D0EA
:101AE0006C51D00F12006C51A90F12006C51C90F2C
:101AF00012006C51300AF4E0010AF2E0030AF0E04F
:101B0000010AEEE0070AECE0010AEAE0030AE8E075
:101B1000010AE6E00F0AE4E0010AE2E0780AE6E002
:101B2000030AE4E0010AE2E0070AE0E0010ADEE07D
:101B3000030ADCE0270AD7E0030AD5E0010AD3E074
:101B4000070AD1E0010ACFE0030ACDE0000C7BC018
:101B5000D9FF7CC0DAFF000EDE6EDD6ECC512FE0C7
:101B60007A5179111EE1000C7D510A0A03E07D5182
:101B70000D0A08E1794B7A2B79C0D9FF7AC0DAFFD8
:101B8000DF6A1BD079C0D9FF7AC0DAFF7DC0DFFFE2
:101B9000794B7A2B7BC0D9FF7CC0DAFFDE2A000E9E
:101BA000DD2277C06CF078C06DF0000E6F6F7D0E97
:101BB0006E6FAEEC0AF00009D7E1CC6B010C000CA3
:101BC000716B6DAF06D06C6D6D1FD8B06D2B010EB3
:101BD000716F6FAF04D06E6D6F1FD8B06F2B6F51E8
:101BE0006E1117E0010E706F04D0D8906E376F370A
:101BF000702B6FAFFAD76E516C5D6F516D5904E366
:101C00006E516C5F6F516D5BD8906F336E33702F78
:101C1000F2D7715104E06C6D6D1FD8B06D2B6CC0A4
:101C20006CF06DC06DF0120005EE00F07F0EEE6AF4
:101C3000E806FDE104EE00F0BB0EEE6AE806FDE109
:101C400003EE00F0E30EEE6AE806FDE102EE00F0BE
:101C5000EA0EEE6AE806FDE101EE00F0E40EEE6A3F
:101C6000E806FDE100EEB8F0390EEE6AE806FDE1A7
:101C700000EE2BF0180EEE6AE806FDE1000EF86E9D
:101C80000001B2EF09F010D000016D5124D8EA64D0
:101C900003D0EA6EEF5003D0F76E0800F55012EC57
:101CA00011F000016D4B6E2B6F07D8A0700700017B
:101CB0006F29D8B47029D8B412006D510CD8EA64D9
:101CC00003D0EA6EEF5003D0F76E0800F55000091C
:101CD000D8B41200D9D7F66EE96E050EEA6E6E51D1
:101CE000120020EE02F06C51D9266D51DA22DECFBF
:101CF0006EF0DDCF6FF06CC0D9FF6DC0DAFFDECFC4
:101D000070F0DDCF71F06E51705D726F6F5171596F
:101D1000736F73AF0AD020EE04F06C51D9266D5169
:101D2000DA22DE507227DD50732372C06CF073C06C
:101D30006DF012006F6970696D516C1118E0716B74
:101D4000726B0BD019D86E51DF6205D071C06FF085
:101D500072C070F00CD0714B722B7251800A7D0FE3
:101D6000E80ED8B4715D03E207D8DF50EBE16FC035
:101D70006CF070C06DF0120071516C25D96E72510B
:101D80006D21DA6E1200726973696F516E11D8B4E9
:101D9000120010D0724B732B6EC0D9FF6FC0DAFFE8
:101DA0006CC0E1FF6DC0E2FFDFCFE7FF6E4B6F2B32
:101DB0006C4B6D2B6EC0D9FF6FC0DAFFDF5008E0AF
:101DC0007007D8A0710700017029D8B47129E2E129
:101DD000724B732B12000DD0010E00016D6F000EBF
:101DE0006C6F7DC06EF07EC06FF0C9EC06F07D4B6D
:101DF0007E2B00017E517D11D8B412007D51F66E0C
:101E0000E96E050EEA6E7E51EA6403D0EA6EEF5089
:101E100003D0F76E0800F5500009D8B41200DCD7E3
:101E2000716B726B6F516E111BE0010E706F04D0FD
:101E3000D8906E376F37702B6FAFFAD7D890713755
:101E400072376E516C5D6F516D5905E36E516C5F69
:101E50006F516D5B7181D8906F336E33702FEED7F9
:101E600071C06CF072C06DF012004CEC11F0000902
:101E7000D8B412000001630E53EC10F0626F6205DB
:101E80000BE1020E1B6E7F0E1A6E0001000E1D6E1E
:101E9000630E1C6E6DEC07F0000163510A0A04E04A
:101EA00063510D0AD8A41200010E386E0A0E306E6E
:101EB0000A0C0001736B1BEC11F050EC11F0FFECFD
:101EC00010F0A8EC10F0190EC36FE80EC26F190ED7
:101ED000BD6F6C0EBC6F7F0E6E6FE30E6D6F706B1F
:101EE000640E6F6F43EC0EF03AEC10F0000902E064
:101EF000010E736F73511200E8CF1DF0C230E8324B
:101F00000F0B1D1810E01DC01CF01C461C46C250D3
:101F10001C18C30B1C18C26E00F000F000F000F09B
:101F200000F000F000F0C28202D000F000F0C2B277
:101F3000FCD79E9CC3CF1AF0C4CF1BF01200706B6D
:101F40006D516C111AE020EE02F06C51D9266D51E2
:101F5000DA22DE6ADD6A6CC0D9FF6DC0DAFFDE6AA4
:101F6000DD6A20EE04F06C51D9266D51DA226EC084
:101F7000DEFF6FC0DDFF010E706F705112000001B7
:101F8000706B716B6F516E1114E070516E25D96ECC
:101F900071516F21DA6EDF50F2EC10F0000909E0A8
:101FA000704B712B7151800A7D0FE80ED8B4705DB3
:101FB000ECE370C06EF071C06FF01200E8CF89F0F2
:101FC00089670DD006D0845102EF0BF0845175EF74
:101FD0000CF08351F8E0010AD8A41200F7D7895118
:101FE000020AD8B412008951030AD8A412007F0E45
:101FF0007E6FEF0E7D6FF9EF0EF07651751117E0E1
:10200000010E776F04D0D89075377637772B76AF7F
:10201000FAD77551735D7651745904E37551735F46
:102020007651745BD89076337533772FF2D773C0BF
:1020300073F074C074F01200E8CF88F08851D96E44
:10204000DA6ADECF74F0DECF75F0DDCF76F085C0D2
:1020500077F086C078F087C079F031EC0AF08851CB
:10206000D96EDA6A74C0DEFF75C0DEFF76C0DDFFB0
:10207000DD521200010E00016D6F000E6C6F6F6B70
:10208000640E6E6F9FEC0FF0716F020E00016D6FAA
:102090007F0E6C6F6F6B640E6E6F9FEC0FF07111A3
:1020A000726F72511200E8CF1BF01C6A35EC11F010
:1020B000000903E0C8EC10F00CD04CEC11F0000962
:1020C00008E01B50D96EDA6AAECFDFFF9E9A010E90
:1020D0001C6E1C501200706B716B6CA104D06E51A1
:1020E00070276F517123D8906E376F37D8906D334A
:1020F0006C336D516C11F1E170C06CF071C06DF01A
:102100001200E8CF6DF0080E6E6F6F6BD890000173
:102110006D356F356F6FD8906D376C516F5D02E321
:102120006C516F5F6E2FF2D76F51120074C06CF05C
:1021300075C06DF06E6B8E0E6F6F000E706BEAECFB
:102140000BF06CC074F06DC075F06EC076F01200CC
:10215000260EAC6E900EAB6EB86AB86A6C6B4B0E06
:102160006D6F000E6E6B53EC11F09D8A9E8A12000B
:10217000000E7CEC0FF01A500001626F040E1B6E13
:10218000500E1A6E000E1D6E620E1C6E6DEF07F083
:1021900008D0AB98AE50AE50AB884CEC11F00009B3
:1021A000FCE135EC11F00009D8B41200F2D7E8CF09
:1021B0006DF000016C6B2F0E6D6505D03A0E6D61F0
:1021C00002D0010E6C6F6C511200E8CF6DF06C6B99
:1021D000400E6D6505D05B0E6D6102D0010E6C6F17
:1021E0006C511200E8CF6DF06C6B1F0E6D6505D061
:1021F0007F0E6D6102D0010E6C6F6C511200010EEA
:10220000C26EC16A160EC06E630E7E6E7F6A9D8CB2
:1022100012006CC0F1F06DC0F2F0F251F111D8B4BF
:102220001200FBD7E8CF6CF048EC11F00009FCE09D
:102230006CC0ADFF1200926893687F6AC10E946E05
:10224000956A8B6A8C6A12000001F251F111D8B4C0
:102250001200F107D8A0F2071200E8CF6CF08F0E41
:10226000D3166C39F00BD3121200010E1A6EABA20A
:10227000ABB401D01A6A1A5012000301030E026EA9
:10228000000E016E120000C26CF001C26DF012006F
:10229000000E9EB8010E1200000E9EBA010E120032
:1022A000050E2DEF11F00C0EAF6E0C0CFF00FF00B1
:107D6000FF00FF00FF00FF00FF00FF0001000A000E
:107D70006400E80310277365740000000000000031
:107D800000000000000000000000030000676574B0
:107D900000000000000000000000000000000000E3
:107DA00000030100696E697400000000000000001B
:107DB000000000000000000004020073656C66749F
:107DC000657374000000000000000000000000085F
:107DD00003007369676E616C000000000000000022
:107DE000000000000000060403696D700000000040
:107DF0000000000000000000000000000003050378
:107E00007077720000000000000000000000000019
:107E100000000000030603706F7400000000000003
:107E2000000000000000000000000003070376656A
:107E300072000000000000000000000000000000D0
:107E40000000030803737461747573000000000080
:107E500000000000000000000006090361636300E9
:107E60000000000000000000000000000000000012
:107E7000030A0361647200000000000000000000BB
:107E800000000000000000030B036572726F7200B7
:107E90000000000000000000000000000000050CD1
:107EA0000364656661756C74730000000000000077
:107EB0000000000000080D036D6F6400000000006A
:107EC000000000000000000000000000030E017030
:107ED000726F66696C650000000000000000000021
:107EE000000000070F03707772747269670000006A
:107EF0000000000000000000000007100361636341
:107F000074726967000000000000000000000000BB
:107F100000071103747269676C6576000000000049
:107F2000000000000000000007120374726967730C
:107F3000756D000000000000000000000000000758
:107F4000130374726967636E740000000000000020
:107F5000000000000000071403776176746F6C6501
:107F600000000000000000000000000000071503F2
:107F700077617674726967000000000000000000FD
:107F8000000000000716037761766C636E740000D2
:107F900000000000000000000000000717037761E8
:107FA0007672636E740000000000000000000000A4
:107FB0000000071803696469640000000000000005
:107FC00000000000000000000004190370737770C7
:107FD00073770000000000000000000000000000B7
:107FE000061A0368656C6C6F003A65727220006552
:107FF00072720A003A6F6B20000A2564003100009B
:020000040020DA
:08000000FFFFFFFFFFFFFFFF00
:020000040030CA
:0E000000FF080815FF8D81FF0FC00FE00F40B5
:00000001FF
