:1000000078EF00F0FF00FF00E9CF13F0EACF14F023
:10001000D9CF15F0DACF16F0F6CF17F0F7CF18F0EA
:10002000F8CF19F0F5CF1AF0F2A401D001D007D023
:10003000E9EC10F0F294FE0ED76E0C0ED66E9EAA6E
:1000400001D001D003D078EC0EF09E9A9EAC01D086
:1000500001D003D040EC10F09E9C1AC0F5FF19C0EF
:10006000F8FF18C0F7FF17C0F6FF16C0DAFF15C07B
:10007000D9FF14C0EAFF13C0E9FF1100E9CF60F017
:10008000EACF61F0D9CF62F0DACF63F0F6CF64F057
:10009000F7CF65F0F8CF66F0F5CF67F0F2A401D0A6
:1000A00001D007D0E9EC10F0F294FE0ED76E0C0EE2
:1000B000D66E9EAA01D001D003D078EC0EF09E9AA5
:1000C0009EAC01D001D003D040EC10F09E9C67C0E4
:1000D000F5FF66C0F8FF65C0F7FF64C0F6FF63C0B8
:1000E000DAFF62C0D9FF61C0EAFF60C0E9FF11001A
:1000F000CFEF0DF020EE28F07051D9267151DA22A1
:1001000010EE63F07051E1267151E222E750686F02
:1001100010EE28F07051E1267151E222E7502BECED
:1001200010F0DF6E20EE28F07051D9267151DA22DE
:10013000DF504ADA72C0DEFF73C0DDFF20EE28F028
:100140007051D9267151DA22DF2A20EE58F0705111
:10015000D9267151DA2210EE29F0EDD910EE58F0BF
:10016000EAD972C0DEFF73C0DDFF846B856B866BDE
:1001700003D0865129DA3FDAEDD9865DFAE384C0EF
:1001800068F085C069F0E6D96A6F6B6BB5EC0CF06E
:1001900020EE56F0FDD920EE58F07051D92671515D
:1001A000DA22DECF68F0DDCF69F020EE58F0705132
:1001B000D9267151DA22DECF6AF0DDCF6BF015EC73
:1001C00010F068C074F069C075F020EE56F0705100
:1001D000D9267151DA22DECF68F0DDCF69F020EE4A
:1001E0005AF07051D9267151DA22DECF6AF0DDCF94
:1001F0006BF015EC10F06851745D766F69517559AC
:10020000776F20EE5CF07051D9267151DA2276C0FA
:10021000DEFF77C0DDFF76D975BF0BD020EE5CF036
:100220007051D9267151DA22DECF7AF0DDCF7BF022
:100230000BD020EE5CF07051D9265BD9744B752B36
:1002400074C07AF075C07BF020EE5FF07051D92653
:100250007151DA22DECF74F0DDCF75F07551800A6E
:10026000766F7A51745D7B51800A765916E2A3D974
:1002700074B113D020EE5EF07051D9267151DA229C
:10028000DF50746F74B509D020EE5EF07051D9263E
:100290007151DA22010EDF12010C8DD974A19BD0AD
:1002A00020EE5CF07051D9267151DA22DECF74F065
:1002B000DDCF75F075BF0BD020EE5CF07051D92604
:1002C0007151DA22DECF7CF0DDCF7DF00BD020EE55
:1002D0005CF07051D9260DD9744B752B74C07CF02D
:1002E00075C07DF07D51800A7D0FE80ED8B47C5D2D
:1002F00072E220EE54F07051DED8786F82D979BF67
:1003000009D020EE54F07051D6D87E6F75517759D0
:100310007F6F0BD020EE54F07051CDD865D9784B5B
:10032000792B78C07EF079C07FF01CD97F51800A8C
:10033000766F74517E5D7551800A76594CE2EDD826
:10034000CED8786F5ED979BF13D020EE54F07051BB
:10035000D9267151DA22DECF74F0DDCF75F020EEB0
:100360005AF07051BCD8806F75517759816F09D0A0
:10037000D4D8B5D839D9784B792B78C080F079C0EA
:1003800081F0F0D88151800A766F7451805D75518B
:10039000800A765920E2866B13D020EE58F0705117
:1003A000D9267151DA228651020DF3507025E16E83
:1003B000F4507121E26EDECFE6FFDDCFE5FF862B44
:1003C000C9D8865DEAE320EE5EF07051D9267151FE
:1003D000DA22FE0EDF1696D875BF0BD020EE5CF049
:1003E0007051D9267151DA22DECF82F0DDCF83F051
:1003F0000BD020EE5CF07051D9267BD8744B752B56
:1004000074C082F075C083F08351800A800F0A0E99
:10041000D8B4825D4FE220EE53F07051D92671516D
:10042000DA22090EDF6208D020EE5EF07051D92684
:100430007151DA22FB0EDF1620EE58F070519DD874
:10044000B0D8E16E000E7521E26EDECFE6FFDDCFA3
:10045000E5FF20EE53F0705190D8746F7429686FE7
:10046000696B000E692310EE64F07051E126715142
:10047000E222E7506A6F6B6B9BEC0DF06851DF6E08
:10048000846B856B866B07D086518BD8D96E000E36
:100490007521DA6EB0D8A0D8865DF6E384C068F026
:1004A00085C069F099D86A6F6B6BB5EC0CF020EEE3
:1004B00054F06ED8000CD9267151DA22DECF74F0D8
:1004C000DDCF75F020EE58F07051D9267151DA2247
:1004D000DECF76F0DDCF77F07451765D1200D9264D
:1004E0007151DA22DECF76F0DDCF77F07451765D90
:1004F00012007151DA22DECF74F0DDCF75F0741F77
:10050000751F120020EE5CF07051D9267151DA226D
:10051000DECF74F0DDCF75F0120020EE54F0705194
:10052000D9267151DA22DECF74F0DDCF75F020EEDE
:100530005AF0705112007051E1267151E222DECF63
:10054000E6FFDDCFE5FF20EE5AF07051D92671515C
:10055000DA22120020EE63F07051D9267151DA22AE
:10056000DF50120020EE61F07051D9267151DA226D
:10057000DECF74F0DDCF75F01200D9267151DA228A
:1005800010EE53F07051E1267151E222E750120053
:100590007051D9267151DA2268C0DEFF69C0DDFFD3
:1005A0001200020DF3507025746FF4507121756FB5
:1005B0002B0E7425120020EE5EF07051D926715179
:1005C000DA22DF50746F1200020DF3507025D96EDD
:1005D000F4507121DA6E120020EE64F07051D926C9
:1005E0007151DA22DF501200786F75517759796FA7
:1005F000781F791F1200DE508427DD508523862B5B
:10060000120075517759796F12009A6B9B6B9C6B36
:10061000986B996B14D0F8D8B0EC09F0E0D854EC92
:1006200010F070C084F071C085F072C086F0E2EC0A
:1006300006F081C09AF082C09BF083C09CF08FC00E
:10064000F6FFF8D8F8BA03D00800F55002D0ADECA8
:1006500008F0E6D805E09D5185EC10F00009DBE1DB
:100660009D512E0A9E1118E028D0CED8B0EC09F08A
:10067000B6D854EC10F070C084F071C085F072C030
:1006800086F0E2EC06F081C09AF082C09BF083C055
:100690009CF09807D8A099078FC0F6FFCBD8F8BA7E
:1006A00003D00800F55002D0ADEC08F0B9D805E051
:1006B0009D5185EC10F00009D8E19D51650A9E110D
:1006C00004E09D51450A9E116EE1956B010E946FF9
:1006D000966B976B8FC0F6FF90C0F7FF91C0F8FF45
:1006E000F8BA03D00800F55002D0ADEC08F084D879
:1006F0009D512B0A9E110FE18FC0F6FF90C0F7FFAE
:1007000091C0F8FFF8BA03D00800F55002D0ADEC64
:1007100008F072D829D09D512D0A9E1125E18FC075
:10072000F6FF90C0F7FF91C0F8FFF8BA03D00800B9
:10073000F55002D0ADEC08F05FD89469956914D0FB
:1007400096C068F097C069F06B6B0A0E6A6F15EC83
:1007500010F09D5168279E516923D00E6824966F32
:10076000FF0E6920976FC8D79D5185EC10F00009E6
:10077000E7E196C068F097C069F094C06AF095C050
:100780006BF015EC10F068519827695199230BD044
:10079000816B200E826F410E836F9A0E6FEC0FF00B
:1007A0009807D8A099079951800A800F010ED8B4F4
:1007B000985D0CE3EDD7CD0E816FCC0E826F3D0EB0
:1007C000836F9A0E6FEC0FF0984B992B99BFF3D76C
:1007D0009AC08FF09BC090F09CC091F0120070C046
:1007E00081F071C082F072C083F0D00E9D25706FD1
:1007F000FF0E9E21716F120000019D6F9E6B8F2B6B
:10080000000E90239123000C736B200E746F410E29
:10081000756F9AC070F09BC071F09CC072F0410C73
:1008200000019D6F9E6B9DC092F09EC093F093510E
:100830009211120090C0F7FF91C0F8FF8F2B000EAD
:1008400090239123000CE8CF74F06A51685D6B51DE
:100850006959800B07E16A51685D706F6B51695986
:10086000716F10D068C06CF069C06DF06A516C5F38
:100870006B516D5B6C1F6D1F6C4B6D2B6CC070F002
:100880006DC071F07451D96EDA6A70C0DEFF71C04C
:10089000DDFF7451D96EDA6A7451E16EE26A130EAB
:1008A000A6D802E1DF50E75C03E3726B736B17D0ED
:1008B0007451D96EDA6A130ED926DA6ADECF6CF07B
:1008C000DDCF6DF07451D96EDA6ADECF6EF0DDCF18
:1008D0006FF06C516E5D726F6D516F59736FB1D85F
:1008E00072C0DEFF73C0DDFF8DD8DF506C6F6CA56A
:1008F0005DD07451D96EDA6A080ED926DA6ADE2A1A
:10090000000EDD229ED8DECF6CF0DDCF6DF081D8F9
:100910006C51DE266D51DD227CD87451E16EE26AA5
:10092000110E65D802E1DF50E75C31E26BD8DF5091
:100930006C6F6CB12CD07451D96EDA6A0E0ED92658
:10094000DA6AFB0EDF165ED8010EDF12745170D822
:100950000C0EE126E26ADECFE6FFDDCFE5FF59D8D7
:100960007451E16EE26A0A0EE126E26ADECFE6FF2A
:10097000DDCFE5FF7451D96EDA6A080ED926DA6A3E
:10098000DE6ADD6A46D8000EDE6EDD6E010C745143
:100990004FD80F0E2CD802E1DF50E75C27E232D8A7
:1009A000FB0EDF162FD8FE0EDF16000C4AD874514E
:1009B000E16EE26A130E1BD802E1DF50E75C16E23B
:1009C00021D8040EDF121ED8FE0EDF167451D96E28
:1009D000DA6A0C0E25D80A0E23D8080ED926DA6A50
:1009E000DE6ADD6A16D8000EDE6EDD6E000CE126D2
:1009F000E26AE652DE52E550800A6C6FDD50800AF2
:100A00006C5D12007451D96EDA6A0E0ED926DA6A5C
:100A100012007451D96EDA6A060ED926DA6A12000B
:100A2000D926DA6ADE6ADD6A7451D96EDA6A120092
:100A3000D96EDA6A080ED926DA6A7451E16EE26A72
:100A400012007451D96EDA6A040ED926DA6A1200DD
:100A5000A46BA0519F1101E1D5D09FC0A5F0A0C00B
:100A6000A6F0A96BAA6BAB6B9FC06AF0A0C06BF03D
:100A700031EC0FF06AC0A7F06BC0A8F09FC068F01F
:100A8000A0C069F03D0E6A6F27EC0EF068C0ADF0B3
:100A900069C0AEF0AEBF1BD0AE51800AA26FA751A5
:100AA000AD5DA851800AA25912E29FC0A2F0A0C079
:100AB000A3F0AD51A227AE51A323A22B000EA32376
:100AC000A251A96FA351AA6F200EAB6F04D0A7C08B
:100AD000ADF0A8C0AEF0030E0001696F000E686FA4
:100AE000A5C06AF0A6C06BF0ADC06CF0AEC06DF0F2
:100AF00050EC0EF0000E0001AD25D96E030EAE21B4
:100B0000DA6EDF6AAC6BAC51170D140E7DD808009D
:100B1000F550A26FA36BA2BFA307AE51A31902E1C8
:100B2000AD51A2196AE1AC51170D720EF3246A6F30
:100B30007D0EF4206B6FA5C06CF0A6C06DF0ADC04B
:100B40006EF0AEC06FF0000E706B58EC0BF0000949
:100B500054E0A1510AE0AC51170D150E55D8A15122
:100B6000D96EDA6A0800F5CFDFFFA951AA11AB11DF
:100B700040E0AC51170D160E47D80800F5CFC6F06F
:100B80002CD0A9C06EF0AAC06FF0ABC070F02FECF3
:100B900008F06EC000F26FC001F22BD0A9C08FF038
:100BA000AAC090F0ABC091F005EC03F08FC000F24A
:100BB00090C001F291C002F21CD0020E00016F6FD2
:100BC000000E6E6F020E716F000E706FA3EC0BF0D3
:100BD00010D00201006B016B0CD0C651010A09E074
:100BE000030AEBE0010ACDE0060ACBE0030AD6E0F7
:100BF000F0D7010E0001A46F05D0AC2BAC51800AD8
:100C0000650F81E3A4511200F326000EF422720E48
:100C1000F324F66E7D0EF420F76E1200E8CF8DF00F
:100C20008D67C4D0C56BBBD008EC11F068C0C3F0B1
:100C300069C0C4F0C351BAEC10F008D008EC11F050
:100C400068511BEC11F002D01CEC11F0C56F20D0E4
:100C50008951040A1DE0030AE7E00A0AF5E0030AE5
:100C600017E0010AEBE01F0A13E0010A11E0030A92
:100C70000FE0010A0DE0070A0BE0010A09E0030A90
:100C800007E0010A05E00F0AD8A4010AD8A4030A64
:100C900002EC11F001C078F002C079F000019FEC85
:100CA0000EF00001C55104E07F0E796FF50E01D002
:100CB00072D0786FADEF0EF0C56B02EC11F001C091
:100CC00078F002C079F000019FEC0EF033D07F0E77
:100CD0007A6FEB0E796F010E8DEC0FF000017B6FD8
:100CE0007C6B2DEC0AF0010EC56F53D07F0E7A6F2E
:100CF000FA0E796F010E8DEC0FF000017B6F7C6BAB
:100D00002DEC0AF0F0D77F0E7A6FEB0E796F020EA2
:100D10008DEC0FF000017B6F7C6B2DEC0AF0E3D7BC
:100D20007F0E7A6FFA0E796FE3C07BF07C6B2DEC4F
:100D30000AF0D9D700018951040AC9E0010AD6E0B6
:100D4000030AE1E0010AECE00F0A23E0010A21E0D6
:100D5000030A1FE0010A1DE0070A1BE0010A19E06F
:100D6000030A17E0010A15E01F0A13E0010A11E067
:100D7000030A0FE0010A0DE0070A0BE0010A09E08F
:100D8000030A07E0010A05E00F0AD8A4010AD8A463
:100D9000030AC56712007F0E796FE50E8AD7885166
:100DA00001E156D7010AD8A4120086D78D51020A54
:100DB000D8B412008D51030AD8A412007F0E796FA7
:100DC000F00E77D70F0E876F81C088F082C089F050
:100DD00083C08AF087298B6F01D0A9D88B2FFDD7CC
:100DE00088518E6F0F0E876F84C088F085C089F0A0
:100DF00086C08AF087298B6F01D099D88B2FFDD7B9
:100E000088518D6F8E5109E08D518E610DD08E51BC
:100E10008D5D876F190E875D07E384C081F085C003
:100E200082F086C083F012008D5109E08E518D61F1
:100E30000DD08D518E5D876F190E875D07E381C0E0
:100E400081F082C082F083C083F01200060E8C6FA6
:100E500083BF8C8F86BF8C8D828F836B858F866BD3
:100E60008D518E6117D0D8908437853786378D079E
:100E70008D518E190BE08C0700018C51070B06E099
:100E8000F2D7D8908333823381338E2B8D518E638A
:100E9000F8D719D08E518D6116D0D890813782370E
:100EA00083378E078D518E190BE08C0700018C5112
:100EB000070B06E0F2D7D8908633853384338D2B29
:100EC0008D518E63F8D78CAF07D0811F821F831F8F
:100ED000812B000E822383238CAD02D0841F20D867
:100EE0008C6B81518427825185238351862386AF61
:100EF00004D0841F15D8010E8C6F84C068F085C0A3
:100F000069F086C06AF08EC06BF08CC06CF0EDECBE
:100F10000BF068C081F069C082F06AC083F01200F3
:100F2000851F861F842B000E85238623000CD890F6
:100F30008A33893388331200D46B050E0001696F40
:100F4000000E686FD0C16AF0D1C16BF0D2C16CF0F5
:100F5000D3C16DF0000E6E6B36EC0CF068510101E0
:100F6000D86F0001F469F5690201006B0301006BA1
:100F70000101D851800A7F0F5BE3D56BD8C1D4F152
:100F800053D0000E0101D525D66FD76B050ED723A0
:100F9000D56718D0D6C19FF0D7C1A0F00001F40EDC
:100FA000A16F28EC05F0000903E10101D46B40D0EA
:100FB000F4C088F089698A6B8B6B8C6B010E0EEC28
:100FC00006F028D0D6C19FF0D7C1A0F00001F50EE1
:100FD000A16F28EC05F0AF6FAF050FE1F4C088F00A
:100FE000F5C089F0000E00018A6F020E8B6F200E93
:100FF0008C6F000E0EEC06F00DD0F4C088F08969FD
:10100000000E00018A6F030E8B6F200E8C6F000E96
:101010000EEC06F0D6C16AF0D7C16BF0000131ECDE
:101020000FF06A290101D527D8070101D829A9E1C4
:10103000D451800A7F0F0AE3F4C088F00001896967
:101040008A6B8B6B8C6B020E0EEF06F000018869C9
:1010500089698A6B8B6B8C6B030E0EEF06F0766BD7
:10106000776B756B010E746F6EC0F6FF6FC0F7FF84
:1010700070C0F8FFF8BA03D00800F55001D06DD861
:101080002B0A0EE06EC0F6FF6FC0F7FF70C0F8FFCE
:10109000F8BA03D00800F55001D05FD82D0A3DE121
:1010A0006EC0F6FF6FC0F7FF70C0F8FFF8BA03D04C
:1010B0000800F55001D051D82D0A03E100017469F0
:1010C000756900016E2B000E6F23702326D076C049
:1010D00068F077C069F06B6B0A0E6A6F15EC10F060
:1010E00068C076F069C077F06EC0F6FF6FC0F7FF9A
:1010F00070C0F8FFF8BA03D00800F55001D02DD821
:101100000001716FD00E7125726F736BFF0E732328
:101110007251762773517723D4D700016EC0F6FF42
:101120006FC0F7FF70C0F8FFF8BA03D00800F550A1
:1011300001D013D885EC10F00009C9E176C068F041
:1011400077C069F074C06AF075C06BF015EC10F0F0
:1011500068C06EF069C06FF01200F6CFE9FFF7CFFC
:10116000EAFFEF50120020EE02F073D868C0D9FFFA
:1011700069C0DAFFDECF6EF0DDCF6FF06C516E5DCF
:10118000746F6D516F59756F75AF0AD020EE04F012
:101190006851D9266951DA22DE507427DD50752353
:1011A00020EE04F056D8FF0E6C256E6FFF0E6D21F9
:1011B0006F6F7551800A706F6E51745D6F51800A48
:1011C0007059D8B0120068C0D9FF69C0DAFFDECF0D
:1011D00076F0DDCF77F068C06CF069C06DF07651C5
:1011E0006C2777516D23060E6C27000E6D236CC0A3
:1011F00072F06DC073F06AC0F6FF6BC0F7FFF86A5B
:1012000072C0D9FF73C0DAFF050EF76403D008007F
:10121000F55002D0ADEC08F0DF6E0001764B772B75
:1012200020EE04F06851D9266951DA22DE52775156
:10123000DD1876C0E8FFD8B4DF1802E1766B776B73
:1012400068C0D9FF69C0DAFF76C0DEFF77C0DDFF76
:1012500012006851D9266951DA22DECF6CF0DDCF59
:101260006DF0120020EE02F072D81BC0D9FF1CC036
:10127000DAFFDECF21F0DDCF22F01F50215C276E98
:1012800020502258286E28AE0AD020EE04F01B50C1
:10129000D9261C50DA22DE502726DD50282220EEE7
:1012A00004F055D8FF0E1F24216EFF0E2020226E61
:1012B0002850800A236E2150275C2250800A235830
:1012C000D8B012001BC0D9FF1CC0DAFFDECF29F056
:1012D000DDCF2AF01BC01FF01CC020F029501F26B4
:1012E0002A502022060E1F26000E20221FC025F0A5
:1012F00020C026F01DC0F6FF1EC0F7FFF86A25C00B
:10130000D9FF26C0DAFF050EF76403D00800F550B8
:1013100002D0ADEC08F0DF6E294A2A2A20EE04F054
:101320001B50D9261C50DA22DE522A50DD1829C063
:10133000E8FFD8B4DF1802E1296A2A6A1BC0D9FF86
:101340001CC0DAFF29C0DEFF2AC0DDFF12001B50DF
:10135000D9261C50DA22DECF1FF0DDCF20F012009C
:101360000F0E766F70C077F071C078F072C079F0B0
:1013700076297A6F01D06CD87A2FFDD777517B6FA1
:1013800000017B6704D0706B716B726B12000F0EE3
:10139000766F73C077F074C078F075C079F07629F5
:1013A0007A6F01D055D87A2FFDD77751806F000121
:1013B000806704D0706B716B726B120080517B0F71
:1013C0007B2772C080F000017551801B800E801752
:1013D000718F748F000E75177C6B7D6B7E6B070EA3
:1013E0007F6F70A102D073512DD8D89072337133B2
:1013F0007033D8907337743775377F2FF2D7090E53
:101400007F6F70A102D073511DD8D89072337133A1
:101410007033D8907E337D337C337F2FF2D77CC0FE
:1014200068F07DC069F07EC06AF07BC06BF080C060
:101430006CF0EDEC0BF068C070F069C071F06AC040
:1014400072F012007C2774517D2375517E231200A7
:10145000D89079337833773312007B0E7F6F5CD06E
:101460008751250A04E08751ADEC10F055D0806B10
:1014700057D88751D8B41200640AD8A40D0A4CE199
:101480007F51D96EDA6ADECF82F0DDCF83F0020EB3
:101490007F2783AF06D0030E8013826D831FD8B0E1
:1014A000832B010E876F875146D8F5CF7DF0090059
:1014B000F5CF7EF07D51825D7E51835904E3872B09
:1014C0008751050AF0E18051030B03E02D0EADECCE
:1014D00010F087C081F01CD081512DD8F5CF6AF073
:1014E0000A00F5CF6BF082C068F083C069F0E9ECC8
:1014F0000EF068C06FF069C070F0726B0A0E716F09
:1015000050EC0FF06F51300F876F8751ADEC10F03A
:10151000810700018129E0E103D88767A1D7120084
:1015200079C0F6FF7AC0F7FF794B7A2B0800F5CF28
:1015300087F000011200020D680EF324F66E7D0E96
:10154000F420F76E0900120006D0030E696FE80E52
:10155000686FC5EC10F00EEC0FF0B06FB005F5E160
:10156000F28EF28C0101DC69DD69DE6BDE51350F34
:10157000D96EDA6A010EDF6211D0DE512D0FD96EFD
:10158000DA6ADF5003E1DEC1DCF105D0DE512D0F58
:10159000D96EDA6ADF06DDBFDEC1DDF1DE2B070EB4
:1015A000DE65E4D7DCBF11D0DC5127D801D80AD0E2
:1015B0000500FA6EDE50FD6EDE50FE6EF850FF6ED6
:1015C000FA5012000101DC5112D0DDBF14D0DD5100
:1015D00014D801D80AD00500FA6EDE50FD6EDE5038
:1015E000FE6EF850FF6EFA5012000101DD51350F0A
:1015F000D96EDA6ADF6A0400B5D7020DF350000134
:10160000B10FD96EDA6A1200706B20EE02F06851E9
:10161000D9266951DA22DECF71F0DDCF72F068C0D1
:10162000D9FF69C0DAFFDECF6EF0DDCF6FF06F510A
:10163000721902E16E51711939E068C06CF069C02D
:101640006DF071516C2772516D23060E6C25D96EA9
:10165000000E6D21DA6E6AC0E1FF6BC0E2FFDFCFE2
:10166000E7FF714B722B20EE02F06851D9266951C9
:10167000DA2271C0DEFF72C0DDFF20EE04F0685197
:10168000D9266951DA22DE527251DD1871C0E8FFA5
:10169000D8B4DF1809E120EE02F06851D92669516B
:1016A000DA22000EDE6EDD6E010E706F70511200D8
:1016B000736B6B516A1145E06D516C1142E0746BB4
:1016C000756B37D06AC071F06BC072F074517127BE
:1016D0007551722371C0F6FF72C0F7FF0800F5CF95
:1016E00076F074516C25D96E75516D21DA6EDF502C
:1016F000776F70670ED0765193EC10F0000902E01E
:10170000200E7627775193EC10F0000902E0200EAE
:1017100077277651771906E076513F0A03E0775133
:101720003F0A03E1010E736F02D0736B0AD0744B52
:10173000752B6E07D8A06F0700016E29D8B46F29EA
:10174000C1E173511200796B7A6B776B786B70C063
:101750006AF071C06BF031EC0FF06AC075F06BC0CD
:1017600076F02AD077516E25D96E78516F21DA6ED6
:1017700070C072F071C073F0795172277A5173237F
:101780007229E16E000E7321E26EE7502CEC0DF031
:10179000746F79517025E16E7A517121E26EE750D4
:1017A0002CEC0DF0100DF3507425DF6E020E79272E
:1017B000000E7A23774B782BFF0E7525726FFF0E84
:1017C0007621736F7A51800A746F7251795D73510B
:1017D000800A7459D8B01200C5D76B5104E0685123
:1017E00069116A1106E1686B696B6A6B12006B2BF9
:1017F00038D86D6B6E6BFE0E6A156F6F6D516E1182
:101800006F1107E0F4D76B2B682B000E69236A2356
:1018100028D86D6B6E6B6A516F6F6D516E116F11C1
:1018200006E0F1D76B07D890683769376A3769AF38
:10183000F9D76BA1699FD8906B336B516F6F6E6B4B
:101840006D6B6D5168136E5169136F516A136C5152
:10185000D8A46A8F68C068F069C069F06AC06AF08D
:101860001200D8906A336933683312006F6B706B63
:10187000716B726B200E736F6F516A25D96E705148
:101880006B21DA6EDF50746F7451200A03E06D51E2
:101890006C110EE17351200A13E068C0D9FF69C0D2
:1018A000DAFF6EC0DFFF684B692B714B722B08D0DB
:1018B00068C0D9FF69C0DAFF74C0DFFF684B692BCD
:1018C0006D516C1108E06C07D8A06D076F4B702B41
:1018D00074C073F0D1D768C0D9FF69C0DAFF6EC099
:1018E000DFFF684B692B71C068F072C069F01200AD
:1018F0000BD0030E0101D16F7F0ED06FDAC1D2F190
:10190000DBC1D3F19CEC07F0020E0001746F7F0E77
:10191000736F030E766F7F0E756F010E786FDA0EA0
:10192000776F66EC0DF0000910E0E3D7010E0001BF
:10193000696F000E686F010E6B6FD90E6A6F04EC51
:101940000BF00101D951CEEC10F0010E0001696FCE
:10195000000E686FFEEC0DF06951800A800F010ED9
:10196000D8B4685DD8A01200E1D76D6B6BAF06D01C
:101970006A6D6B1FD8B06B2B010E6D6F69AF06D00F
:10198000686D691FD8B0692B010E6D1B6E6B6F6B94
:101990006B516A111BE0010E6C6F04D0D8906A374E
:1019A0006B376C2B6BAFFAD7D8906E376F376A51A5
:1019B000685D6B51695905E36A51685F6B51695BFA
:1019C0006E81D8906B336A336C2FEED76D5104E083
:1019D0006E6D6F1FD8B06F2B6EC068F06FC069F06E
:1019E0001200010E0001716F6B0E706FC1C072F0BA
:1019F000C2C073F07AEC00F0CA6FBFC187F000017B
:101A0000C0C188F0896B88BF8907C1C068F0C2C0B7
:101A100069F087C06AF088C06BF0CB0E23EC04F04D
:101A2000C96F000ED9B5010EC86F08D0C76B0DD0B5
:101A3000C9C0C7F00AD0CAC0C7F007D0E751F6E066
:101A4000010AF6E0030AF7E0F1D7C751D8A4D8801D
:101A5000C851D8A4D8821200E8CF68F009D06851E4
:101A6000D00F12006851A90F12006851C90F12005F
:101A70006851300AF4E0010AF2E0030AF0E0010ADA
:101A8000EEE0070AECE0010AEAE0030AE8E0010AF6
:101A9000E6E00F0AE4E0010AE2E0780AE6E0030A81
:101AA000E4E0010AE2E0070AE0E0010ADEE0030AFE
:101AB000DCE0270AD7E0030AD5E0010AD3E0070AF1
:101AC000D1E0010ACFE0030ACDE0000C77C0D9FFD6
:101AD00078C0DAFFDE6ADD6A765175111FE1000C0D
:101AE00079510A0A03E079510D0A09E1754B762B09
:101AF00075C0D9FF76C0DAFF000EDF6E010C75C02D
:101B0000D9FF76C0DAFF79C0DFFF754B762B77C03F
:101B1000D9FF78C0DAFFDE2A000EDD2273C068F03C
:101B200074C069F0000E6B6F790E6A6F04EC0BF0F5
:101B30000009D6E1010C6D6B69AF06D0686D691FB5
:101B4000D8B0692B010E6D6F6BAF04D06A6D6B1F3F
:101B5000D8B06B2B6B516A1117E0010E6C6F04D07B
:101B6000D8906A376B376C2B6BAFFAD76A51685DC8
:101B70006B51695904E36A51685F6B51695BD89096
:101B80006B336A336C2FF2D76D5104E0686D691FB7
:101B9000D8B0692B68C068F069C069F0120005EE22
:101BA00000F07F0EEE6AE806FDE104EE00F0BB0EE9
:101BB000EE6AE806FDE103EE00F0E30EEE6AE806E9
:101BC000FDE102EE00F0EA0EEE6AE806FDE101EE4C
:101BD00000F0D00EEE6AE806FDE100EEB1F0450E31
:101BE000EE6AE806FDE100EE2DF0160EEE6AE8065C
:101BF000FDE1000EF86E0001A4EF0AF020EE02F005
:101C00006851D9266951DA22DECF6AF0DDCF6BF058
:101C100068C0D9FF69C0DAFFDECF6CF0DDCF6DF0B0
:101C20006A516C5D6E6F6B516D596F6F6FAF0AD0FB
:101C300020EE04F06851D9266951DA22DE506E2771
:101C4000DD506F236EC068F06FC069F012006B69E1
:101C50006C696951681118E06D6B6E6B0BD019D807
:101C60006A51DF6205D06DC06BF06EC06CF00CD0B5
:101C70006D4B6E2B6E51800A7D0FE80ED8B46D5DF2
:101C800003E207D8DF50EBE16BC068F06CC069F08D
:101C900012006D516825D96E6E516921DA6E1200FD
:101CA0006E696F696B516A11D8B4120010D06E4B17
:101CB0006F2B6AC0D9FF6BC0DAFF68C0E1FF69C053
:101CC000E2FFDFCFE7FF6A4B6B2B684B692B6AC0E3
:101CD000D9FF6BC0DAFFDF5008E06C07D8A06D07B2
:101CE00000016C29D8B46D29E2E16E4B6F2B120014
:101CF00011EC11F00009D8B412002C0EFDEC0FF01D
:101D00002B6E2B0410E10201020E1C6E7F0E1B6E67
:101D10002C0E1D6E000E1E6E0F0E1E6E5F0E1D64CD
:101D20001E6A32EC09F02C500A0A04E02C500D0A0D
:101D3000D8A41200010E3A6E0A0E326E0A0C0DD0B3
:101D4000010E0001696F000E686F78C06AF079C0FB
:101D50006BF0B3EC08F0784B792B000179517811D6
:101D6000D8B412007851F66EE96E050EEA6E79511C
:101D7000EA6403D0EA6EEF5003D0F76E0800F55026
:101D80000009D8B41200DCD76E6B695168111FE0EE
:101D900020EE02F06851D9266951DA22DE6ADD6A46
:101DA00068C0D9FF69C0DAFFDE6ADD6A6A296C6F34
:101DB000000E6B216D6F20EE04F06851D926695139
:101DC000DA226CC0DEFF6DC0DDFF010E6E6F6E515A
:101DD00012006D6B6E6B6B516A111BE0010E6C6F24
:101DE00004D0D8906A376B376C2B6BAFFAD7D8908A
:101DF0006D376E376A51685D6B51695905E36A51F9
:101E0000685F6B51695B6D81D8906B336A336C2F5F
:101E1000EED76DC068F06EC069F012000001716B02
:101E2000E0EC10F015EC11F0D7EC10F066EC10F0CF
:101E3000180EBC6FF00EBB6F190EB66FE20EB56FC9
:101E40007F0E6A6FDF0E696F6C6B640E6B6FAAECAE
:101E50000FF0E4EC0FF0000902E0010E716F715118
:101E6000120000016C6B6D6B6B516A1114E06C51C8
:101E70006A25D96E6D516B21DA6EDF50A0EC10F03F
:101E8000000909E06C4B6D2B6D51800A7D0FE80E47
:101E9000D8B46C5DECE36CC06AF06DC06BF01200FE
:101EA0007251711117E0010E736F04D0D890713721
:101EB0007237732B72AFFAD771516F5D72517059CF
:101EC00004E371516F5F7251705BD890723371335C
:101ED000732FF2D76FC06FF070C070F01200E8CFB0
:101EE00084F08451D96EDA6ADECF70F0DECF71F003
:101EF000DDCF72F081C073F082C074F083C075F0E2
:101F0000B0EC09F08451D96EDA6A70C0DEFF71C09E
:101F1000DEFF72C0DDFFDD521200E8CF69F0C23093
:101F2000E8320F0B691910E069C068F0684768472C
:101F3000C2506819C30B6819C26E00F000F000F0BF
:101F400000F000F000F000F0C282C2B2FED79E9C0A
:101F5000C35012000AD069C0F6FF6AC0F7FF08003C
:101F6000F550CEEC10F0694B6A2B6B07D8A06C07CC
:101F700000016B29D8B46C29D8B4120069C0F6FFEF
:101F80006AC0F7FF0800F550D8B41200E4D7E8CFD4
:101F90001CF0C230E8320F0B1C1810E01CC01BF004
:101FA0001B461B46C2501B18C30B1B18C26E00F009
:101FB00000F000F000F000F000F000F0C282C2B2C9
:101FC000FED79E9CC3501200010E0001696F000EE7
:101FD000686F6B6B640E6A6FC4EC0EF06F6F020E6D
:101FE0000001696F7F0E686F6B6B640E6A6FC4ECE3
:101FF0000EF06F11706F70511200E8CF1CF01D6A67
:10200000FAEC10F0000903E076EC10F00CD011ECC3
:1020100011F0000908E01C50D96EDA6AAECFDFFF7C
:102020009E9A010E1D6E1D5012006C6B6D6B68A1A7
:1020300004D06A516C276B516D23D8906A376B3787
:10204000D8906933683369516811F1E16CC068F068
:102050006DC069F01200E8CF69F0080E6A6F6B6B13
:10206000D890000169356B356B6FD890693768512E
:102070006B5D02E368516B5F6A2FF2D76B51120000
:10208000000EC7EC0FF02B6E0401040E1C6E500EF8
:102090001B6E2B0E1D6E000E1E6E0F0E1E6E5F0E43
:1020A0001D641E6A32EF09F070C068F071C069F0FB
:1020B0006A6B8E0E6B6F000E6C6BEDEC0BF068C0F4
:1020C00070F069C071F06AC072F01200260EAC6E3A
:1020D000900EAB6EB86AB86A686B4B0E696F000EF3
:1020E0006A6B18EC11F09D8A9E8A120008D0AB989A
:1020F000AE50AE50AB8811EC11F00009FCE1FAECE7
:1021000010F00009D8B41200F2D7E8CF69F000014E
:10211000686B2F0E696505D03A0E696102D0010E19
:10212000686F68511200E8CF69F0686B400E69650E
:1021300005D05B0E696102D0010E686F6851120014
:10214000E8CF69F0686B1F0E696505D07F0E696185
:1021500002D0010E686F68511200E8CF78F0010ECE
:102160000001696F000E686F000E6B6F780E6A6F6A
:10217000B3EF08F0E8CF68F0100E6861000C68510A
:102180000F0B8C6E68C0E3F0010C68C0F6F069C0FC
:10219000F7F0F751F611D8B41200FBD7E8CF68F08A
:1021A0000DEC11F00009FCE068C0ADFF1200010E5B
:1021B000C26EC16A080EC06E630E7E6E7F6A120028
:1021C000926893687F6AC10E946E956A8B6A8C6A76
:1021D00012000001F751F611D8B41200F607D8A08A
:1021E000F7071200E8CF68F08F0ED3166839F00BAE
:1021F000D3121200010E1B6EABA2ABB401D01B6A4E
:102200001B5012000301030E026E000E016E12003D
:1022100000C268F001C269F01200000E9EB8010E03
:102220001200000E9EBA010E1200050EF2EF10F021
:102230000C0EAF6E0C0C010C010CFF00FF00FF0038
:107D6000FF00FF00FF00FF0001000A006400E803BD
:107D70001027736574000000000000000000000080
:107D800000000000000003000067657400000000B0
:107D900000000000000000000000000000030100DF
:107DA000696E69740000000000000000000000001F
:107DB0000000000004020073656C66746573740053
:107DC00000000000000000000000000803007369CC
:107DD000676E616C00000000000000000000000001
:107DE0000000060403696D70000000000000000040
:107DF000000000000000000000030503707772001F
:107E00000000000000000000000000000000000072
:107E1000030603706F740000000000000000000003
:107E200000000000000000030703766572000000F8
:107E30000000000000000000000000000000030837
:107E4000037374617475730000000000000000008B
:107E500000000000000609036163630000000000E9
:107E6000000000000000000000000000030A0361A1
:107E7000647200000000000000000000000000002C
:107E8000000000030B036572726F720000000000B7
:107E900000000000000000000000050C036465669F
:107EA00061756C74730000000000000000000000A9
:107EB00000080D036D6F640000000000000000006A
:107EC0000000000000000000030E0170726F666980
:107ED0006C650000000000000000000000000007CA
:107EE0000F03707772747269670000000000000071
:107EF000000000000000071003616363747269678B
:107F00000000000000000000000000000007110356
:107F1000747269676C657600000000000000000064
:107F2000000000000712037472696773756D00002A
:107F3000000000000000000000000007130374723E
:107F40006967636E7400000000000000000000001C
:107F50000000071403776176746F6C650000000001
:107F60000000000000000000000715037761767430
:107F700072696700000000000000000000000000BF
:107F80000716037761766C636E74000000000000D2
:107F90000000000000000007170377617672636E2F
:107FA000740000000000000000000000000007183E
:107FB0000369646964000000000000000000000024
:107FC00000000000000419037073777073770000DD
:107FD000000000000000000000000000061A036816
:107FE000656C6C6F003A65727220003D25640A0072
:107FF0006572720A003A6F6B20003D256400000034
:020000040020DA
:08000000FFFFFFFFFFFFFFFF00
:020000040030CA
:0E000000FF080815FF8D81FF0FC00FE00F40B5
:00000001FF
