:1000000014EF00F0FF00FF00F2A401D001D00BD0EC
:10001000F2AA01D001D007D0FE0ED76E0C0ED66E1C
:10002000F2943EEC01F0110074EF00F0496A010E09
:100030004A6E486A4B6A4B50070DF350020FD96E57
:10004000DA6ADE50DD101EE14A5044144A181AE103
:10005000486605D0010E486E4BC049F013D04B5096
:10006000070DF350010FD96EDA6ADF2A4B50070DE6
:10007000F350010FD96EDA6ADF504B6003D04BC0EA
:1000800049F006D0D8904A364B2A070E4B64D3D796
:100090004950120049504810D8B4120020EE02F026
:1000A0004850D9264950DA22DE6ADD6A48C0D9FFB5
:1000B00049C0DAFFDE6ADD6A4A284D6E000E4B2029
:1000C0004E6E20EE04F04850D9264950DA224DC039
:1000D000DEFF4EC0DDFF20EE06F04850D926495025
:1000E000DA224CC0DFFF120004EE00F0950EEE6A3B
:1000F000E806FDE103EE00F0CF0EEE6AE806FDE152
:1001000002EE00F07F0EEE6AE806FDE101EE00F07F
:10011000FE0EEE6AE806FDE100EE60F0880EEE6A83
:10012000E806FDE100EE01F0470EEE6AE806FDE1AB
:10013000000EF86E0001F9EF00F0E8CF4AF0080E6B
:100140004A60080C4A50070DF350040FD96EDA6A62
:10015000DE50DD10D8B412004A50070DF350040FE2
:10016000D96EDA6ADECF48F0DDCF49F04AC000F040
:100170000500FA6E4850FD6E4950FE6EF850FF6E55
:10018000FA501200E8CF4AF0080E4A60080C4AC044
:1001900048F0010E496E482A02D0D8904936482EC0
:1001A000FCD7491C44164A50070DF350060FD96E70
:1001B000DA6ADE6ADD6A4A50070DF350010FD96E24
:1001C000DA6A000EDF6E000C2DEC01F051EC01F04C
:1001D00024EC01F046EC01F00301030E496E000E21
:1001E000486E4B6AC80E4A6E000E4C6A4AEC00F02C
:1001F000000CE4EC00F08C8E8C8CFFD7030E496E63
:10020000E80E486E1BEC01F0E4EC00F0516E510476
:10021000F5E10DEC01F00400FCD74DEC01F0000914
:10022000D8A4120016EC00F04C6E4C509DEC00F07F
:100230004C50C2EF00F048C041F049C042F042507B
:100240004110D8B41200FBD7010EC26EC16A900EE5
:10025000C06E630E7E6E7F6A1200926893687F6A3A
:10026000C10E946E956A8B6A8C6A1200E8CF48F0D2
:100270008F0ED3164838F00BD312120042504110A3
:10028000D8B412004106D8A042061200260EAC6E69
:10029000900EAB6EB86AB86A1200445001E1010CCE
:1002A000000C050E36EF01F0FF00FF00FF00FF001D
:107D8000FF00FF00FF007369676E616C0000000078
:107D9000000000000000000000000003696D70009A
:107DA00000000000000000000000000000000000D3
:107DB0000103707772000000000000000000000066
:107DC0000000000000000203706F7400000000005B
:107DD00000000000000000000000000003037665C2
:107DE0007200000000000000000000000000000021
:107DF00000000403737461747573000000000000D8
:107E00000000000000000000050361636300000043
:107E10000000000000000000000000000000070358
:107E2000616472000000000000000000000000001B
:107E30000000000008036572726F7200000000000D
:107E40000000000000000000000006036465666199
:107E5000756C74730000000000000000000000005A
:107E600009036D6F640000000000000000000000C6
:107E70000000000000000A0170726F66696C650006
:107E80000000000000000000000000000B037077FD
:107E900072747269670000000000000000000000BA
:107EA00000000C03616363747269670000000000E6
:107EB00000000000000000000D03747269676C652B
:107EC00076000000000000000000000000000E032B
:107ED0007472696773756D00000000000000000097
:107EE000000000000F0374726967636E7400000085
:107EF00000000000000000000000100377617674AD
:107F00006F6C650000000000000000000000000031
:107F10001103776176747269670000000000000049
:107F200000000000000012037761766C636E74003D
:107F30000000000000000000000000001303776153
:107F40007672636E74000000000000000000000004
:107F50000000140369646964000000000000000070
:107F60000000000000000000150370737770737745
:107F700000000000000000000000000000001603E8
:107F80001D1D0000000000000000000000000000B7
:107F900000000000FF007365740000000000000096
:107FA0000000000000000000000000676574000091
:107FB00000000000000000000000000000000001C0
:107FC000696E6974000000000000000000000000FD
:107FD000000000000273656C667465737400000035
:107FE000000000000000000000031D1D0000000054
:107FF0000000000000000000000000000000000081
:020000040020DA
:08000000FFFFFFFFFFFFFFFF00
:020000040030CA
:0E000000FF080815FF0D81FF0FC00FE00F4035
:00000001FF
