:0400000014EF00F009
:10000800F2A401D001D00BD0F2AA01D001D007D0C0
:10001800FE0ED76E0C0ED66EF29434EC01F0110081
:1000280071EF00F04E6A010E4F6E4D6A506A5050E3
:10003800070DF350020FD96EDA6ADE50DD1014E1B5
:100048004F5042144F1810E14D6605D0010E4D6E09
:1000580050C04EF009D010D8DF2A0ED8DF505060BB
:1000680003D050C04EF006D0D8904F36502A070E15
:100078005064DDD74E5012005050070DF350010F59
:10008800D96EDA6A12004E504D10D8B4120020EE24
:1000980002F04D50D9264E50DA22DE6ADD6A4DC094
:1000A800D9FF4EC0DAFFDE6ADD6A4F28526E000EB5
:1000B8005020536E20EE04F04D50D9264E50DA22CF
:1000C80052C0DEFF53C0DDFF20EE06F04D50D926AA
:1000D8004E50DA2251C0DFFF120004EE00F0950EF8
:1000E800EE6AE806FDE103EE00F0CF0EEE6AE806E0
:1000F800FDE102EE00F07F0EEE6AE806FDE101EE9A
:1001080000F0FE0EEE6AE806FDE100EE60F0650E16
:10011800EE6AE806FDE100EE01F04C0EEE6AE80634
:10012800FDE1000EF86E0001F4EF00F0E8CF4FF0AB
:10013800080E4F60080C4F50070DF350040FD96E8E
:10014800DA6ADE50DD10D8B412004F50070DF350B4
:10015800040FD96EDA6ADECF4DF0DDCF4EF04FC016
:1001680000F00500FA6E4D50FD6E4E50FE6EF850D0
:10017800FF6EFA501200E8CF4FF0080E4F60080CDF
:100188004FC04DF0010E4E6E4D2A02D0D8904E361B
:100198004D2EFCD74E1C42164F50070DF350060F3C
:1001A800D96EDA6ADE6ADD6A4F50070DF350010F27
:1001B800D96EDA6A000EDF6E000C40EC01F012EC2A
:1001C80001F024EC01F00301030E4E6E000E4D6E9B
:1001D800506AC80E4F6E000E516A47EC00F0000CD2
:1001E80006D0030E4E6EE80E4D6E1BEC01F0E1ECEE
:1001F80000F0566E5604F5E104EC01F00400FCD75B
:100208003CEC01F00009D8A4120016EC00F0516E85
:1002180051509AEC00F05150BFEF00F0C26AC16A29
:10022800B80EC06E630E7E6E7F927F6A12004DC05C
:1002380057F04EC058F058505710D8B41200FBD79A
:10024800948E948C260EAC6E900EAB6EB86A12002B
:10025800E8CF4DF08F0ED3164D38F00BD3121200A5
:1002680058505710D8B412005706D8A05806120094
:0E027800425001E1010C000C050E2CEF01F0CC
:107D86007369676E616C000000000000000000006F
:107D9600000000000003696D700000000000000094
:107DA6000000000000000000000001037077720070
:107DB60000000000000000000000000000000000BD
:107DC6000203706F74000000000000000000000055
:107DD600000000000000030376657200000000004A
:107DE600000000000000000000000000040373749F
:107DF60061747573000000000000000000000000C0
:107E0600000005036163630000000000000000003D
:107E1600000000000000000007036164720000001B
:107E26000000000000000000000000000000080341
:107E36006572726F72000000000000000000000012
:107E460000000000060364656661756C74730000CB
:107E56000000000000000000000009036D6F6400D0
:107E6600000000000000000000000000000000000C
:107E76000A0170726F66696C650000000000000000
:107E86000000000000000B037077727472696700CF
:107E96000000000000000000000000000C03616309
:107EA60063747269670000000000000000000000B3
:107EB60000000D03747269676C65760000000000AF
:107EC60000000000000000000E03747269677375FD
:107ED6006D000000000000000000000000000F031D
:107EE60074726967636E7400000000000000000091
:107EF600000000001003776176746F6C6500000067
:107F06000000000000000000000011037761767495
:107F16007269670000000000000000000000000019
:107F260012037761766C636E740000000000000037
:107F3600000000000000130377617672636E740020
:107F46000000000000000000000000001403696447
:107F5600696400000000000000000000000000004E
:107F6600000015037073777073770000000000003F
:107F7600000000000000000016031D1D00000000A8
:107F86000000000000000000000000000000FF00EC
:107F9600736574000000000000000000000000008F
:107FA600000000000067657400000000000000008B
:107FB60000000000000000000001696E6974000006
:107FC6000000000000000000000000000000027336
:107FD600656C6674657374000000000000000000A4
:107FE600000000031D1D000000000000000000004E
:0A7FF6000000000000000000000081
:020000040020DA
:08000000FFFFFFFFFFFFFFFF00
:020000040030CA
:0E000000FF080C15FF8D81FF0FC00FE00F40B1
:00000001FF
