:1000000078EF00F0FF00FF00E9CF12F0EACF13F025
:10001000D9CF14F0DACF15F0F6CF16F0F7CF17F0EE
:10002000F8CF18F0F5CF19F0F2A401D001D007D025
:100030000CEC0DF0F294FE0ED76E0C0ED66E9EAA4E
:1000400001D001D003D05DEC0BF09E9A9EAC01D0A4
:1000500001D003D0AEEC0CF09E9C19C0F5FF18C087
:10006000F8FF17C0F7FF16C0F6FF15C0DAFF14C07F
:10007000D9FF13C0EAFF12C0E9FF1100E9CF64F015
:10008000EACF65F0D9CF66F0DACF67F0F6CF68F047
:10009000F7CF69F0F8CF6AF0F5CF6BF0F2A401D09A
:1000A00001D007D00CEC0DF0F294FE0ED76E0C0EC2
:1000B000D66E9EAA01D001D003D05DEC0BF09E9AC3
:1000C0009EAC01D001D003D0AEEC0CF09E9C6BC076
:1000D000F5FF6AC0F8FF69C0F7FF68C0F6FF67C0A8
:1000E000DAFF66C0D9FF65C0EAFF64C0E9FF11000E
:1000F000E0EF0AF020EE28F07451D9267551DA228B
:1001000010EE63F07451E1267551E222E7506C6FF6
:1001100010EE28F07451E1267551E222E75089EC87
:100120000CF0DF6E20EE28F07451D9267551DA22DA
:10013000DF5052DA76C0DEFF77C0DDFF20EE28F018
:100140007451D9267551DA22DF2A20EE58F0745105
:10015000D9267551DA2210EE29F0EDD910EE58F0BB
:10016000EAD976C0DEFF77C0DDFF886B896B8A6BCA
:1001700003D08A5131DA3FDAEDD98A5DFAE388C0DB
:100180006CF089C06DF0E6D96E6F6F6B8CEC09F086
:1001900020EE56F0FDD920EE58F07451D926755155
:1001A000DA22DECF6CF0DDCF6DF020EE58F0745126
:1001B000D9267551DA22DECF6EF0DDCF6FF073EC09
:1001C0000CF06CC078F06DC079F020EE56F07451F0
:1001D000D9267551DA22DECF6CF0DDCF6DF020EE3E
:1001E0005AF07451D9267551DA22DECF6EF0DDCF88
:1001F0006FF073EC0CF06C51785D7A6F6D5179593A
:100200007B6F20EE5CF07451D9267551DA227AC0EA
:10021000DEFF7BC0DDFF76D979BF0BD020EE5CF02E
:100220007451D9267551DA22DECF7EF0DDCF7FF012
:100230000BD020EE5CF07451D9265BD9784B792B2A
:1002400078C07EF079C07FF020EE5FF07451D9263F
:100250007551DA22DECF78F0DDCF79F07951800A5E
:100260007A6F7E51785D7F51800A7A5916E2A3D960
:1002700078B113D020EE5EF07451D9267551DA2290
:10028000DF50786F78B509D020EE5EF07451D92632
:100290007551DA22010EDF12010C8DD978A19BD0A5
:1002A00020EE5CF07451D9267551DA22DECF78F059
:1002B000DDCF79F079BF0BD020EE5CF07451D926F8
:1002C0007551DA22DECF80F0DDCF81F00BD020EE49
:1002D0005CF07451D9260DD9784B792B78C080F019
:1002E00079C081F08151800A7D0FE80ED8B4805D1D
:1002F00072E220EE54F07451DED87C6F82D97DBF5B
:1003000009D020EE54F07451D6D8826F79517B59C0
:10031000836F0BD020EE54F07451CDD865D97C4B4F
:100320007D2B7CC082F07DC083F01CD98351800A74
:100330007A6F7851825D7951800A7A594CE2EDD812
:10034000CED87C6F5ED97DBF13D020EE54F07451AF
:10035000D9267551DA22DECF78F0DDCF79F020EEA4
:100360005AF07451BCD8846F79517B59856F09D08C
:10037000D4D8B5D839D97C4B7D2B7CC084F07DC0D6
:1003800085F0F0D88551800A7A6F7851845D795173
:10039000800A7A5920E28A6B13D020EE58F074510B
:1003A000D9267551DA228A51020DF3507425E16E77
:1003B000F4507521E26EDECFE6FFDDCFE5FF8A2B3C
:1003C000C9D88A5DEAE320EE5EF07451D9267551F2
:1003D000DA22FE0EDF1696D879BF0BD020EE5CF045
:1003E0007451D9267551DA22DECF86F0DDCF87F041
:1003F0000BD020EE5CF07451D9267BD8784B792B4A
:1004000078C086F079C087F08751800A800F0A0E85
:10041000D8B4865D4FE220EE53F07451D926755161
:10042000DA22090EDF6208D020EE5EF07451D92680
:100430007551DA22FB0EDF1620EE58F074519DD86C
:10044000B0D8E16E000E7921E26EDECFE6FFDDCF9F
:10045000E5FF20EE53F0745190D8786F78296C6FD7
:100460006D6B000E6D2310EE64F07451E126755132
:10047000E222E7506E6F6F6BACEC0AF06C51DF6EEE
:10048000886B896B8A6B07D08A518BD8D96E000E26
:100490007921DA6EB0D898D88A5DF6E388C06CF01E
:1004A00089C06DF091D86E6F6F6B8CEC09F020EE07
:1004B00054F06ED8000CD9267551DA22DECF78F0D0
:1004C000DDCF79F020EE58F07451D9267551DA223B
:1004D000DECF7AF0DDCF7BF078517A5D1200D9263D
:1004E0007551DA22DECF7AF0DDCF7BF078517A5D7C
:1004F00012007551DA22DECF78F0DDCF79F0781F67
:10050000791F120020EE5CF07451D9267551DA2261
:10051000DECF78F0DDCF79F0120020EE54F0745188
:10052000D9267551DA22DECF78F0DDCF79F020EED2
:100530005AF0745112007451E1267551E222DECF57
:10054000E6FFDDCFE5FF20EE5AF07451D926755154
:10055000DA22120020EE63F07451D9267551DA22A6
:10056000DF50120020EE61F07451D9267551DA2265
:10057000DECF78F0DDCF79F01200D9267551DA227E
:1005800010EE53F07451E1267551E222E75012004B
:100590007451D9267551DA226CC0DEFF6DC0DDFFC3
:1005A0001200020DF3507425786FF4507521796FA5
:1005B0002B0E7825120020EE5EF07451D92675516D
:1005C000DA22DF50786F120020EE64F07451D926E1
:1005D0007551DA22DF501200020DF3507425D96EE6
:1005E000F4507521DA6E12007C6F79517B597D6F62
:1005F0007C1F7D1F1200DE508827DD5089238A2B47
:10060000120079517B597D6F1200E8CF78F06E515E
:100610006C5D6F516D59800B07E16E516C5D746FAD
:100620006F516D59756F10D06CC070F06DC071F066
:100630006E51705F6F51715B701F711F704B712B2A
:1006400070C074F071C075F07851D96EDA6A74C0F8
:10065000DEFF75C0DDFF7851D96EDA6A7851E16E40
:10066000E26A130EA6D802E1DF50E75C03E3766B83
:10067000776B17D07851D96EDA6A130ED926DA6AF9
:10068000DECF70F0DDCF71F07851D96EDA6ADECF4F
:1006900072F0DDCF73F07051725D766F71517359E6
:1006A000776FB1D876C0DEFF77C0DDFF8DD8DF5021
:1006B000706F70A55DD07851D96EDA6A080ED926B0
:1006C000DA6ADE2A000EDD229ED8DECF70F0DDCFA2
:1006D00071F081D87051DE267151DD227CD87851BD
:1006E000E16EE26A110E65D802E1DF50E75C31E2AB
:1006F0006BD8DF50706F70B12CD07851D96EDA6A38
:100700000E0ED926DA6AFB0EDF165ED8010EDF1256
:10071000785170D80C0EE126E26ADECFE6FFDDCF1D
:10072000E5FF59D87851E16EE26A0A0EE126E26AE5
:10073000DECFE6FFDDCFE5FF7851D96EDA6A080E2D
:10074000D926DA6ADE6ADD6A46D8000EDE6EDD6E14
:10075000010C78514FD80F0E2CD802E1DF50E75C26
:1007600027E232D8FB0EDF162FD8FE0EDF16000C64
:100770004AD87851E16EE26A130E1BD802E1DF50CD
:10078000E75C16E221D8040EDF121ED8FE0EDF163B
:100790007851D96EDA6A0C0E25D80A0E23D8080EC5
:1007A000D926DA6ADE6ADD6A16D8000EDE6EDD6EE4
:1007B000000CE126E26AE652DE52E550800A706FD4
:1007C000DD50800A705D12007851D96EDA6A0E0E23
:1007D000D926DA6A12007851D96EDA6A060ED9265D
:1007E000DA6A1200D926DA6ADE6ADD6A7851D96ED1
:1007F000DA6A1200D96EDA6A080ED926DA6A7851F6
:10080000E16EE26A12007851D96EDA6A040ED926D6
:10081000DA6A12008A6B8551841101E1A5D084C087
:100820008BF085C08CF08F6B906B916B84C06EF0F9
:1008300085C06FF0E7EC0BF06EC08DF06FC08EF0EE
:1008400084516C6F85516D6F200E6E6F3D0E6F6F12
:100850009EEC07F000016CC093F06DC094F094BF63
:100860001BD09451800A876F8D51935D8E51800A01
:10087000875912E284C087F085C088F0935187279A
:1008800094518823872B000E882387518F6F8851BE
:10089000906F200E916F04D08DC093F08EC094F0B5
:1008A000030E00016D6F000E6C6F8B516E6F8C51DB
:1008B0006F6F200E706F93C071F094C072F0C5EC32
:1008C00008F0000E00019325D96E030E9421DA6E14
:1008D000DF6A926B9251170D140E8FEC06F0080030
:1008E000F550876F886B87BF88079451881902E19C
:1008F0009351871934E19251170D7C0EF3246E6FDA
:100900007D0EF4206F6F8BC070F08CC071F093C0BF
:1009100072F094C073F0BBC074F053EC07F0896FB1
:1009200089511DE086510BE09251170D150E8FEC89
:1009300006F08651D96EDA6A0800F5CFDFFF8F51D5
:100940009011911108E08FC07FF090C080F091C0AD
:1009500081F07CEC08F0010E00018A6F05D0922B2B
:100960009251800A650FB6E38A51120020EE02F020
:1009700094D86CC0D9FF6DC0DAFFDECF72F0DDCF46
:1009800073F07051725D796F715173597A6F010E06
:10099000786F8CD8EA6403D0EA6EEF5003D0F76E1C
:1009A0000800F5500A0A0EE0000180D8EA6403D07E
:1009B000EA6EEF5003D0F76E0800F5500D0A02E022
:1009C0000001786B00017851BC137AAF0AD020EE99
:1009D00004F06C51D9266D51DA22DE507927DD50B2
:1009E0007A2320EE04F059D8FF0E7025726FFF0EA7
:1009F0007121736F7A51800A746F7251795D7351EE
:100A0000800A7459D8B012006CC0D9FF6DC0DAFFEB
:100A1000DECF7BF0DDCF7CF06CC070F06DC071F08C
:100A20007B5170277C517123060E7027000E7123B5
:100A300070C076F071C077F06EC0F6FF6FC0F7FF40
:100A4000F86A76C0D9FF77C0DAFF050EF76403D0E5
:100A50000800F55005D0F6CFE9FFF7CFEAFFEF50D9
:100A6000DF6E00017B4B7C2B20EE04F06C51D9260D
:100A70006D51DA22DE527C51DD187BC0E8FFD8B41C
:100A8000DF1802E17B6B7C6B6CC0D9FF6DC0DAFFB5
:100A90007BC0DEFF7CC0DDFF12006C51D9266D519A
:100AA000DA22DECF70F0DDCF71F012006E51F66EFB
:100AB000E96E050EEA6E6F51120020EE02F091D839
:100AC0001AC0D9FF1BC0DAFFDECF20F0DDCF21F046
:100AD0001E50205C276E1F502158286E010E266E76
:100AE00089D8EA6403D0EA6EEF5003D0F76E0800AD
:100AF000F5500A0A0CE07ED8EA6403D0EA6EEF50A3
:100B000003D0F76E0800F5500D0AD8A4266A2650C7
:100B10000001BC1328AE0AD020EE04F01A50D926EA
:100B20001B50DA22DE502726DD50282220EE04F06A
:100B300058D8FF0E1E24206EFF0E1F20216E285055
:100B4000800A226E2050275C2150800A2258D8B09B
:100B500012001AC0D9FF1BC0DAFFDECF29F0DDCFAB
:100B60002AF01AC01EF01BC01FF029501E262A5062
:100B70001F22060E1E26000E1F221EC024F01FC0BC
:100B800025F01CC0F6FF1DC0F7FFF86A24C0D9FF8E
:100B900025C0DAFF050EF76403D00800F55005D034
:100BA000F6CFE9FFF7CFEAFFEF50DF6E294A2A2A96
:100BB00020EE04F01A50D9261B50DA22DE522A50B9
:100BC000DD1829C0E8FFD8B4DF1802E1296A2A6AD3
:100BD0001AC0D9FF1BC0DAFF29C0DEFF2AC0DDFF23
:100BE00012001A50D9261B50DA22DECF1EF0DDCFBC
:100BF0001FF012001C50F66EE96E050EEA6E1D50D5
:100C000012009B6B99C0BBF0050E00016D6F000ECA
:100C10006C6F95C06EF096C06FF097C070F098C082
:100C200071F0000E726B09EC09F06C519F6FE9696D
:100C3000EA690201006B0301006B00019F51800A09
:100C40007F0F5CE39C6B9F059B6F54D0000E0001EF
:100C50009C259D6F9E6B050E9E239C6711D09DC0A9
:100C600084F09EC085F0E90E866F0AEC04F000095E
:100C700002E19B6B43D05DD8010E06EC0CF031D045
:100C80009DC084F09EC085F0EA0E866F0AEC04F0E9
:100C90009A6F9A0518E1EA51170D160E40D8080010
:100CA000F5CFB9F0E9C081F0EAC082F0000E000192
:100CB000836F020E846F200E856FB9C086F0000E20
:100CC00006EC0CF00ED0E9C081F08269000E000144
:100CD000836F030E846F200E856F000E866B06EC0B
:100CE0000CF09DC06EF09EC06FF00001E7EC0BF0C1
:100CF0006E299C279F0700019F29A8E19B51800A2C
:100D00007F0F04E316D8020E06EF0CF081698269AA
:100D1000836B846B856B866B030E06EF0CF0F326FA
:100D2000000EF4227C0EF324F66E7D0EF420F76E96
:100D30001200E9C081F08269836B846B856B866BDE
:100D4000120006D0030E6D6FE80E6C6FF1EC0CF024
:100D500081EC0BF0A36FA305F5E1F28EF28C00019C
:100D6000A469A569A66BA651330FD96EDA6A010E84
:100D7000DF6211D0A6512B0FD96EDA6ADF5003E182
:100D8000A6C0A4F005D0A6512B0FD96EDA6ADF06F3
:100D9000A5BFA6C0A5F0A62B070EA665E4D7A4BFE5
:100DA00014D0A451020DF350A70FD96EDA6A01D8FE
:100DB0000AD00500FA6EDE50FD6EDE50FE6EF85071
:100DC000FF6EFA501200A45115D0A5BF17D0A5513F
:100DD000020DF350A70FD96EDA6A01D80AD00500C8
:100DE000FA6EDE50FD6EDE50FE6EF850FF6EFA5069
:100DF0001200A551330FD96EDA6ADF6A0400AFD74B
:100E0000736B20EE02F06C51D9266D51DA22DECFE1
:100E100074F0DDCF75F06CC0D9FF6DC0DAFFDECFA6
:100E200071F0DDCF72F07251751902E171517419D0
:100E300038E06CC06FF06DC070F074516F27755161
:100E40007023060E6F25D96E000E7021DA6E6E517A
:100E5000E16EE26ADFCFE7FF744B752B20EE02F004
:100E60006C51D9266D51DA2274C0DEFF75C0DDFFEA
:100E700020EE04F06C51D9266D51DA22DE52755104
:100E8000DD1874C0E8FFD8B4DF1809E120EE02F0E5
:100E90006C51D9266D51DA22000EDE6EDD6E010E28
:100EA000736F73511200776B6F516E1145E0715182
:100EB000701142E0786B796B37D06EC075F06FC0FF
:100EC00076F0785175277951762375C0F6FF76C094
:100ED000F7FF0800F5CF7AF078517025D96E795177
:100EE0007121DA6EDF507B6F74670ED07A51CDECD2
:100EF0000CF0000902E0200E7A277B51CDEC0CF0BB
:100F0000000902E0200E7B277A517B1906E07A5116
:100F10003F0A03E07B513F0A03E1010E776F02D0E5
:100F2000776B0AD0784B792B7207D8A07307000132
:100F30007229D8B47329C1E17751120073697469B9
:100F40006C516D116E112DE0756B766B16D0000132
:100F50002DD8F8BA03D00800F55005D0F6CFE9FF38
:100F6000F7CFEAFFEF5000016F1905E175C073F08C
:100F700076C074F016D0754B762B7651800A7D0FB3
:100F8000E80ED8B4755D0DE211D8F8BA03D00800A8
:100F9000F55005D0F6CFE9FFF7CFEAFFEF50000993
:100FA000D6E173C06CF074C06DF0120075516C2501
:100FB000706F76516D21716F000E76BFFF0E6E213E
:100FC000726F70C0F6FF71C0F7FF72C0F8FF1200B9
:100FD0007D6B7E6B7B6B7C6B74C06EF075C06FF04D
:100FE000E7EC0BF06EC079F06FC07AF02AD07B513D
:100FF0007225D96E7C517321DA6E74C076F075C09B
:1010000077F07D5176277E5177237629E16E000EA9
:101010007721E26EE7503DEC0AF0786F7D51742540
:10102000E16E7E517521E26EE7503DEC0AF0100D45
:10103000F3507825DF6E020E7D27000E7E237B4B5A
:101040007C2BFF0E7925766FFF0E7A21776F7E510C
:10105000800A786F76517D5D7751800A7859D8B0D3
:101060001200C5D7E8CF7FF0806B08D02BEC0DF0D5
:101070006C510F0B8C6E010E806F22D07F51040AD1
:101080001FE0030AF3E00A0A1BE0030A19E0000A62
:1010900017E0010A15E01F0A13E0010A11E0030A34
:1010A0000FE0010A0DE0070A0BE0010A09E0030A5C
:1010B00007E0010A05E00F0AD8A4010AD8A4030A30
:1010C00025EC0DF001C07DF002C07EF0000138EC8F
:1010D0000BF00001805107E07F0E7E6FFA0E7D6FEE
:1010E00038EC0BF006D07F0E7E6FEF0E7D6F38EC84
:1010F0000BF00001805112007F5180118111D8B492
:1011000012007FC06CF080C06DF081C06EF0000EE8
:101110006F6B9EEC07F06CC082F06DC083F0020E26
:1011200000016D6F000E6C6F7FC06EF080C06FF0BD
:1011300081C070F082C071F083C072F0C5EC08F01D
:10114000000E00018225D96E020E8321DA6EDF6A5D
:101150000FD0020E0001736F000E726F020E756FDA
:10116000000E746FE8EF07F00201006B016B1200D4
:10117000B951010AD8B41200030AEBE0010AD8B44D
:101180001200060AD8B41200EFD7736974696E5161
:101190006F117011D8B412001ED0734B742B6EC037
:1011A000F6FF6FC0F7FF70C0F8FFF8BA03D0080071
:1011B000F55005D0F6CFE9FFF7CFEAFFEF506CC04E
:1011C000D9FF6DC0DAFFDF6E00016E2B000E6F23BA
:1011D00070236C4B6D2B6EC0F6FF6FC0F7FF70C0B5
:1011E000F8FFF8BA03D00800F55005D0F6CFE9FFB4
:1011F000F7CFEAFFEF50000908E000017107D8A01F
:1012000072077129D8B47229C8E10001734B742B9D
:101210001200736B746B756B766B200E776F735166
:101220006E25D96E74516F21DA6EDF50786F785168
:10123000200A03E0715170110EE17751200A13E08A
:101240006CC0D9FF6DC0DAFF72C0DFFF6C4B6D2B35
:10125000754B762B08D06CC0D9FF6DC0DAFF78C013
:10126000DFFF6C4B6D2B7151701108E07007D8A037
:101270007107734B742B78C077F0D1D76CC0D9FF4E
:101280006DC0DAFF72C0DFFF6C4B6D2B75C06CF068
:1012900076C06DF01200E8CF7FF025EC0DF001C0B4
:1012A0007DF002C07EF0000138EC0BF000017F51B0
:1012B000040A2BE0010A29E0030A27E0010A25E0DD
:1012C0000F0A23E0010A21E0030A1FE0010A1DE0E2
:1012D000070A1BE0010A19E0030A17E0010A15E0FA
:1012E0001F0A13E0010A11E0030A0FE0010A0DE0F2
:1012F000070A0BE0010A09E0030A07E0010A05E01A
:101300000F0AD8A4010AD8A4030A7F0E7E6FEF0E3D
:101310007D6F38EC0BF0000C716B6FAF06D06E6D0B
:101320006F1FD8B06F2B010E716F6DAF06D06C6D53
:101330006D1FD8B06D2B010E711B726B736B6F51EB
:101340006E111BE0010E706F04D0D8906E376F37AE
:10135000702B6FAFFAD7D890723773376E516C5DC0
:101360006F516D5905E36E516C5F6F516D5B72810A
:10137000D8906F336E33702FEED7715104E0726DD9
:10138000731FD8B0732B72C06CF073C06DF0120075
:10139000010E0001756F6B0E746FB7C076F0B8C0A8
:1013A00077F07AEC00F0BF6FBFC18BF00001C0C1D5
:1013B0008CF08D6B8CBF8D07B7C06CF0B8C06DF032
:1013C0008BC06EF08CC06FF0C00E05EC03F0BE6FEA
:1013D000000ECEB5010EBD6F08D0BA6B0DD0BEC0E9
:1013E000BAF00AD0BFC0BAF007D0DC51F6E0010A6B
:1013F000F6E0030AF7E0F1D7BA51D8A4D880BD517E
:10140000D8A4D88212000DD0030E0001966F7F0E73
:10141000956FA1C097F0A2C098F0000E996B01ECF7
:1014200006F0020E0001776F7F0E766F030E796F64
:101430007F0E786FA10E7A6F77EC0AF000090DE04D
:10144000E3D7010E00016D6F000E6C6FA00E6E6F82
:1014500000EC07F0A051FAEC0CF0010E00016D6FEA
:10146000000E6C6F0FEC0BF06D51800A800F010EB7
:10147000D8B46C5DD8A01200E4D7E8CF6CF009D0E6
:101480006C51D00F12006C51A90F12006C51C90F92
:1014900012006C51300AF4E0010AF2E0030AF0E0B5
:1014A000010AEEE0070AECE0010AEAE0030AE8E0DC
:1014B000010AE6E00F0AE4E0010AE2E0780AE6E069
:1014C000030AE4E0010AE2E0070AE0E0010ADEE0E4
:1014D000030ADCE0270AD7E0030AD5E0010AD3E0DB
:1014E000070AD1E0010ACFE0030ACDE0000C7A51EF
:1014F000D96EDA6A000EDE6EDD6EBC512CE07951D9
:1015000078111DE1000C7B510A0A03E07B510D0AA2
:1015100008E1784B792B78C0D9FF79C0DAFFDF6A10
:1015200018D078C0D9FF79C0DAFF7BC0DFFF784BD5
:10153000792B7A51D96EDA6ADE2A000EDD2276C066
:101540006CF077C06DF07B0E6E6F00EC07F0000959
:10155000DAE1BC6B010C000C716B6DAF06D06C6DE9
:101560006D1FD8B06D2B010E716F6FAF04D06E6D13
:101570006F1FD8B06F2B6F516E1117E0010E706F97
:1015800004D0D8906E376F37702B6FAFFAD76E518B
:101590006C5D6F516D5904E36E516C5F6F516D5B03
:1015A000D8906F336E33702FF2D7715104E06C6DA9
:1015B0006D1FD8B06D2B6CC06CF06DC06DF012005B
:1015C00005EE00F07F0EEE6AE806FDE104EE00F0A5
:1015D000BB0EEE6AE806FDE103EE00F0E30EEE6AF4
:1015E000E806FDE102EE00F0EA0EEE6AE806FDE133
:1015F00001EE00F0D00EEE6AE806FDE100EEA7F085
:10160000440EEE6AE806FDE100EE2BF0180EEE6ADD
:10161000E806FDE1000EF86E0001A1EF06F020EEF5
:1016200002F06C51D9266D51DA22DECF6EF0DDCF9B
:101630006FF06CC0D9FF6DC0DAFFDECF70F0DDCF88
:1016400071F06E51705D726F6F517159736F73AF3E
:101650000AD020EE04F06C51D9266D51DA22DE500A
:101660007227DD50732372C06CF073C06DF01200EE
:101670000DD0010E00016D6F000E6C6F7DC06EF01D
:101680007EC06FF0B6EC04F07D4B7E2B00017E51E6
:101690007D11D8B412007D51F66EE96E050EEA6E2A
:1016A0007E51EA6403D0EA6EEF5003D0F76E080073
:1016B000F5500009D8B41200DCD734EC0DF0000965
:1016C000D8B412000001630E5BEC0CF0626F62058F
:1016D0000BE1020E1B6E7F0E1A6E0001000E1D6ED6
:1016E000630E1C6E5DEC05F0000163510A0A04E014
:1016F00063510D0AD8A41200010E386E0A0E306E26
:101700000A0C0001736B03EC0DF038EC0DF0E7EC04
:101710000CF09EEC0CF0140EB26F060EB16F130EAF
:10172000AC6F900EAB6F7F0E6E6FE90E6D6F706BCE
:10173000640E6F6F25EC0CF042EC0CF0000902E037
:10174000010E736F73511200E8CF1DF0C230E83202
:101750000F0B1D1810E01DC01CF01C461C46C2508B
:101760001C18C30B1C18C26E00F000F000F000F053
:1017700000F000F000F0C28202D000F000F0C2B22F
:10178000FCD79E9CC3CF1AF0C4CF1BF01200706B25
:101790006D516C111AE020EE02F06C51D9266D519A
:1017A000DA22DE6ADD6A6CC0D9FF6DC0DAFFDE6A5C
:1017B000DD6A20EE04F06C51D9266D51DA226EC03C
:1017C000DEFF6FC0DDFF010E706F7051120000016F
:1017D000706B716B6F516E1114E070516E25D96E84
:1017E00071516F21DA6EDF50DAEC0CF0000909E07C
:1017F000704B712B7151800A7D0FE80ED8B4705D6B
:10180000ECE370C06EF071C06FF01200E8CF87F0AB
:1018100087670DD006D0825132EF08F082514BEF2E
:1018200009F08151F8E0010AD8A41200F7D78751D6
:10183000020AD8B412008751030AD8A412007F0EFE
:101840007E6FF50E7D6F46EF0BF00AD06DC0F6FF90
:101850006EC0F7FF0800F550FAEC0CF06D4B6E2BE4
:101860006F07D8A0700700016F29D8B47029D8B4C9
:1018700012006DC0F6FF6EC0F7FF0800F550D8B437
:101880001200E4D7010E00016D6F000E6C6F6F6BDC
:10189000640E6E6FC7EC0BF0716F020E00016D6F7E
:1018A0007F0E6C6F6F6B640E6E6FC7EC0BF0711177
:1018B000726F72511200E8CF1BF01C6A1DEC0DF024
:1018C000000903E0BEEC0CF00CD034EC0DF0000984
:1018D00008E01B50D96EDA6AAECFDFFF9E9A010E88
:1018E0001C6E1C501200706B716B6CA104D06E5199
:1018F00070276F517123D8906E376F37D8906D3342
:101900006C336D516C11F1E170C06CF071C06DF011
:101910001200E8CF6DF0080E6E6F6F6BD89000016B
:101920006D356F356F6FD8906D376C516F5D02E319
:101930006C516F5F6E2FF2D76F511200260EAC6E96
:10194000900EAB6EB86AB86A6C6B4B0E6D6F000E82
:101950006E6B3BEC0DF09D8A9E8A1200000EA4EC8B
:101960000BF01A500001626F040E1B6E500E1A6EBF
:10197000000E1D6E620E1C6E5DEF05F008D0AB9878
:10198000AE50AE50AB8834EC0DF00009FCE11DEC1C
:101990000DF00009D8B41200F2D7E8CF6DF06C6BEF
:1019A000400E6D6505D05B0E6D6102D0010E6C6F4F
:1019B0006C511200E8CF6DF06C6B1F0E6D6505D099
:1019C0007F0E6D6102D0010E6C6F6C511200010E22
:1019D000C26EC16A160EC06E630E7E6E7F6A9D8CEB
:1019E00012006CC0EBF06DC0ECF0EC51EB11D8B410
:1019F0001200FBD7E8CF6CF030EC0DF00009FCE0F2
:101A00006CC0ADFF1200926893687F6AC10E946E3D
:101A1000956A8B6A8C6A12000001EC51EB11D8B404
:101A20001200EB07D8A0EC071200E8CF6CF08F0E85
:101A3000D3166C39F00BD3121200010E1A6EABA242
:101A4000ABB401D01A6A1A5012000301030E026EE1
:101A5000000E016E120000C26CF001C26DF01200A7
:101A6000000E9EB8010E1200000E9EBA010E12006A
:101A7000050E15EF0DF00C0EAF6E0C0CFF00FF0005
:107D7000FF00FF00FF00FF00FF00FF0073657400BD
:107D800000000000000000000000000000000000F3
:107D900003000067657400000000000000000000A0
:107DA00000000000000000030100696E697400001B
:107DB00000000000000000000000000000000402BD
:107DC0000073656C66746573740000000000000049
:107DD00000000000000803007369676E616C00001A
:107DE000000000000000000000000000060403691D
:107DF0006D700000000000000000000000000000A6
:107E0000000000030503707772000000000000000E
:107E100000000000000000000000030603706F7403
:107E20000000000000000000000000000000000052
:107E300000030703766572000000000000000000E8
:107E400000000000000000000308037374617475F3
:107E500073000000000000000000000000000006A9
:107E600009036163630000000000000000000000DF
:107E7000000000000000030A0361647200000000BB
:107E800000000000000000000000000000030B03E1
:107E90006572726F720000000000000000000000B8
:107EA00000000000050C0364656661756C74730066
:107EB0000000000000000000000000080D036D6FCE
:107EC000640000000000000000000000000000004E
:107ED0000000030E0170726F66696C65000000009F
:107EE000000000000000000000070F0370777274AC
:107EF0007269670000000000000000000000000040
:107F0000071003616363747269670000000000007A
:107F100000000000000000071103747269676C65BF
:107F200076000000000000000000000000000712C2
:107F3000037472696773756D000000000000000033
:107F4000000000000007130374726967636E740019
:107F5000000000000000000000000000071403778C
:107F60006176746F6C650000000000000000000086
:107F700000000007150377617674726967000000DE
:107F80000000000000000000000007160377617683
:107F90006C636E7400000000000000000000000030
:107FA0000007170377617672636E740000000000AB
:107FB0000000000000000000071803696469640005
:107FC00000000000000000000000000000000004AD
:107FD00019037073777073770000000000000000D1
:107FE000000000000000061A0368656C6C6F003A20
:107FF00065727220006572720A003A6F6B20000091
:020000040020DA
:08000000FFFFFFFFFFFFFFFF00
:020000040030CA
:0E000000FF080815FF8D81FF0FC00FE00F40B5
:00000001FF
