:1000000078EF00F0FF00FF00E9CF12F0EACF13F025
:10001000D9CF14F0DACF15F0F6CF16F0F7CF17F0EE
:10002000F8CF18F0F5CF19F0F2A401D001D007D025
:1000300028EC0EF0F294FE0ED76E0C0ED66E9EAA31
:1000400001D001D003D033EC0DF09E9A9EAC01D0CC
:1000500001D003D0BCEC0DF09E9C19C0F5FF18C078
:10006000F8FF17C0F7FF16C0F6FF15C0DAFF14C07F
:10007000D9FF13C0EAFF12C0E9FF1100E9CF64F015
:10008000EACF65F0D9CF66F0DACF67F0F6CF68F047
:10009000F7CF69F0F8CF6AF0F5CF6BF0F2A401D09A
:1000A00001D007D028EC0EF0F294FE0ED76E0C0EA5
:1000B000D66E9EAA01D001D003D033EC0DF09E9AEB
:1000C0009EAC01D001D003D0BCEC0DF09E9C6BC067
:1000D000F5FF6AC0F8FF69C0F7FF68C0F6FF67C0A8
:1000E000DAFF66C0D9FF65C0EAFF64C0E9FF11000E
:1000F00072EF0BF020EE28F07451D9267551DA22F8
:1001000010EE63F07451E1267551E222E7506C6FF6
:1001100010EE28F07451E1267551E222E75097EC79
:100120000DF0DF6E20EE28F07451D9267551DA22D9
:10013000DF504ADA76C0DEFF77C0DDFF20EE28F020
:100140007451D9267551DA22DF2A20EE58F0745105
:10015000D9267551DA2210EE29F0EDD910EE58F0BB
:10016000EAD976C0DEFF77C0DDFF886B896B8A6BCA
:1001700003D08A5129DA3FDAEDD98A5DFAE388C0E3
:100180006CF089C06DF0E6D96E6F6F6B5BEC0AF0B6
:1001900020EE56F0FDD920EE58F07451D926755155
:1001A000DA22DECF6CF0DDCF6DF020EE58F0745126
:1001B000D9267551DA22DECF6EF0DDCF6FF081ECFB
:1001C0000DF06CC078F06DC079F020EE56F07451EF
:1001D000D9267551DA22DECF6CF0DDCF6DF020EE3E
:1001E0005AF07451D9267551DA22DECF6EF0DDCF88
:1001F0006FF081EC0DF06C51785D7A6F6D5179592B
:100200007B6F20EE5CF07451D9267551DA227AC0EA
:10021000DEFF7BC0DDFF76D979BF0BD020EE5CF02E
:100220007451D9267551DA22DECF7EF0DDCF7FF012
:100230000BD020EE5CF07451D9265BD9784B792B2A
:1002400078C07EF079C07FF020EE5FF07451D9263F
:100250007551DA22DECF78F0DDCF79F07951800A5E
:100260007A6F7E51785D7F51800A7A5916E2A3D960
:1002700078B113D020EE5EF07451D9267551DA2290
:10028000DF50786F78B509D020EE5EF07451D92632
:100290007551DA22010EDF12010C8DD978A19BD0A5
:1002A00020EE5CF07451D9267551DA22DECF78F059
:1002B000DDCF79F079BF0BD020EE5CF07451D926F8
:1002C0007551DA22DECF80F0DDCF81F00BD020EE49
:1002D0005CF07451D9260DD9784B792B78C080F019
:1002E00079C081F08151800A7D0FE80ED8B4805D1D
:1002F00072E220EE54F07451DED87C6F82D97DBF5B
:1003000009D020EE54F07451D6D8826F79517B59C0
:10031000836F0BD020EE54F07451CDD865D97C4B4F
:100320007D2B7CC082F07DC083F027D98351800A69
:100330007A6F7851825D7951800A7A594CE2EDD812
:10034000CED87C6F5ED97DBF13D020EE54F07451AF
:10035000D9267551DA22DECF78F0DDCF79F020EEA4
:100360005AF07451BCD8846F79517B59856F09D08C
:10037000D4D8B5D839D97C4B7D2B7CC084F07DC0D6
:1003800085F0FBD88551800A7A6F7851845D795168
:10039000800A7A5920E28A6B13D020EE58F074510B
:1003A000D9267551DA228A51020DF3507425E16E77
:1003B000F4507521E26EDECFE6FFDDCFE5FF8A2B3C
:1003C000C9D88A5DEAE320EE5EF07451D9267551F2
:1003D000DA22FE0EDF1696D879BF0BD020EE5CF045
:1003E0007451D9267551DA22DECF86F0DDCF87F041
:1003F0000BD020EE5CF07451D9267BD8784B792B4A
:1004000078C086F079C087F08751800A800F0A0E85
:10041000D8B4865D4FE220EE53F07451D926755161
:10042000DA22090EDF6208D020EE5EF07451D92680
:100430007551DA22FB0EDF1620EE58F0745192D877
:10044000B0D8E16E000E7921E26EDECFE6FFDDCF9F
:10045000E5FF20EE53F0745185D8786F78296C6FE2
:100460006D6B000E6D2310EE64F07451E126755132
:10047000E222E7506E6F6F6B0CEC0BF06C51DF6E8D
:10048000886B896B8A6B07D08A518BD8D96E000E26
:100490007921DA6EB0D8A0D88A5DF6E388C06CF016
:1004A00089C06DF099D86E6F6F6B5BEC0AF020EE2F
:1004B00054F06ED8000CD9267551DA22DECF78F0D0
:1004C000DDCF79F020EE58F07451D9267551DA223B
:1004D000DECF7AF0DDCF7BF078517A5D1200D9263D
:1004E0007551DA22DECF7AF0DDCF7BF078517A5D7C
:1004F00012007551DA22DECF78F0DDCF79F0781F67
:10050000791F120020EE5CF07451D9267551DA2261
:10051000DECF78F0DDCF79F0120020EE54F0745188
:10052000D9267551DA22DECF78F0DDCF79F020EED2
:100530005AF0745112007451E1267551E222DECF57
:10054000E6FFDDCFE5FF20EE5AF07451D926755154
:10055000DA22120020EE63F07451D9267551DA22A6
:10056000DF501200D9267551DA2210EE53F0745183
:10057000E1267551E222E750120020EE61F074513D
:10058000D9267551DA22DECF78F0DDCF79F012006E
:100590007451D9267551DA226CC0DEFF6DC0DDFFC3
:1005A0001200020DF3507425786FF4507521796FA5
:1005B0002B0E7825120020EE5EF07451D92675516D
:1005C000DA22DF50786F1200020DF3507425D96ED5
:1005D000F4507521DA6E120020EE64F07451D926C1
:1005E0007551DA22DF5012007C6F79517B597D6F93
:1005F0007C1F7D1F1200DE508827DD5089238A2B47
:10060000120079517B597D6F1200E8CF78F06E515E
:100610006C5D6F516D59800B07E16E516C5D746FAD
:100620006F516D59756F10D06CC070F06DC071F066
:100630006E51705F6F51715B701F711F704B712B2A
:1006400070C074F071C075F07851D96EDA6A74C0F8
:10065000DEFF75C0DDFF7851D96EDA6A7851E16E40
:10066000E26A130EA6D802E1DF50E75C03E3766B83
:10067000776B17D07851D96EDA6A130ED926DA6AF9
:10068000DECF70F0DDCF71F07851D96EDA6ADECF4F
:1006900072F0DDCF73F07051725D766F71517359E6
:1006A000776FB1D876C0DEFF77C0DDFF8DD8DF5021
:1006B000706F70A55DD07851D96EDA6A080ED926B0
:1006C000DA6ADE2A000EDD229ED8DECF70F0DDCFA2
:1006D00071F081D87051DE267151DD227CD87851BD
:1006E000E16EE26A110E65D802E1DF50E75C31E2AB
:1006F0006BD8DF50706F70B12CD07851D96EDA6A38
:100700000E0ED926DA6AFB0EDF165ED8010EDF1256
:10071000785170D80C0EE126E26ADECFE6FFDDCF1D
:10072000E5FF59D87851E16EE26A0A0EE126E26AE5
:10073000DECFE6FFDDCFE5FF7851D96EDA6A080E2D
:10074000D926DA6ADE6ADD6A46D8000EDE6EDD6E14
:10075000010C78514FD80F0E2CD802E1DF50E75C26
:1007600027E232D8FB0EDF162FD8FE0EDF16000C64
:100770004AD87851E16EE26A130E1BD802E1DF50CD
:10078000E75C16E221D8040EDF121ED8FE0EDF163B
:100790007851D96EDA6A0C0E25D80A0E23D8080EC5
:1007A000D926DA6ADE6ADD6A16D8000EDE6EDD6EE4
:1007B000000CE126E26AE652DE52E550800A706FD4
:1007C000DD50800A705D12007851D96EDA6A0E0E23
:1007D000D926DA6A12007851D96EDA6A060ED9265D
:1007E000DA6A1200D926DA6ADE6ADD6A7851D96ED1
:1007F000DA6A1200D96EDA6A080ED926DA6A7851F6
:10080000E16EE26A12007851D96EDA6A040ED926D6
:10081000DA6A12008C6B8751861101E1A3D086C081
:100820008DF087C08EF0916B926B936B946B9CD81C
:10083000240E6F6F2AEC08F000016CC08FF06DC0C1
:1008400090F092D83D0E6F6F2AEC08F000016CC05A
:1008500095F06DC096F096BF1BD09651800A896FB7
:100860008F51955D9051800A895912E286C089F0B6
:1008700087C08AF09551892796518A23892B000ECB
:100880008A238951916F8A51926F200E936F04D001
:100890008FC095F090C096F0030E00016D6F000EB2
:1008A0006C6F8D516E6F8E516F6F200E706F95C093
:1008B00071F096C072F095EC09F0000E00019525DC
:1008C000D96E030E9621DA6EDF6A9451160DBC0EB6
:1008D000F3246E6F7D0EF4206F6FCFEC0BF096510A
:1008E0006F1902E195516E193BE19451160DBC0E42
:1008F000F3246E6F7D0EF4206F6F8DC070F08EC08C
:1009000071F095C072F096C073F0BDC074F0DFEC6A
:1009100007F08B6F8B5124E0885112E09451160D33
:10092000140EF326000EF422BC0EF324F66E7D0E98
:10093000F420F76E8851D96EDA6A0800F5CFDFFF30
:1009400091519211931108E091C081F092C082F010
:1009500093C083F0BEEC08F0010E00018C6F02D052
:10096000942BB3D78C51120086516C6F87516D6FE9
:10097000200E6E6F200C9E6B98C06EF099C06FF0C9
:10098000CFEC0BF06EC09CF06FC09DF09AC0BDF034
:10099000050E00016D6F000E6C6F98C06EF099C06F
:1009A0006FF09CC070F09DC071F0240E726FD9EC96
:1009B00009F06C51A26FEB69EC690201006B030155
:1009C000006B0001A251800A7F0F69E39F6BA205B3
:1009D0009E6F61D0000E00019F25A06FA16B050ED8
:1009E000A1239F6711D0A0C086F0A1C087F0EB0EB5
:1009F000886F0AEC04F0000902E19E6B50D060D8C9
:100A0000010E40EC0BF039D0A0C086F0A1C087F0F9
:100A1000EC0E886F0AEC04F09B6F9B0520E1EC5113
:100A2000160D150EF326000EF422BC0EF324F66EFE
:100A30007D0EF420F76E0800F5CFBBF0EBC091F00F
:100A4000ECC092F0000E0001936F020E946F200E26
:100A5000956FBBC096F0000E40EC0BF00ED0EBC0D3
:100A600091F09269000E0001936F030E946F200EB7
:100A7000956F000E966B40EC0BF00001A0516C6F6F
:100A8000A1516D6F200E6E6F240E6F6F2AEC08F06F
:100A900000016C299F27A2070001A2299BE19E511A
:100AA000800A7F0F04E30CD8020E40EF0BF091692F
:100AB0009269936B946B956B966B030E40EF0BF002
:100AC000EBC091F09269936B946B956B966B1200EF
:100AD00020EE02F094D86CC0D9FF6DC0DAFFDECFF3
:100AE00072F0DDCF73F07051725D796F715173598F
:100AF0007A6F010E786F8CD8EA6403D0EA6EEF50FB
:100B000003D0F76E0800F5500A0A0EE0000180D805
:100B1000EA6403D0EA6EEF5003D0F76E0800F55098
:100B20000D0A02E00001786B00017851BE137AAF24
:100B30000AD020EE04F06C51D9266D51DA22DE5035
:100B40007927DD507A2320EE04F059D8FF0E702566
:100B5000726FFF0E7121736F7A51800A746F725138
:100B6000795D7351800A7459D8B012006CC0D9FFF6
:100B70006DC0DAFFDECF7BF0DDCF7CF06CC070F0B3
:100B80006DC071F07B5170277C517123060E702768
:100B9000000E712370C076F071C077F06EC0F6FF62
:100BA0006FC0F7FFF86A76C0D9FF77C0DAFF050E8D
:100BB000F76403D00800F55005D0F6CFE9FFF7CF72
:100BC000EAFFEF50DF6E00017B4B7C2B20EE04F040
:100BD0006C51D9266D51DA22DE527C51DD187BC072
:100BE000E8FFD8B4DF1802E17B6B7C6B6CC0D9FFE7
:100BF0006DC0DAFF7BC0DEFF7CC0DDFF12006C51F0
:100C0000D9266D51DA22DECF70F0DDCF71F01200FF
:100C10006E51F66EE96E050EEA6E6F51120020EE0F
:100C200002F091D81AC0D9FF1BC0DAFFDECF20F046
:100C3000DDCF21F01E50205C276E1F502158286EFA
:100C4000010E266E89D8EA6403D0EA6EEF5003D015
:100C5000F76E0800F5500A0A0CE07ED8EA6403D06B
:100C6000EA6EEF5003D0F76E0800F5500D0AD8A4D5
:100C7000266A26500001BE1328AE0AD020EE04F0EA
:100C80001A50D9261B50DA22DE502726DD502822A2
:100C900020EE04F058D8FF0E1E24206EFF0E1F20F9
:100CA000216E2850800A226E2050275C2150800A35
:100CB0002258D8B012001AC0D9FF1BC0DAFFDECF0D
:100CC00029F0DDCF2AF01AC01EF01BC01FF02950FA
:100CD0001E262A501F22060E1E26000E1F221EC090
:100CE00024F01FC025F01CC0F6FF1DC0F7FFF86AF6
:100CF00024C0D9FF25C0DAFF050EF76403D0080031
:100D0000F55005D0F6CFE9FFF7CFEAFFEF50DF6EE1
:100D1000294A2A2A20EE04F01A50D9261B50DA223A
:100D2000DE522A50DD1829C0E8FFD8B4DF1802E1EE
:100D3000296A2A6A1AC0D9FF1BC0DAFF29C0DEFF60
:100D40002AC0DDFF12001A50D9261B50DA22DECF4E
:100D50001EF0DDCF1FF012001C50F66EE96E050E7E
:100D6000EA6E1D501200800E886F5CD09051250AEB
:100D700004E09051F6EC0DF055D0896B57D89051A6
:100D8000D8B41200640AD8A40D0A4CE18851D96E77
:100D9000DA6ADECF8BF0DDCF8CF0020E88278CAFC5
:100DA00006D0030E89138B6D8C1FD8B08C2B010ECF
:100DB000906F905146D8F5CF86F00900F5CF87F0B7
:100DC00086518B5D87518C5904E3902B9051050A15
:100DD000F0E18951030B03E02D0EF6EC0DF090C00D
:100DE0008AF01CD08A512DD8F5CF6EF00A00F5CFCD
:100DF0006FF08BC06CF08CC06DF04AEC0CF06CC0E6
:100E000073F06DC074F0766B0A0E756FF6EC0CF033
:100E10007351300F906F9051F6EC0DF08A0700017E
:100E20008A29E0E103D89067A1D712007EC0F6FFBF
:100E30007FC0F7FF7E4B7F2B0800F5CF90F00001BD
:100E40001200020DB20EF324F66E7D0EF420F76E42
:100E50000900120006D0030E6D6FE80E6C6F0DECEA
:100E60000EF06FEC0CF0A56FA505F5E1F28EF28C9B
:100E70000001A669A769A86BA851330FD96EDA6A79
:100E8000010EDF6211D0A8512B0FD96EDA6ADF5044
:100E900003E1A8C0A6F005D0A8512B0FD96EDA6ADD
:100EA000DF06A7BFA8C0A7F0A82B070EA865E4D748
:100EB000A6BF15D0A651020DF350A90FD96EDA6A5C
:100EC00001D80AD00500FA6EDE50FD6EDE50FE6ECF
:100ED000F850FF6EFA5012000001A65116D0A7BFBD
:100EE00018D0A751020DF350A90FD96EDA6A01D8B4
:100EF0000AD00500FA6EDE50FD6EDE50FE6EF85030
:100F0000FF6EFA5012000001A751330FD96EDA6A52
:100F1000DF6A0400ADD7746B20EE02F06C51D92665
:100F20006D51DA22DECF75F0DDCF76F06CC0D9FFDF
:100F30006DC0DAFFDECF72F0DDCF73F0735176193A
:100F400002E17251751939E06CC070F06DC071F03A
:100F50007551702776517123060E7025D96E000EDB
:100F60007121DA6E6EC0E1FF6FC0E2FFDFCFE7FFF5
:100F7000754B762B20EE02F06C51D9266D51DA229A
:100F800075C0DEFF76C0DDFF20EE04F06C51D9267F
:100F90006D51DA22DE527651DD1875C0E8FFD8B403
:100FA000DF1809E120EE02F06C51D9266D51DA22EA
:100FB000000EDE6EDD6E010E746F74511200776BE1
:100FC0006F516E1145E07151701142E0786B796B91
:100FD00037D06EC075F06FC076F0785175277951B3
:100FE000762375C0F6FF76C0F7FF0800F5CF7AF0DC
:100FF00078517025D96E79517121DA6EDF507B6F8F
:1010000074670ED07A51E9EC0DF0000902E0200E71
:101010007A277B51E9EC0DF0000902E0200E7B27D6
:101020007A517B1906E07A513F0A03E07B513F0A6F
:1010300003E1010E776F02D0776B0AD0784B792BE2
:101040007207D8A0730700017229D8B47329C1E1CF
:1010500077511200736974696C516D116E112DE036
:10106000756B766B16D000012DD8F8BA03D0080046
:10107000F55005D0F6CFE9FFF7CFEAFFEF500001BA
:101080006F1905E175C073F076C074F016D0754B1A
:10109000762B7651800A7D0FE80ED8B4755D0DE28F
:1010A00011D8F8BA03D00800F55005D0F6CFE9FF03
:1010B000F7CFEAFFEF500009D6E173C06CF074C0BF
:1010C0006DF0120075516C25706F76516D21716F46
:1010D000000E76BFFF0E6E21726F70C0F6FF71C0FA
:1010E000F7FF72C0F8FF12007F6B806B7D6B7E6B29
:1010F00076C06EF077C06FF0CFEC0BF06EC07BF077
:101100006FC07CF02AD07D517425D96E7E51752137
:10111000DA6E76C078F077C079F07F517827805109
:1011200079237829E16E000E7921E26EE750D2EC46
:101130000AF07A6F7F517625E16E80517721E26E59
:10114000E750D2EC0AF0100DF3507A25DF6E020E54
:101150007F27000E80237D4B7E2BFF0E7B25786F33
:10116000FF0E7C21796F8051800A7A6F78517F5D04
:101170007951800A7A59D8B01200C5D781518211AD
:101180008311D8B4120081C06CF082C06DF083C0AE
:101190006EF0240E6F6F2AEC08F06CC084F06DC006
:1011A00085F0020E00016D6F000E6C6F81C06EF055
:1011B00082C06FF083C070F084C071F085C072F09F
:1011C00095EC09F0000E00018425D96E020E8521F0
:1011D000DA6EDF6A0FD0020E0001756F000E746FB9
:1011E000020E776F000E766F74EF08F00201006B4D
:1011F000016B1200BB51010AD8B41200030AEBE0E4
:10120000010AD8B41200060AD8B41200EFD7E8CF0A
:101210007FF0806B08D047EC0EF06C510F0B8C6E9A
:10122000010E806F21D07F511FE0030AF4E00A0A0B
:101230001BE0030A19E0000A17E0010A15E0070A9B
:1012400013E0010A11E0030A0FE0010A0DE01F0A92
:101250000BE0010A09E0030A07E0010A05E0070ABA
:10126000D8A4010AD8A4030A41EC0EF001C07DF015
:1012700002C07EF0000125EC0CF00001805107E077
:101280007F0E7E6FF90E7D6F25EC0CF006D07F0E81
:101290007E6FEE0E7D6F25EC0CF000018051120088
:1012A000020E0001786F7F0E776F030E7A6F7F0E4C
:1012B000796FA30E7B6FB5EC0CF0000909E0030E0B
:1012C0000001996F7F0E986F000E9A6BBBEC04F0D3
:1012D000010E00016D6F000E6C6FFCEC0BF06CC02A
:1012E000A3F06DC0A4F0A451800A800F010ED8B401
:1012F000A35DD8A01200010E0001786F000E776F79
:10130000030E7A6F7F0E796FA3C07BF0A4C07CF0D0
:1013100015EC0DF0030E00016E6F7F0E6D6FA3C014
:101320006FF0A4C070F0B2EF0BF0736974696E5186
:101330006F117011D8B412001ED0734B742B6EC095
:10134000F6FF6FC0F7FF70C0F8FFF8BA03D00800CF
:10135000F55005D0F6CFE9FFF7CFEAFFEF506CC0AC
:10136000D9FF6DC0DAFFDF6E00016E2B000E6F2318
:1013700070236C4B6D2B6EC0F6FF6FC0F7FF70C013
:10138000F8FFF8BA03D00800F55005D0F6CFE9FF12
:10139000F7CFEAFFEF50000908E000017107D8A07D
:1013A00072077129D8B47229C8E10001734B742BFC
:1013B0001200736B746B756B766B200E776F7351C5
:1013C0006E25D96E74516F21DA6EDF50786F7851C7
:1013D000200A03E0715170110EE17751200A13E0E9
:1013E0006CC0D9FF6DC0DAFF72C0DFFF6C4B6D2B94
:1013F000754B762B08D06CC0D9FF6DC0DAFF78C072
:10140000DFFF6C4B6D2B7151701108E07007D8A095
:101410007107734B742B78C077F0D1D76CC0D9FFAC
:101420006DC0DAFF72C0DFFF6C4B6D2B75C06CF0C6
:1014300076C06DF01200E8CF7FF041EC0EF001C0F5
:101440007DF002C07EF0000125EC0CF000017F5120
:101450002BE0010A29E0030A27E0010A25E0070A38
:1014600023E0010A21E0030A1FE0010A1DE00F0A40
:101470001BE0010A19E0030A17E0010A15E0070A58
:1014800013E0010A11E0030A0FE0010A0DE01F0A50
:101490000BE0010A09E0030A07E0010A05E0070A78
:1014A000D8A4010AD8A4030A7F0E7E6FEE0E7D6FCA
:1014B00025EC0CF0000C716B6FAF06D06E6D6F1FDA
:1014C000D8B06F2B010E716F6DAF06D06C6D6D1FB4
:1014D000D8B06D2B010E711B726B736B6F516E1157
:1014E0001BE0010E706F04D0D8906E376F37702BF1
:1014F0006FAFFAD7D890723773376E516C5D6F51FA
:101500006D5905E36E516C5F6F516D5B7281D890C0
:101510006F336E33702FEED7715104E0726D731F0D
:10152000D8B0732B72C06CF073C06DF01200010E56
:101530000001756F6B0E746FB9C076F0BAC077F0AA
:101540007AEC00F0C16FBFC18BF00001C0C18CF01C
:101550008D6B8CBF8D07B9C06CF0BAC06DF08BC0BD
:101560006EF08CC06FF0C20E05EC03F0C06F000E81
:10157000D0B5010EBF6F08D0BC6B0DD0C0C0BCF0A1
:101580000AD0C1C0BCF007D0DE51F6E0010AF6E097
:10159000030AF7E0F1D7BC51D8A4D880BF51D8A432
:1015A000D8821200E8CF6CF009D06C51D00F120035
:1015B0006C51A90F12006C51C90F12006C51300A06
:1015C000F4E0010AF2E0030AF0E0010AEEE0070AA3
:1015D000ECE0010AEAE0030AE8E0010AE6E00F0AAB
:1015E000E4E0010AE2E0780AE6E0030AE4E0010A46
:1015F000E2E0070AE0E0010ADEE0030ADCE0270A95
:10160000D7E0030AD5E0010AD3E0070AD1E0010AD6
:10161000CFE0030ACDE0000C716B6DAF06D06C6DAE
:101620006D1FD8B06D2B010E716F6FAF04D06E6D52
:101630006F1FD8B06F2B6F516E1117E0010E706FD6
:1016400004D0D8906E376F37702B6FAFFAD76E51CA
:101650006C5D6F516D5904E36E516C5F6F516D5B42
:10166000D8906F336E33702FF2D7715104E06C6DE8
:101670006D1FD8B06D2B6CC06CF06DC06DF012009A
:10168000E8CF97F07F0E7F6FCC0E7E6F97C080F013
:10169000816B9151826F836B82BF83079251846FFC
:1016A000856B84BF8507B3EC06F097670DD006D035
:1016B000925107EF09F092511BEF0AF09151F8E0B7
:1016C000010AD8A41200F7D79751020AD8B4120021
:1016D0009751030AD8A412007F0E7E6FF40E7D6F1F
:1016E00033EF0CF005EE00F07F0EEE6AE806FDE148
:1016F00004EE00F0BB0EEE6AE806FDE103EE00F03A
:10170000E30EEE6AE806FDE102EE00F0EA0EEE6A94
:10171000E806FDE101EE00F0D00EEE6AE806FDE11C
:1017200000EEA9F0440EEE6AE806FDE100EE2BF0B3
:10173000180EEE6AE806FDE1000EF86E00012AEFD1
:1017400007F010D000016D5124D8EA6403D0EA6E8E
:10175000EF5003D0F76E0800F55016EC0EF00001C4
:101760006D4B6E2B6F07D8A0700700016F29D8B49E
:101770007029D8B412006D510CD8EA6403D0EA6E17
:10178000EF5003D0F76E0800F5500009D8B41200EE
:10179000D9D7F66EE96E050EEA6E6E511200726BC5
:1017A000736B6F516E1123E06EC070F06FC071F0FB
:1017B00072517027735171237051F66EE96E050EE8
:1017C000EA6E7151EA6403D0EA6EEF5003D0F76E0F
:1017D0000800F550DBEC0DF0000909E0724B732BAB
:1017E0007351800A7D0FE80ED8B4725DDDE372C0DC
:1017F0006EF073C06FF0120020EE02F06C51D9262B
:101800006D51DA22DECF6EF0DDCF6FF06CC0D9FF04
:101810006DC0DAFFDECF70F0DDCF71F06E51705D1C
:10182000726F6F517159736F73AF0AD020EE04F06D
:101830006C51D9266D51DA22DE507227DD507323A8
:1018400072C06CF073C06DF012000DD0010E00017B
:101850006D6F000E6C6F7DC06EF07EC06FF068EC37
:1018600005F07D4B7E2B00017E517D11D8B4120016
:101870007D51F66EE96E050EEA6E7E51EA6403D084
:10188000EA6EEF5003D0F76E0800F5500009D8B4A7
:101890001200DCD7706B716B6F516E111BE0010E83
:1018A000726F04D0D8906E376F37722B6FAFFAD744
:1018B000D890703771376E516C5D6F516D5905E37B
:1018C0006E516C5F6F516D5B7081D8906F336E336A
:1018D000722FEED770C06CF071C06DF01200000175
:1018E000736B1FEC0EF054EC0EF003EC0EF0ACEC4E
:1018F0000DF0120EB46FA00EB36F150EAE6F2E0E5C
:10190000AD6F7F0E6E6FE80E6D6F706B640E6F6F54
:10191000A1EC0BF050EC0DF0000902E0010E736F2A
:1019200073511200E8CF1DF0C230E8320F0B1D18C2
:1019300010E01DC01CF01C461C46C2501C18C30BF6
:101940001C18C26E00F000F000F000F000F000F093
:1019500000F0C28202D000F000F0C2B2FCD79E9C20
:10196000C3CF1AF0C4CF1BF01200BE511EE07A5153
:1019700079111BE07B510BE1000C79C0D9FF7AC0D3
:10198000DAFF7CC0DFFF794B7A2B020E7B2777C012
:101990006CF078C06DF0000E6F6F7C0E6E6F8BEC8C
:1019A00007F00009EAE1BE6B010C000C706B6D5191
:1019B0006C111AE020EE02F06C51D9266D51DA223A
:1019C000DE6ADD6A6CC0D9FF6DC0DAFFDE6ADD6AEF
:1019D00020EE04F06C51D9266D51DA226EC0DEFF84
:1019E0006FC0DDFF010E706F7051120076517511DE
:1019F00017E0010E776F04D0D89075377637772BC4
:101A000076AFFAD77551735D7651745904E3755109
:101A1000735F7651745BD89076337533772FF2D736
:101A200073C073F074C074F012007E6B7F6B11D0C2
:101A300077C06CF078C06DF07E5179256E6F7F5164
:101A40007A216F6F8BEC07F00009D8B412007E4B3F
:101A50007F2B7B07D8A07C0700017B29D8B47C2989
:101A6000D8B41200E5D750EC0EF00009D8B412003B
:101A70000001630E69EC0DF0626F6205D8A41200DC
:101A8000020E1B6E7F0E1A6E0001000E1D6E630E9D
:101A90001C6E0FEC06F0010E386E0A0E306E0A0C4A
:101AA000010E00016D6F000E6C6F6F6B640E6E6F38
:101AB000D6EC0CF0716F020E00016D6F7F0E6C6F33
:101AC0006F6B640E6E6FD6EC0CF07111726F725109
:101AD0001200E8CF1BF01C6A39EC0EF0000903E09D
:101AE000CCEC0DF00CD050EC0EF0000908E01B50CF
:101AF000D96EDA6AAECFDFFF9E9A010E1C6E1C50C3
:101B00001200706B716B6CA104D06E5170276F5115
:101B10007123D8906E376F37D8906D336C336D5119
:101B20006C11F1E170C06CF071C06DF01200E8CF83
:101B30006DF0080E6E6F6F6BD89000016D356F35CC
:101B40006F6FD8906D376C516F5D02E36C516F5FB2
:101B50006E2FF2D76F511200260EAC6E900EAB6E48
:101B6000B86AB86A6C6B4B0E6D6F000E6E6B57ECFB
:101B70000EF09D8A9E8A1200000E92EC0CF01A5014
:101B80000001626F040E1B6E500E1A6E000E1D6E69
:101B9000620E1C6E0FEF06F008D0AB98AE50AE5040
:101BA000AB8850EC0EF00009FCE139EC0EF00009B6
:101BB000D8B41200F2D7E8CF6DF000016C6B1F0EA5
:101BC0006D6505D07F0E6D6102D0010E6C6F6C519A
:101BD0001200E8CF6DF06C6B400E6D6505D05B0EAA
:101BE0006D6102D0010E6C6F6C511200E8CF7DF078
:101BF000010E00016D6F000E6C6F000E6F6F7D0E99
:101C00006E6F68EF05F0010EC26EC16A160EC06EEF
:101C1000630E7E6E7F6A9D8C12006CC0EDF06DC00D
:101C2000EEF0EE51ED11D8B41200FBD7E8CF6CF016
:101C30004CEC0EF00009FCE06CC0ADFF12009268A5
:101C400093687F6AC10E946E956A8B6A8C6A1200E3
:101C50000001EE51ED11D8B41200ED07D8A0EE0747
:101C60001200E8CF6CF08F0ED3166C39F00BD31244
:101C70001200010E1A6EABA2ABB401D01A6A1A5050
:101C800012000301030E026E000E016E120000C26C
:101C90006CF001C26DF01200000E9EB8010E120031
:101CA000000E9EBA010E1200050E31EF0EF00C0E62
:101CB000AF6E0C0CFF00FF00FF00FF00FF00FF00F5
:107DB000FF0001000A006400E80310277369676E82
:107DC000616C0000000000000000000000000000E6
:107DD0000003696D7000000000000000000000005A
:107DE0000000000000000103707772000000000036
:107DF0000000000000000000000000000203706F9F
:107E000074000000000000000000000000000000FE
:107E1000000003037665720000000000000000000F
:107E200000000000000000000403737461747573A7
:107E3000000000000000000000000000000005033A
:107E4000616363000000000000000000000000000B
:107E500000000000070361647200000000000000E1
:107E60000000000000000000000008036572726F4F
:107E70007200000000000000000000000000000090
:107E8000060364656661756C747300000000000091
:107E900000000000000009036D6F64000000000096
:107EA0000000000000000000000000000A017072E5
:107EB0006F66696C650000000000000000000000B3
:107EC00000000B0370777274726967000000000095
:107ED00000000000000000000C036163637472691D
:107EE00067000000000000000000000000000D031B
:107EF000747269676C657600000000000000000085
:107F0000000000000E037472696773756D00000055
:107F1000000000000000000000000F037472696799
:107F2000636E74000000000000000000000000000C
:107F30001003776176746F6C65000000000000002C
:107F40000000000000001103776176747269670019
:107F50000000000000000000000000001203776134
:107F6000766C636E740000000000000000000000EA
:107F70000000130377617672636E740000000000E6
:107F80000000000000000000140369646964000040
:107F900000000000000000000000000000001503C9
:107FA000707377707377000000000000000000001D
:107FB00000000000160300000000000000000000A8
:107FC00000000000000000000000FFFF6F706572FD
:107FD0006174696F6E3D202564206369643D25648A
:107FE000207069643D25640068656C6C6F003A65BB
:107FF000727220006572720A003A6F6B20000000F6
:020000040020DA
:08000000FFFFFFFFFFFFFFFF00
:020000040030CA
:0E000000FF080815FF8D81FF0FC00FE00F40B5
:00000001FF
